:020000040800F2
:10000000182000200D150008A1030008A303000814
:10001000A7030008AB030008AF03000800000000BE
:10002000000000000000000000000000B303000812
:10003000B503000800000000B7030008B90300087A
:1000400027150008271500082715000827150008A0
:100050002715000827150008271500082715000890
:100060002715000827150008271500082715000880
:100070002715000827150008271500082715000870
:100080002715000827150008271500082715000860
:100090002715000827150008271500082715000850
:1000A0002715000827150008271500082715000840
:1000B0002715000827150008491200082715000811
:1000C0002715000827150008271500082715000820
:1000D0002715000883140008C91000082715000818
:1000E0002715000827150008271500082715000800
:1000F00027150008271500082715000827150008F0
:1001000027150008271500082715000827150008DF
:1001100027150008271500082715000827150008CF
:1001200027150008271500082715000827150008BF
:1001300000F002F800F06BF80AA090E8000C82448E
:100140008344AAF10107DA4501D100F060F8AFF26B
:10015000090EBAE80F0013F0010F18BFFB1A43F0A5
:10016000010318475C3400007C3400000A444FF05F
:10017000000C10F8013B13F0070408BF10F8014B06
:100180001D1108BF10F8015B641E05D010F8016B4B
:10019000641E01F8016BF9D113F0080F1EBF10F8AF
:1001A000014BAD1C0C1B09D16D1E58BF01F801CBD2
:1001B000FAD505E014F8016B01F8016B6D1EF9D555
:1001C0009142D6D37047000000230024002500266A
:1001D000103A28BF78C1FBD8520728BF30C148BFAA
:1001E0000B607047642902F03187732903F0BF80E8
:1001F000002070471FB503F0B5F90400002000216E
:1002000003F0C8F9401C60601FBD10B510BD03F0BD
:1002100084F91146FFF7EEFF00F008F803F0B4F997
:1002200003B4FFF7F2FF03BC01F0D0F801F064F86B
:100230004FF4A06001F08AF94FF4E13001F0D5F8F5
:100240004FF4E13000F0A6FF00F0A8F96EE000F0F6
:1002500029FD00F0F2FE00F090FD3548008800F422
:10026000004000285AD032480088C0F30D04002016
:10027000304908550A4630A1314800F0E6F900201F
:100280002B4908802F4890F82B0000F0010000282F
:1002900040D12C4890F8290000283BD12AA12548BC
:1002A00002F094FF10B900F07EFA33E027A1214854
:1002B00002F08CFF10B900F0B2FA2BE024A11D4827
:1002C00002F084FF30B923A323A224A125A000F0CB
:1002D000C4FA1FE028A1174802F078FF20B91FA137
:1002E00020A000F0F8FA15E024A1124802F06EFFF9
:1002F00030B923A3012223A123A000F019FB09E0B8
:1003000025A10C4802F062FF20B91DA213A115A07F
:1003100000F057FB2146074802F036FF1F480068EF
:1003200008B9012000E000201C4908608FE70000A8
:100330002C0C0020EC18002025730D0A0000000092
:1003400000440040461400204B3000004B310000B8
:100350004B32000035313200300000003138303689
:100360003000000076312D746D6C2E6C756C7563E9
:1003700061692E636E0000004B3300004B340000B7
:1003800031320000383000007777772E626169647F
:10039000752E636F6D0000004B3500009481214283
:1003A000704700BFFEE700BFFEE700BFFEE700BFEB
:1003B000FEE7704770477047704700000CB500209B
:1003C000019000906C48006840F480306A490860F1
:1003D00000BF6948006800F4003000900198401C9C
:1003E0000190009818B90198B0F5A06FF1D162485A
:1003F000006800F4003010B10120009001E00020FE
:1004000000900098012843D15C48006840F010003B
:100410005A4908600846006820F003000860084652
:10042000006840F002000860534840685249486044
:100430000846406848600846406840F4806048606C
:100440000846406820F47C1048600846406840F444
:10045000E81048600846006840F08070086000BFFF
:100460004548006800F000700028F9D04248406814
:1004700020F00300404948600846406840F0020010
:10048000486000BF3C48406800F00C000828F9D1E3
:100490000CBD10B5FFF792FF10BD10B536480068CF
:1004A00040F001003449086008464068344908407B
:1004B0003149486008460068324908402E490860C2
:1004C0000846006820F4802008600846406820F450
:1004D000FE0048604FF41F008860FFF7DAFF4FF01E
:1004E00000602949086010BD10B5002100200022DD
:1004F000214B5B6803F00C0121B1042906D00829C7
:1005000028D107E0214B224C236027E01F4B204CD1
:10051000236023E0184B5B6803F47010164B5B6894
:1005200003F48032022303EB904022B9194B43437A
:10053000174C23600DE0104B5B6803F4003323B1CC
:10054000144B4343124C236003E0104B4343104CC5
:10055000236003E00D4B0E4C236000BF00BF064B31
:100560005B68C3F303130C4CE15C094B1B68CB4085
:10057000074C236010BD0000001002400020024024
:100580000000FFF8FFFFF6FE08ED00E000127A0021
:100590000000002000093D000400002008B50121F2
:1005A000482001F05DFB2020ADF8000010208DF800
:1005B000030003208DF802006946094801F094F811
:1005C0002021074801F03DF92020ADF800006946E0
:1005D000044801F089F82021024801F032F908BDF1
:1005E000000C014000180140F0B503460D461646C8
:1005F000002729460A2E03D0002008702846F0BDA7
:1006000033B9302001F8010B002008702846F6E7C6
:10061000002B03DA2D2001F8010B5B4242F210722D
:100620000DE093FBF2F404B937B104F1300001F8A6
:10063000010B04FB123301270A2092FBF0F2002A7F
:10064000EFDC002008702846D9E70FB470B586B0FB
:1006500006460CA8019073E00B9800785C281CD12A
:100660000B98401C0B9000786E2809D072280FD18F
:100670000D21304602F0A2FB0B98401C0B900BE0C2
:100680000A21304602F09AFB0B98401C0B9003E0C5
:100690000B98401C0B9000BF4BE00B98007825286E
:1006A00040D10B98401C0B900078642818D0732818
:1006B00033D1019810C801900BE02178304602F048
:1006C0007DFB00BF8021304602F0E6FB0028F9D018
:1006D000641C20780028F0D10B98401C0B9020E07F
:1006E000019820C801900A2202A92846FFF77CFF42
:1006F00002AC0BE02178304602F060FB00BF8021A5
:10070000304602F0C9FB0028F9D0641C207800288C
:10071000F0D10B98401C0B9003E00B98401C0B9001
:1007200000BF06E00B9810F8011B0B90304602F05A
:1007300045FB00BF8021304602F0AEFB0028F9D017
:100740000B980078002887D106B070BC5DF814FBC8
:1007500070B504460D460020F749A1F8000822466E
:10076000F6A1F848FFF771FF2146F4A002F0F0FB74
:1007700070BD70B504460025F3A1EF4802F026FDD8
:1007800020B1EFA1EC4802F021FD08B9002070BDB6
:10079000E949EAA002F0DCFB2146E74802F09FFCB1
:1007A00005462846F3E710B588B0E8A2D2E9013142
:1007B0001068D268CDE9053107920490E7A3D3E928
:1007C0000020D3E9021301AC0BC4009200240CE01A
:1007D000E6A1DC48FFF739FFE4A002F0B9FB4FF4D3
:1007E0007A7000F0C6FD601CC4B2052CF0DB00245A
:1007F0000AE004A8005DDF4908551DF80410DD4833
:1008000014300155601CC4B20E2CF2D30320D94918
:1008100081F82800002081F82A0008B010BD0CB52E
:10082000D5A109680191D5A10968009100200AE0CD
:1008300001A9095CCF4A11541DF80020CD4914319B
:100840000A54411CC8B20328F2D30321C94A82F8D2
:100850002810002182F82A100CBD2DE9FF41054621
:100860000E4617469846C6A103C9CDE90201C6A1A6
:1008700003C9CDE900015FB1B8F1000F08D0142021
:100880008DF80B0043463A46C1A1C74802F06CFB05
:100890002A46C6A1CA4802F067FB3246C9A1C84829
:1008A000503002F061FB00240AE002A8005DB1496B
:1008B00008551DF80410AF4814300155601CC4B22F
:1008C000052CF2D30320AB4981F82800002081F8E1
:1008D0002A00BDE8FF817FB505460E46BEA003C8CD
:1008E000CDE90201A8A103C9CDE900012A46AFA1C3
:1008F000B34802F039FB3246B2A1B148503002F0A1
:1009000033FB00240AE002A8005D9A4908551DF84F
:100910000410984814300155601CC4B2052CF2D361
:100920000320944981F82800002081F82A007FBD27
:100930002DE9FF470746884615461E46A8A103C96C
:10094000CDE90201A8A103C9CDE90001002D01DB19
:10095000042D00DD01253A4694A1994802F004FBDC
:10096000424698A19648503002F0FEFA304602F016
:10097000ECFB81462B464A469DA1A34802F0F4FABF
:100980003146A24802F0BDFB00240AE002A8005D47
:10099000784908551DF80410764814300155601C3C
:1009A000C4B2052CF2D399489949086000204860E8
:1009B0000320704981F82800002081F82A00BDE852
:1009C000FF872DE9FF4106460F46154691A103C951
:1009D000CDE9020191A103C9CDE900013B463246B0
:1009E00090A18948A03002F0BFFA284602F0ADFB82
:1009F0008046424690A1944802F0B6FA284602F09A
:100A0000A4FB8046424691A1944802F0ADFA2946E3
:100A10007E4802F076FB00240AE002A8005D5549FA
:100A200008551DF80410534814300155601CC4B219
:100A3000062CF2D3754876490860002048600320F0
:100A40004C4981F82800002081F82A00BDE8FF8188
:100A500010B5484890F8290028B16D4908688049C8
:100A6000FFF776FE16E0434A92F82A301432D25C41
:100A700002EB82027A4B283B03EBC2013D4A92F81B
:100A80002A203C4B9A5C02EB8202764B03EB02106D
:100A9000FFF75EFE374890F82B0020F00100401C65
:100AA000344981F82B0091F82A10324A515C01EB4D
:100AB00081016C4A02EB01106BA102F010FB48B1FE
:100AC0002C4890F82B0020F0E0004030294981F8B4
:100AD0002B00E6E0274991F82A10264A515C01EBE9
:100AE0008101604A02EB011061A102F0F8FA48B1FD
:100AF000204890F82B0020F0E00060301D4981F87C
:100B00002B00CEE01B4991F82A101A4A515C01EBE8
:100B10008101544A02EB011059A102F0E0FA48B1F8
:100B2000144890F82B0020F0E0008030114981F843
:100B30002B00B6E0ACE00000440C002025730D0A49
:100B400000000000004400400D0A00000102030400
:100B500005060708090A0B0C0D0000000101010140
:100B600002010301040105010100000041540D0AC6
:100B700000000000461400200E0F000001060000D7
:100B8000101112130000000001010101000000001B
:100B900041542B48545450414354494F4E3D302CFE
:100BA00025732C25730000005506002041542B4866
:100BB000545450504152413D75726C2C25730000C5
:100BC0001505002041542B48545450504152413D8A
:100BD000706F72742C257300101112150000000044
:100BE00010111219000000000101010800000000AE
:100BF00041542B48545450414354494F4E3D322C9C
:100C000025642C2564000000E50700209C140020CA
:100C1000741400201A1B1C1D1A0000000A0B0C087B
:100C20000D00000041542B54435053455455503D42
:100C3000312C25732C25730041542B5443505345BC
:100C40004E443D312C256400250900202B5443508F
:100C500053454E443A20312C25640000F50B00200A
:100C6000ED0900201500002041542B435351000092
:100C700041542B48545450414354494F4E3D000079
:100C800041542B54435053455455503D00000000EF
:100C9000FC4890F82B0020F0E0002030F94981F862
:100CA0002B0010BD10B5F74890F82B0000F00100A4
:100CB000002861D1F34890F82B00C0F340000028D1
:100CC00046D0F04890F82B00C0F38000D0B1ED483A
:100CD00090F8290088B9EB4890F82A101430405C4D
:100CE000082803D10120E74981F82900E54890F858
:100CF0002A00401CE34981F82A000320E14981F8D9
:100D000028000AE0DF4890F82800401EDD4981F8FD
:100D100028004FF47A7000F02CFBDA4890F82B0092
:100D200020F0E000D74981F82B00084690F82B000E
:100D300020F0020081F82B00084690F82B0020F0EC
:100D4000080081F82B000020CF49A1F8000813E02B
:100D5000CC4890F82A00CB49085C18B9084690F8AE
:100D6000290048B1C74890F8280018B90120C749A0
:100D7000087001E0FFF76CFE10BD2DE9F041002482
:100D80000025C148B0F80008C00B00287CD0BD4841
:100D900090F82B00C0F3C00038B1BA4890F82B008F
:100DA00020F00800B74981F82B000020B649B1F8BF
:100DB0000018C1F30E01B44A5054B24890F829000B
:100DC00000283BD01146AFF28C2002F0C1F8B049A8
:100DD000AD4802F084F928B1AD49AB4802F07FF983
:100DE000044609E0AB49A84802F079F920B1A949C5
:100DF000A54802F074F90446002C1ED0A249A6486A
:100E000002F07FF900209F4981F82900084690F8F8
:100E10002B0020F00400001D81F82B00084690F8FC
:100E20002B0020F00200801C81F82B00084690F86F
:100E30002B0020F0010081F82B00D8E0914890F8B9
:100E40002B000121B1EB501F38D18E4991F82A2097
:100E50001431895C01EB8101904A02EBC100FFF77C
:100E600088FC04468CB1874890F82B0020F00400E1
:100E7000001D844981F82B00084690F82B0020F0D3
:100E8000E00081F82B0008E0B6E07E4890F82B00E7
:100E900020F004007B4981F82B007A4890F82B0061
:100EA00020F00200801C774981F82B00084690F85A
:100EB0002B0020F0010081F82B0098E0714890F899
:100EC0002B000221B1EB501F37D175A16E4802F003
:100ED00006F9074673A102F002F9461C304602F0FB
:100EE000F1F805466849AFF2AC3002F031F85DB177
:100EF0001F2D09D8634890F82B0020F00400001D36
:100F0000604981F82B0007E05E4890F82B0020F044
:100F100004005C4981F82B005A4890F82B0020F01F
:100F20000200801C574981F82B00084690F82B00DE
:100F300020F0010081F82B0059E0524890F82B0076
:100F40000321B1EB501F1CD15148FFF712FC04469E
:100F50004C4890F82B0020F00400001D494981F80E
:100F60002B00084690F82B0020F00200801C81F82E
:100F70002B00084690F82B0020F0010081F82B0090
:100F800035E0404890F82B000421B1EB501F1ED1F2
:100F900040487838FFF7EDFB044644B3394890F8F1
:100FA0002B0020F00400001D364981F82B00084674
:100FB00090F82B0020F00200801C81F82B000846DE
:100FC00090F82B0020F0010081F82B000FE00020AA
:100FD0002D49B1F80018C1F30E012B4A50541146A7
:100FE00031A001F0B5FF00202749A1F8000800203A
:100FF0002549A1F800081EE0224890F82B0000F0D7
:10100000010018B91F4890F82900A0B11D4890F8B8
:101010002B00C0F3C00070B91C48007858B91948BB
:1010200090F82B0020F008000830164981F82B00BA
:10103000002020490880BDE8F08110B513480078F1
:10104000F0B11DA001F084FF00200E4981F82B00B3
:10105000032081F82800002408E0002009490855F1
:101060000021084814300155601CC4B2142CF4D37C
:10107000002006490870034981F8290081F82A00F8
:1010800010BD000046140020440C00201400002075
:10109000DD0A0020F50B0020EC140020C50900201B
:1010A0002B4353513A0000005245433A0D0A257331
:1010B0000D0A0000200C00200D0AD5FDD4DAD6D888
:1010C000C6F40D0A0000000010B540F22551814819
:1010D00001F0F8FE28B37F4801F074FEC4B27E48E8
:1010E000B0F80008C0F30E0040F2FF71884219DA30
:1010F00000207A4908707848B0F8000810B901203B
:10110000774908707449B1F80018C1F30E00411C0A
:10111000714AB2F8002861F30E026F49A1F8002865
:101120000C5409E06C48B0F8000820F4004000F5C9
:1011300000406949A1F8000810BD7FB505460C467E
:101140000121042000F099FDADF80850ADF80440ED
:101150000020ADF80A00ADF8060001A9614800F0D2
:10116000B7FE012211465F4801F029FA1E208DF8D2
:10117000000001208DF8010002208DF802000120FE
:101180008DF80300684600F0E6F90121554801F0AA
:10119000FBF97FBD10B586B004460121042000F0A4
:1011A0005FFD0121480400F068FD4A4801F0CAFCD7
:1011B0000420ADF8100003208DF8120018208DF8DF
:1011C000130004A9484800F08FFA0820ADF8100079
:1011D00004208DF8130004A9434800F085FA009418
:1011E0000020ADF80400ADF80600ADF80800ADF839
:1011F0000C000C20ADF80A006946364801F0E5FC09
:101200000121344801F06DFD012240F225513148A1
:1012100001F073FD26208DF8140002208DF81500D2
:1012200003208DF8160001208DF8170005A800F0A6
:1012300092F900202849A1F8000841F61F41092031
:10124000FFF77BFF06B010BD10B50121254801F066
:1012500064FC00283DD0254890F82B00C0F3C00066
:10126000C0B123480088401C2149088008460088F6
:1012700040F6B73188420DD101201E490870002088
:101280001B490880194890F82B0020F008001749E6
:1012900081F82B0012480078B8B110480078401C43
:1012A0000E490870084600780A280ED10A48B0F89E
:1012B000000820F4004000F500400749A1F80008AC
:1012C000002006490870064908700121054801F010
:1012D00035FC10BD00440040440C00201E0C0020D2
:1012E0001D0C0020000800400008014046140020AA
:1012F000200C00201400002010B56FF0040000F056
:1013000074F92E4800682E49B0FBF1F02D490870A1
:101310000846007800EB4001C1EBC0104FF6FF71AA
:1013200001EAC0002849088010BD0146254A12780C
:101330004A434FF0E0235A6100229A611A4612692B
:1013400042F001021A6100BF4FF0E022106900F084
:1013500001021AB100F48032002AF5D04FF0E022E9
:10136000126922F001024FF0E0231A6100229A6113
:1013700070470146144A12884A434FF0E0235A61ED
:1013800000229A611A46126942F001021A6100BFF6
:101390004FF0E022106900F001021AB100F480322F
:1013A000002AF5D04FF0E022126922F001024FF03E
:1013B000E0231A6100229A617047000000000020BB
:1013C00000127A00220C0020240C0020014600BFED
:1013D000704700BF494A128802F04002002AF9D043
:1013E000C2B2464B1B1D1A80704710B586B004462A
:1013F000012144F2040000F033FC4FF40070ADF81A
:10140000140003208DF8160018208DF8170005A988
:101410003B4800F069F94FF48060ADF814000420F7
:101420008DF8170005A9364800F05EF925208DF8E3
:10143000000003208DF801008DF8020001208DF8D6
:101440000300684600F087F801940020ADF808001A
:10145000ADF80A00ADF80C00ADF810000C20ADF8A6
:101460000E0001A9254801F0B0FB012240F22551F0
:10147000224801F042FC0121204801F032FC06B074
:1014800010BD10B540F225511C4801F01BFD10B3F2
:101490001A4801F097FCC4B21A48008800F40040D2
:1014A000C8B91848008800F4804060B10A2C03D005
:1014B00000201449088020E01248008840F40040D1
:1014C0001049088019E00D2C06D10E48008840F420
:1014D00080400C49088010E00A480088C0F30D00E5
:1014E00009490C5407480088401C064908800846F2
:1014F0000088C72801DD0020088010BD00380140A9
:10150000000801402C0C0020EC18002009488047FE
:1015100009480047FEE7FEE7FEE7FEE7FEE7FEE7D5
:10152000FEE7FEE7FEE7FEE704480549054A064BED
:10153000704700009B04000831010008181A0020C1
:1015400018200020181C0020181C002031490143DD
:10155000314A1160704770B5002100230F22C47812
:1015600004B32D4C246804F4E064C4F5E064210A5B
:10157000C1F10403CA40447804FA03F184781440AA
:1015800021430901254C0678A155047804F01F0574
:101590000124AC4005786D11AD0005F1E025C5F8DA
:1015A000004109E0047804F01F050124AC401C4D03
:1015B0000678761145F8264070BD1A4A0A40024363
:1015C000154B1B1F1A60704739B1134A121D126860
:1015D0000243114B1B1D1A6006E00F4A121D1268D0
:1015E00082430D4B1B1D1A607047042808D14FF031
:1015F000E021096941F004014FF0E022116107E0A8
:101600004FF0E021096921F004014FF0E02211615F
:10161000704700000000FA050CED00E000E400E077
:1016200080E100E080FFFF1F10B50446CC488442F3
:1016300008D10121042000F02DFB0021042000F03E
:1016400029FB46E0C748844208D10121082000F068
:1016500021FB0021082000F01DFB3AE0C248844233
:1016600008D10121102000F015FB0021102000F00E
:1016700011FB2EE0BD48844208D10121202000F05A
:1016800009FB0021202000F005FB22E0B84884423D
:1016900008D10121402000F0FDFA0021402000F097
:1016A000F9FA16E0B348844208D10121802000F005
:1016B000F1FA0021802000F0EDFA0AE0AE48844201
:1016C00007D10121801500F0E5FA0021A01500F0F6
:1016D000E1FA10BD10B50121084600F0DBFA002147
:1016E000012000F0D7FA10BD2DE9F0410246002597
:1016F0000026002000230024002791F803C00CF0EE
:101700000F0591F803C00CF0100CBCF1000F03D0D2
:1017100091F802C04CEA050591F800C0BCF1000F39
:1017200031D0146800202BE04FF0010C0CFA00F3CC
:10173000B1F800C00CEA03069E4220D183004FF0AE
:101740000F0C0CFA03F7BC4305FA03FC4CEA040443
:1017500091F803C0BCF1280F06D14FF0010C0CFA30
:1017600000FCC2F814C00AE091F803C0BCF1480FB5
:1017700005D14FF0010C0CFA00FCC2F810C0401C5F
:101780000828D1D31460B1F800C0BCF1FF0F34DDDC
:10179000546800202EE000F1080C4FF0010808FA10
:1017A0000CF3B1F800C00CEA03069E4221D183007D
:1017B0004FF00F0C0CFA03F7BC4305FA03FC4CEA9C
:1017C000040491F803C0BCF1280F05D100F1080C06
:1017D00008FA0CF8C2F8148091F803C0BCF1480F65
:1017E00007D100F1080C4FF0010808FA0CF8C2F814
:1017F0001080401C0828CED35460BDE8F0814FF61D
:10180000FF710180022181700421C170704702467E
:10181000002093680B400BB1012000E000207047CE
:101820000146886880B2704702460020D3680B40AA
:101830000BB1012000E0002070470146C86880B26B
:10184000704701617047416170470AB1016100E072
:1018500041617047C16070474FF480320A43826132
:101860008161826182698269704702460020434B30
:1018700018684FF68073184040EA021008433F4B47
:10188000186070473E49C8617047F0B50A460023AA
:1018900000240021002500F00046B6F1004F02D1DF
:1018A000364EF16901E0354E7168C0F3034583B2ED
:1018B00000F44016B6F5401F08D121F070612F4E9C
:1018C000766826F070662D4F7E6012E000F4801678
:1018D000B6F5801F06D1032606FA05F4A14341F0B0
:1018E000706106E0460D360103FA06F6B14341F099
:1018F000706122B1460D360103FA06F6314300F05D
:101900000046B6F1004F02D11C4EF16101E01B4EC2
:101910007160F0BD30B500228B071C0F0F2303FA56
:1019200004F2164B08338C1053F824309343134CB5
:1019300008348D1044F8253023468C1053F8243099
:101940008C07240F00FA04F423430C4C08348D1048
:1019500044F8253030BD0A49DC310860704700008A
:1019600000080140000C014000100140001401403B
:1019700000180140001C014000200140000001400F
:1019800000002042DF48006840F00100DD490860A7
:1019900008464068DC490840DA4948600846006863
:1019A000DA490840D74908600846006820F48020DA
:1019B00008600846406820F4FE0048604FF41F00AD
:1019C00088607047CF49096821F48031CD4A1160A1
:1019D0001146096821F480211160B0F5803F03D0E1
:1019E000B0F5802F0ED106E0C649096841F4803178
:1019F000C44A116007E0C349096841F4A021C14A03
:101A0000116000E000BF00BF704710B50146002222
:101A1000002300204A11012A02D1BA4C236806E0B3
:101A2000022A02D1B74C236A01E0B64C636A01F086
:101A30001F02012494401C400CB1012000E0002052
:101A400010BD38B5002000900024002500BF3120D3
:101A5000FFF7DBFF05460098401C00900098B0F5AA
:101A6000A06F01D0002DF2D03120FFF7CEFF08B1DA
:101A7000012400E00024204638BD01460020A14A90
:101A8000106820F0F80040EAC10010607047A049DB
:101A900008607047024600209A4B586820F47C107A
:101AA00042EA01031843974B58607047984908660B
:101AB000704701460020934A506820F00300084315
:101AC000506070478F48406800F00C007047014636
:101AD00000208C4A506820F0F000084350607047A6
:101AE00001460020874A506820F4E06008435060B7
:101AF000704701460020834A506820F4605040EA55
:101B0000C1005060704729B17E4A527A02437D4B32
:101B10005A7204E07B4A527A82437A4B5A72704777
:101B20007B49D8310860704701460020754A5068EB
:101B300020F440400843506070470021714A203231
:101B40001170704A82F82010012802D004280AD1AE
:101B500004E001216B4A2032117005E00521694A39
:101B60002032117000E000BF00BF70476949086073
:101B700070476449096A0143624A116270476549C6
:101B800044390860704730B500210022002400234A
:101B90005C4D6D6805F00C0121B1042905D00829C0
:101BA00023D105E05C4D056022E05B4D05601FE040
:101BB000544D6D6805F47012524D6D6805F4803413
:101BC000022505EB92421CB9544D554305600BE0CC
:101BD0004C4D6D6805F400351DB1504D5543056001
:101BE00002E04D4D5543056002E04B4D056000BFDE
:101BF00000BF444D6D6805F0F0010909484D6B5C6C
:101C00000568DD4045603F4D6D6805F4E061090AF7
:101C1000434D6B5C4568DD4085603A4D6D6805F469
:101C20006051C90A3E4D6B5C4568DD40C560354D6D
:101C30006D6805F44041890B3A4D6B5CC568B5FB96
:101C4000F3F5056130BD29B12E4A526902432D4B8F
:101C50005A6104E02B4A526982432A4B5A61704709
:101C600029B1284A92690243264B9A6104E0254A29
:101C700092698243234B9A61704729B1214AD26904
:101C80000243204BDA6104E01E4AD26982431D4BB5
:101C9000DA61704729B11B4AD2680243194BDA60F6
:101CA00004E0184AD2688243164BDA60704729B1C3
:101CB000144A12690243134B1A6104E0114A126973
:101CC0008243104B1A6170471249403908607047CF
:101CD0000F49C86470470B49C87170470948406A8A
:101CE00040F0807007494862704701460020054A6D
:101CF00092680A400AB1012000E0002070470149C3
:101D000088727047001002400000FFF8FFFFF6FEE7
:101D1000000042428004424200127A0000093D0065
:101D20002E0C00203E0C002010B50446FE488442D4
:101D300008D10121C014FFF7ADFF0021E014FFF727
:101D4000A9FFC4E0B4F1804F08D101210846FFF794
:101D5000AEFF00210120FFF7AAFFB8E0F34884425C
:101D600008D101210220FFF7A2FF00210220FFF786
:101D70009EFFACE0EE48844208D101210420FFF729
:101D800096FF00210420FFF792FFA0E0E94884427B
:101D900008D101210820FFF78AFF00210820FFF762
:101DA00086FF94E0E448844208D101211020FFF727
:101DB0007EFF00211020FFF77AFF88E0DF48844291
:101DC00008D101212020FFF772FF00212020FFF71A
:101DD0006EFF7CE0DA48844208D101214014FFF70D
:101DE00059FF00216014FFF755FF70E0D548844289
:101DF00009D10121C804FFF74DFF00214FF4002055
:101E0000FFF748FF63E0D048844209D1012108056B
:101E1000FFF740FF00214FF48010FFF73BFF56E033
:101E2000CA48844209D101214805FFF733FF002148
:101E30004FF40010FFF72EFF49E0C548844208D157
:101E400001214020FFF733FF00214020FFF72FFF43
:101E50003DE0C048844208D101218020FFF727FFE0
:101E600000218020FFF723FF31E0BB48844208D1E6
:101E700001218015FFF71BFF0021A015FFF717FFB9
:101E800025E0B648844209D101210804FFF702FF8A
:101E900000214FF48030FFF7FDFE18E0B048844287
:101EA00009D101214804FFF7F5FE00214FF400306D
:101EB000FFF7F0FE0BE0AB48844208D10121880413
:101EC000FFF7E8FE00214FF48020FFF7E3FE10BD8E
:101ED00000220288944B98420ED0994B98420BD026
:101EE000B0F1804F08D0914B984205D0904B98426A
:101EF00002D0904B984204D14FF68F731A404B8812
:101F00001A438D4B984207D08C4B984204D04FF621
:101F1000FF431A40CB881A4302808B8883850B8845
:101F20000385814B98420BD0854B984208D08B4B50
:101F3000984205D08A4B984202D08A4B984201D1F0
:101F40000B7A038601238382704770B50024002238
:101F50000023058C4FF6FE7635400584028C83887D
:101F6000048B4FF68F752C40B51E2C400D882C43EA
:101F7000751E2A400D892A434D882A436A4DA8427E
:101F80000BD06F4DA84208D0744DA84205D0744DB7
:101F9000A84202D0734DA84213D14FF6F7752A40DC
:101FA0004D892A434FF6FB752A408D882A434FF608
:101FB000FF652B404FF6FF552B408D892B43CD8974
:101FC0002B4383800483CD888586028470BD70B5E1
:101FD000002400220023058C4FF6EF76354005845F
:101FE000028C8388048B48F6FF752C404FF6FF4522
:101FF0002C400D884FF6FF7606EA05252C434FF658
:10200000DF752A400D8906EA05152A434D8806EA40
:1020100005152A43444DA84202D0494DA8421DD17E
:102020004FF67F752A404D894FF6FF7606EA051573
:102030002A434FF6BF752A408D8806EA05152A43C4
:102040004FF6FF352B404FF2FF752B408D8906EA86
:1020500085052B43CD8906EA85052B4383800483C0
:10206000CD880587028470BD70B50024002200234E
:10207000058C4FF6FF6635400584028C8388848B7F
:102080004FF68F752C404FF6FC752C400D882C4375
:102090004FF6FF552A400D894FF6FF7606EA0525D3
:1020A0002A434D8806EA05252A431F4DA84202D03F
:1020B000234DA8421DD14FF2FF752A404D894FF69E
:1020C000FF7606EA05252A434FF6FF352A408D881C
:1020D00006EA05252A434EF6FF752B404DF6FF759F
:1020E0002B408D8906EA05152B43CD8906EA051597
:1020F0002B4383808483CD888587028470BD70B52F
:10210000002200230024058C4EF6FF76354005841E
:10211000038C8488828B48F6FF752A404FF6FF4572
:102120002A400D8820E00000002C014000040040FF
:1021300000080040000C0040001000400014004067
:1021400000340140004C0140005001400054014067
:1021500000180040001C00400020004000400140EA
:1021600000440140004801404FF6FF7606EA05258D
:102170002A434DF6FF752B400D8906EA05352B43A2
:102180004D8806EA05352B43FA4DA84202D0FA4D98
:10219000A84208D14BF6FF752C408D894FF6FF768B
:1021A00006EA85152C4384808283CD88A0F84050B0
:1021B000038470BD828B4FF2FF331A408283828B7F
:1021C0004FF6FF7303EA01231A4382837047F0B589
:1021D0000C461546002200210026078C4EF6FF7C97
:1021E00007EA0C070784828B018C4FF6FF7707EA1A
:1021F000043640F6FF473A404FF6FF7707EA0527D7
:102200003A434FF6FF7707EA03373A43D94FB842CC
:102210000ED0D94FB8420BD0B0F1804F08D0D74F75
:10222000B84205D0D64FB84202D0D64FB84206D1F8
:102230004DF6FF77394046F48057394305E047F6BD
:10224000FF57394044F48057394382830184F0BDFD
:10225000828B4FF6F3731A408283828B0A43828308
:102260007047F0B50C461546002200210026078C69
:102270004FF6FF6C07EA0C070784828B018C4FF640
:10228000FF7707EA04264FF60C773A404FF6FF77C0
:1022900007EA03172F433A43B64FB8420ED0B64F62
:1022A000B8420BD0B0F1804F08D0B44FB84205D03F
:1022B000B34FB84202D0B34FB84206D14FF6FF57E2
:1022C000394046F48077394305E04FF2FF573940F3
:1022D00044F48077394382830184F0BD028B4FF24E
:1022E000FF331A400283028B4FF6FF7303EA012388
:1022F0001A4302837047F0B50C46154600220021B0
:102300000026078C4FF6EF7C07EA0C070784028B48
:10231000018C4FF6FF7707EA041640F6FF473A4074
:102320004FF6FF7707EA03373A434FF6FF7707EA9E
:1023300005273A438F4FB8420ED08F4FB8420BD08B
:10234000B0F1804F08D08D4FB84205D08C4FB842C5
:1023500002D08C4FB84206D14FF6DF77394046F0B5
:102360001007394305E04FF65F77394044F0100716
:10237000394302830184F0BD028B4FF6F3731A4098
:102380000283028B0A4302837047F0B50C46154660
:1023900000220021068C4FF6FE773E400684028B19
:1023A000018C4FF60C7632407E1C06EA03162E4353
:1023B0003243704EB0420ED06F4EB0420BD0B0F1EF
:1023C000804F08D06D4EB04205D06D4EB04202D065
:1023D0006C4EB04206D14FF6FD76314044F0010616
:1023E000314305E04FF6F576314044F001063143C4
:1023F00002830184F0BD70B505460C465D488542F8
:102400000ED05D4885420BD0B5F1804F08D05B48B7
:10241000854205D05A48854202D05A48854200D1AB
:1024200000E000BF208850B92389A288618828462F
:10243000FFF7ABFFE1882846FFF79EFF25E02088E5
:1024400004280AD12389A28861882846FFF753FF10
:10245000E1882846FFF742FF17E0208808280AD1C4
:102460002389A28861882846FFF7FBFEE188284679
:10247000FFF7EEFE09E02389A28861882846FFF76E
:10248000A6FEE1882846FFF795FE70BD2DE9F041D4
:1024900005460C4600260127608808B9022600E0A0
:1024A0000026A088012801D1022700E0012720880A
:1024B000A0B92389A28861882846FFF766FFE188D2
:1024C0002846FFF759FF23893A4631462846FFF749
:1024D00012FFE1882846FFF701FF13E02389A28855
:1024E00061882846FFF707FFE1882846FFF7F6FED8
:1024F00023893A4631462846FFF747FFE1882846B8
:10250000FFF73AFFBDE8F0810A884B881A438B88B1
:102510001A43CB881A430B891A434B891A438B8978
:102520001A43A0F8442070474FF6FF7181800021C4
:102530000180C1804180017270470021018041808B
:102540008180C180018141818181C18170470021E9
:1025500001804180012181800021C180018170477B
:102560000021018041808180C18001814181818180
:1025700070470000002C014000340140000400407E
:1025800000080040000C004021B1028842F0010226
:10259000028004E002884FF6FE731A400280704702
:1025A00031B1B0F8442042F40042A0F8442005E0E4
:1025B000B0F84420C2F30E02A0F8442070471AB1CC
:1025C00083890B43838102E083898B438381704736
:1025D0008182704741EA0203A0F8483070471AB17F
:1025E00083890B43838102E083898B438381704716
:1025F00001894FF6F8721140018170470A460021A7
:1026000001894FF68F73194011430181704730B52E
:1026100004460D4629462046FFF7F0FF208940F08A
:102620000700208130BD2DE9F04104460D461646D5
:102630001F46602D06D13B46012231462046FFF75A
:102640005AFE05E03B46012231462046FFF79DFE3B
:1026500029462046FFF7D2FF208940F0070020815D
:10266000BDE8F08130B50C4600210189C9B24FF6B2
:10267000FF7505EA0325154325432943018130BD34
:102680002DE9F04105460E4617469846002443467C
:102690003A4631462846FFF7E5FF2C894FF6F87099
:1026A000044044F007044FF68F70044044F0700477
:1026B0002C81BDE8F081F0B504460D4616461F4654
:1026C0003B46324629462046FFF7CCFF208940F49E
:1026D00080402081F0BD0185828270470A4600213A
:1026E00001884FF68F731940114301807047F0B590
:1026F0000C4615461E460021002200230189028B4C
:10270000038C4FF6F877394021434FF6FC473A40A7
:1027100040F201173A434FF6DD773B404FF6FF7723
:1027200007EA06172F433B43018102830384F0BD70
:102730000A460021018B4FF68F7319401143018324
:1027400070470A460021018B48F6FF7319404FF687
:10275000FF7303EA02231943018370470A460021ED
:10276000818B4FF68F7319401143818370470A465E
:102770000021818B48F6FF7319404FF6FF7303EA7F
:10278000022319438183704721B1028842F08002FD
:10279000028004E002884FF67F731A40028070477F
:1027A00021B1828842F00402828004E082884FF6E0
:1027B000FB731A408280704721B1828842F0080280
:1027C000828004E082884FF6F7731A408280704757
:1027D00021B1828842F00102828004E082884FF6B3
:1027E000FE731A40828070470A460021018B4FF623
:1027F000F77319401143018370470A460021018B8A
:102800004FF2FF7319404FF6FF7303EA0223194397
:10281000018370470A460021818B4FF6F7731940F8
:102820001143818370470A460021818B4FF2FF7369
:1028300019404FF6FF7303EA02231943818370475F
:102840000A460021018B4FF6FB73194011430183A7
:1028500070470A460021018B4FF6FF3319404FF6AF
:10286000FF7303EA02231943018370470A460021DC
:10287000818B4FF6FB7319401143818370470A46E1
:102880000021818B4FF6FF3319404FF6FF7303EAA7
:1028900002231943818370470A460021018B4FF6BA
:1028A0007F7319401143018370470A460021018B51
:1028B000C1F30E014FF6FF7303EA022319430183AC
:1028C00070470A460021818B4FF67F7319401143F0
:1028D000818370470A460021818BC1F30E014FF6B8
:1028E000FF7303EA02231943818370470A460021DC
:1028F000018C4FF6FD7319401143018470470A465D
:102900000021018C4FF6F773194011430184704781
:102910000A460021018C4FF6DF7319404FF6FF7312
:1029200003EA02131943018470470A460021018C0F
:102930004FF67F7319404FF6FF7303EA02131943F2
:10294000018470470A460021018C4FF6FF5319405D
:102950004FF6FF7303EA02231943018470470A46C6
:102960000021018C4FF2FF7319404FF6FF7303EA09
:1029700002231943018470470A460021018C4DF659
:10298000FF7319404FF6FF7303EA023319430184C2
:10299000704730B5002301248C40A3B2048C9C43C3
:1029A0000484048C02FA01F5ADB22C43048430BDDA
:1029B00030B5002304248C40A3B2048C9C430484CF
:1029C000048C02FA01F5ADB22C43048430BD70B51D
:1029D0000346002000241846183001258D40ACB273
:1029E0001D8CA5431D8409B1082909D100EB6100A4
:1029F000056825F0700505600568154305600EE063
:102A00000D1FC5F34E052844056825F4E045056013
:102A100005684FF6FF7606EA02263543056070BD6D
:102A200021B1028842F00202028004E002884FF6DF
:102A3000FD731A400280704721B1028842F00402FF
:102A4000028004E002884FF6FB731A400280704750
:102A500021B1828842F08002828004E082884FF6B1
:102A60007F731A408280704702884FF6F7731A40CE
:102A7000028002880A430280704782884FF68F7373
:102A80001A40828082880A438280704702894FF60A
:102A9000F8731A40028102890A4302817047028951
:102AA0004FF67F731A40028102890A430281704700
:102AB00081847047818570478186704701877047A0
:102AC00081877047A0F84010704702884FF6FF4397
:102AD0001A40028002880A43028070470146888EAD
:102AE00070470146088F70470146888F704701463E
:102AF000B1F8400070470146888C70470146088D48
:102B0000704702460020138A0B400BB1012000E001
:102B100000207047CA430282704730B50246002049
:102B200000230024158A05EA0103958905EA0104BA
:102B300013B10CB1012000E0002030BDCA43028275
:102B40007047000010B50446FB48844209D10121BA
:102B50008803FFF79FF800214FF48040FFF79AF8B1
:102B600032E0F648844209D101214804FFF79FF87A
:102B700000214FF40030FFF79AF825E0F048844236
:102B800009D101218804FFF792F800214FF4802039
:102B9000FFF78DF818E0EB48844209D10121C80401
:102BA000FFF785F800214FF40020FFF780F80BE0D5
:102BB000E548844208D101210805FFF778F8002193
:102BC0004FF48010FFF773F810BD2DE9F04786B081
:102BD00005460E460024A24600BFA1460027B08944
:102BE00000B100BF2F462C8A4CF6FF700440F088DD
:102BF00004432C82AC894EF6F3100440B08831892E
:102C00000843718908430443AC81AC8A4FF6FF4006
:102C10000440B0890443AC8201A8FEF7B4FFC64863
:102C2000874202D1DDF810A001E0DDF80CA0A889F0
:102C300000F4004040B10AEBCA0000EB0A10316812
:102C40004900B0FBF1F807E00AEBCA0000EB0A10FC
:102C500031688900B0FBF1F86420B8FBF0F00401A2
:102C60002009642101FB1089A88900F4004040B1CB
:102C7000322000EBC900B0FBF1F000F00700044384
:102C800008E0322000EB09106421B0FBF1F000F005
:102C90000F0004432C8106B0BDE8F0874FF41651B5
:102CA000016000218180C18001810C2141810021CE
:102CB0008181704710B502460020108A4FF2FF0351
:102CC00018400B884C8823438C882343CC882343AB
:102CD0001843108210BD0021018041808180C18095
:102CE000704721B1828942F40052828104E08289D6
:102CF0004DF6FF731A4082817047F0B503460024F9
:102D000000260025002040F66A17B94200D100BF16
:102D10001846C1F3421401F01F06012707FA06F511
:102D2000012C01D10C3004E0022C01D1103000E064
:102D300014301AB107682F43076002E00768AF43F9
:102D40000760F0BD1AB1838A0B43838202E0838A55
:102D50008B4383827047028A4FF6F0731A400282D7
:102D6000028A0A430282704782894FF2FF731A4037
:102D7000828182890A438281704721B1828942F02F
:102D80000202828104E082894FF6FD731A4082813B
:102D90007047028A4FF6DF731A400282028A0A43A2
:102DA0000282704721B1028A42F48042028204E02A
:102DB000028A4BF6FF731A4002827047C1F3080281
:102DC0008280704701468888C0F308007047818977
:102DD00041F0010181817047028BD2B20283028BE4
:102DE00042EA012202837047028B02F47F4202838F
:102DF000028B0A430283704721B1828A42F020028B
:102E0000828204E0828A4FF6DF731A408282704722
:102E100021B1828A42F01002828204E0828A4FF657
:102E2000EF731A408282704721B1828A42F0080211
:102E3000828204E0828A4FF6F7731A4082827047DA
:102E400021B1828942F40042828103E08289C2F387
:102E50000E028281704721B1828A42F4006282822E
:102E600004E0828A4FF2FF731A4082827047828A9E
:102E70004FF6FB731A408282828A0A43828270472D
:102E800021B1828A42F00202828204E0828A4FF6F5
:102E9000FD731A408282704702460020B1F5007F20
:102EA00000D100BF13880B400BB1012000E00020CF
:102EB000704701F40072B2F5007F00D100BFCA4331
:102EC0000280704770B502460024002300250020D0
:102ED00040F66A16B14200D100BFC1F3421501F0BD
:102EE0001F03012606FA03F3012D02D19689334010
:102EF00006E0022D02D1168A334001E0968A334063
:102F00000C12012606FA04F41688344013B10CB1F1
:102F1000012000E0002070BD10B50022002340F623
:102F20006A14A14200D100BF0A1201249440A3B246
:102F3000DC43048010BD0000003801400044004024
:102F400000480040004C0040005000407047000026
:102F50000FB4044910B503AA029800F00DFA10BC92
:102F60005DF814FB280C00200FB41CB5074B06AA13
:102F70007B4469460090059800F0CFF9002069462F
:102F800000F0DEF91CBC5DF814FB0000CD0300006E
:102F90002DE9F0410E460446002020622046E168FB
:102FA000884730B3252805D0D4E901219047206A0D
:102FB000401CF2E7E168204600278847050018D04A
:102FC000A5F14100192802D820354FF40067324698
:102FD000294620462760FDF705F940B1012804D0B5
:102FE000F61D26F007060836D8E7361DD6E7284630
:102FF000DAE7206ABDE8F08170B50C460546012A83
:1030000005D02878800600D5EA69002302E0012374
:1030100005E05B1C934202D2E05C0028F9D1A8696C
:10302000E618C01AA861286A184428622846AFF337
:10303000008004E0D5E9012114F8010B9047B44267
:10304000F8D32846AFF3008070BD00002DE9F041B1
:103050000646002410687529314616A510D0AFF336
:103060000080002802DA404213A507E031688A0791
:1030700001D512A502E0490704D511A5012401E0FC
:10308000AFF3008000210A2206F1240709E0B0FB1B
:10309000F2FCB0FBF2F302FB1C003030785418460F
:1030A000491C0028F3D123462A463046BDE8F041AA
:1030B00000F0D4B8000000002D0000002B0000003C
:1030C0002000000070B5064600F0C4F8046805460C
:1030D00030460A22002100F061F92C6070BD30B545
:1030E00005460B462A4613F8014B12F8010B08B1AE
:1030F000A042F8D01CB1002802D06D1CF1E7284690
:1031000030BD40EA0103024630B59B0710D14FF0B5
:10311000013400E008C208C91D1B9D4315EAC41F05
:10312000F8D013F0FF0102F8011B0DD01B0AF8E7DD
:1031300011F8013B002B02F8013B05D011F8013BCF
:10314000002B02F8013BF3D130BD10B5431C02E067
:1031500010F8011B71B18107FAD14FF0013202C89A
:103160008C1A8C4314EAC211F9D0C01A0A0603D093
:10317000C01E10BDC01A10BD0A0401D0801E10BDB3
:103180000902FCD0401E10BD4FF000020429C0F01F
:10319000128010F0030C00F03B81CCF1040CBCF168
:1031A000020F18BF00F8012BA8BF20F8022BA1EBDB
:1031B0000C0100F02DB95FEAC17C24BF00F8012B9F
:1031C00000F8012B48BF00F8012B70474FF0013C7D
:1031D00050F8042B51F8043B9A4221D1A2EB0C0386
:1031E000934313EACC1317D150F8042B51F8043B46
:1031F0009A4215D1A2EB0C03934313EACC130BD1E3
:1032000050F8042B51F8043B9A4209D1A2EB0C036D
:10321000934313EACC13DBD04FF00000704700BF9C
:10322000D01A01BAB1FA81F101F0180122FA01F0C5
:10323000CB40C1F12001DBB2C0B2C01A2CFA01F3BD
:10324000D11A914311EAC311E6D170477047704714
:103250007047704700487047B41900202DE9F047C7
:103260000D4699469246044600F1240801688806F6
:1032700004D5E06921F01001216000E00120A8429E
:1032800001DD471B00E00027A1697A1902EB090064
:10329000081AA0612078C00602D42046AFF300804F
:1032A000002608E0D4E901211AF806009047206AB8
:1032B000401C761C20624E45F4DB2078C0060AD5FF
:1032C0002046AFF3008006E0D4E90121302090478A
:1032D000206A401C2062381EA7F10107F4DC07E0D9
:1032E000D4E9012118F805009047206A401C2062AB
:1032F000281EA5F10105F3DC2046AFF300802078FD
:10330000000602D50220BDE8F0870120FBE700009F
:1033100001694A1C02610878704700B58FB0CDE999
:1033200001310021059105497944CDE90310114689
:103330006846FFF72DFE0FB000BD0000E5FFFFFF60
:103340000A6802F8010B0A60704710B5436913B1AF
:10335000AFF3008001E0FFF74FFE012010BD1278AF
:1033600000F124010A7000224A700122EDE7116881
:103370004FF0FF32E9E70000074B70B50D467B4484
:10338000FFF7CBFF0446284600F0C3F810B14FF01A
:10339000FF3070BD204670BD51E0FFFF2DE9F047C2
:1033A00091460F4680460446002614F8015B2DB175
:1033B00000F058F80068405DC007F6D12B2D02D010
:1033C0002D2D18D0641E4A463946204600F052F88A
:1033D00027B13968A14201D1C7F800804FF002043B
:1033E00071050BD54042002803DDFFF733FF046071
:1033F000A007BDE8F08746F48066E4E70028F8DA25
:10340000FFF728FF04606FF00040F2E74FF0000282
:1034100000B5134694469646203922BFA0E80C50CA
:10342000A0E80C50B1F12001BFF4F7AF090728BFA5
:10343000A0E80C5048BF0CC05DF804EB890028BF21
:1034400040F8042B08BF704748BF20F8022B11F04A
:10345000804F18BF00F8012B7047000000487047EC
:10346000B419002010B500F07DF8001D10BD00BF9C
:10347000250100002DE9F05F824615468B460027A6
:103480000AF10104B9460078302801D09DB113E05B
:1034900014F8010B0127782803D0582801D045B132
:1034A0000AE00DB1102D07D1002714F8010B1025EB
:1034B00002E0082500E00A250026B0460EE005FBE4
:1034C000080005FB06F101271FFA80F801EB104602
:1034D000B6F5803F00D3B94614F8010B294600F039
:1034E00045F80028EBDABBF1000F05D00FB1641EE0
:1034F00000E05446CBF80040B9F1000F06D0FFF7CA
:10350000A9FE02210160C81EBDE8F09F48EA0640FE
:10351000FAE7007B00F0800070477546FFF79EFFDA
:10352000AE4605006946534620F00700854618B0B0
:1035300020B5FDF7F9FFBDE820404FF000064FF041
:1035400000074FF000084FF0000B21F00701AC46D8
:10355000ACE8C009ACE8C009ACE8C009ACE8C009F7
:103560008D46704700487047D41900203A2800D291
:10357000303820F02002412A01D3A2F137008842DE
:1035800001D34FF0FF3070470446AFF30080204670
:10359000FCF746FE10B500290AD00878002807D0AD
:1035A00005487844FFF712FE002801D0002010BD26
:1035B0000248784410BD00003E00000036000000C4
:1035C000F036000800000020440C00006C010008E8
:1035D00008390008440C0020D4130000C80100087A
:1035E0001001000043000000F8FFFFFF00404040D2
:1035F00040404040404041414141414040404040C6
:103600004040404040404040404040404005020271
:103610000202020202020202020202020220202030
:10362000202020202020200202020202020290908C
:10363000909090901010101010101010101010108A
:1036400010101010101010100202020202028888DE
:1036500088888888080808080808080808080808EA
:1036600008080808080808080202020240000000D2
:10367000000000000000000000000000000000004A
:10368000000000000000000000000000000000003A
:10369000000000000000000000000000000000002A
:1036A000000000000000000000000000000000001A
:1036B000000000000000000000000000000000000A
:1036C00000000000000000000000000000000000FA
:1036D00000000000000000000000000000000000EA
:1036E00000000000000000000000000000000000DA
:1036F0001184A24A040009510102030406070809C3
:103700000B4E4154500B4C4530500E4C2B434753FD
:103710004E500B4B4D52500D4A50494E3F500C4BA2
:10372000494D49A0034A535129500E4C5245473D3B
:1037300032500A4E3FA00A4930500D46474154547A
:10374000A1395008153844434F4E543D312C22497D
:1037500050222C22434D4E455422501F584741556C
:1037600054484F19511C67736D520D353132333443
:103770005129500E484949433D31F0295002483FF4
:103780001950081B3D48545450504152413D7572E8
:103790006C2C7777772E62616964752E636F6D503C
:1037A000080842706F72742C3830A00E495345548B
:1037B0005550F008083C414354494F4E3D9C091177
:1037C000500F472C302C353132500A4231A0180AA4
:1037D0005454534346473D332C0209455006454651
:1037E0004D543D3049500F42504C41593D315219D2
:1037F0005008113F48545450414354494F4E3D32B4
:103800002C322C31A008093C4350434C4F53453DCA
:103810004AA95008202C53455455503D312C76313F
:103820002D746D6C2E6C756C756361692E636E2CD6
:1038300031383036305008094B49505354415455B3
:1038400053A01B4E449F0A2A318A091750000A6C64
:1038500048545450434C4F534503264F4B06235274
:10386000454144590E232B4353513A2808081F520F
:1038700045473A20322C2808081E474154543A2024
:1038800031281F584949433A2001091C2A080A1DBA
:103890002B4854545052454356A502273E080D1C50
:1038A0002B545453504C41593A204F4B28080F1A6F
:1038B0004350434C4F53453A204552524F52281ED5
:1038C0005345545550F30A192C53280A2B49505389
:1038D0005441545553281809434F4E4E4543542CD8
:1038E0003C0E142C3430393678091C5039782B4E64
:1038F0004427032F31302D01020304042009060759
:0839000008090204060800009A
:0400000508000131BD
:00000001FF
