:020000040800F2
:10000000701F0020F501000891150008610A000822
:10001000B10A000841090008D131000800000000C1
:100020000000000000000000000000005929000846
:100030004509000800000000830200086D2A00083E
:100040000F0200080F0200080F0200080F0200084C
:100050000F0200080F0200080F0200080F0200083C
:100060000F0200080F0200080F0200080F0200082C
:100070000F0200080F0200080F0200080F0200081C
:100080000F0200080F0200080F0200080F0200080C
:100090000F0200080F0200080F0200080F020008FC
:1000A0000F0200080F0200080F0200080F020008EC
:1000B0000F0200080F020008E92A00080F020008DA
:1000C0000F0200080F0200080F0200080F020008CC
:1000D0000F0200089D2C00082D2D00080F020008BB
:1000E0000F0200080F0200080F0200080F020008AC
:1000F0000F0200080F0200080F0200080F0200089C
:100100000F0200080F0200080F0200080F0200088B
:100110000F0200080F0200080F0200080F0200087B
:100120000F0200080F0200080F0200080F0200086B
:1001300000F002F800F04EF80AA090E8000C8244AB
:100140008344AAF10107DA4501D100F043F8AFF288
:10015000090EBAE80F0013F0010F18BFFB1A43F0A5
:1001600001031847183B0000383B0000103A24BF39
:1001700078C878C1FAD8520724BF30C830C144BF0C
:1001800004680C607047000000230024002500264E
:10019000103A28BF78C1FBD8520728BF30C148BFEA
:1001A0000B607047642900F01F81782900F05881A6
:1001B000732900F0DA82002070471FB500F0A8FB19
:1001C00004000020002103F05FFA401C60601FBDA6
:1001D00010B510BD00F077FB1146FFF7EEFF03F0FE
:1001E000BBF800F0A7FB03B4FFF7F2FF03BC02F07B
:1001F000F1FF00000948804709480047FEE7FEE795
:10020000FEE7FEE7FEE7FEE7FEE7FEE7FEE7FEE7C6
:1002100004480549054A064B70470000892A000832
:100220003101000870190020701F0020701B002091
:10023000701B0020EFF3108072B6704780F31088B7
:100240007047204C204D25604FF0000484F309884E
:100250001E4C4FF0010525701D4C4FF08055256058
:1002600062B6FEE730B41A4C4FF08055256030BCC2
:10027000704730B4164C4FF08055256030BC704745
:1002800000BF72B6EFF3098028B1203880E8F00F84
:1002900010490968086000B50F4880475DF804EB15
:1002A0000E480F490A7802700A480E490A6802602F
:1002B000106890E8F00F203080F309884EF0040EAB
:1002C00062B6704720ED00E00000FFFFA2000020B2
:1002D00004ED00E0A80000204D1F0008970000205A
:1002E00098000020B0000020704700000FB40449BF
:1002F00010B503AA029800F03DFA10BC5DF814FB9B
:10030000600000200FB41CB5074B06AA7B44694669
:100310000090059800F0FFF90020694600F00EFA01
:100320001CBC5DF814FB00002D0400002DE9F04119
:100330000E460446002020622046E168884730B31C
:10034000252805D0D4E901219047206A401CF2E716
:10035000E168204600278847050018D0A5F1410034
:10036000192802D820354FF4006732462946204626
:100370002760FFF717FF40B1012804D0F61D26F0D3
:1003800007060836D8E7361DD6E72846DAE7206A9A
:10039000BDE8F08170B50C460546012A05D02878E5
:1003A000800600D5EA69002302E0012305E05B1C1A
:1003B000934202D2E05C0028F9D1A869E618C01A7D
:1003C000A861286A184428622846AFF3008004E038
:1003D000D5E9012114F8010B9047B442F8D328461F
:1003E000AFF3008070BD00002DE9F0410646002407
:1003F00010687529314616A510D0AFF3008000288B
:1004000002DA404213A507E031688A0701D512A538
:1004100002E0490704D511A5012401E0AFF30080F3
:1004200000210A2206F1240709E0B0FBF2FCB0FB30
:10043000F2F302FB1C00303078541846491C0028A7
:10044000F3D123462A463046BDE8F04100F004B916
:10045000000000002D0000002B0000002000000024
:1004600070B504460D4621461068AFF30080218820
:10047000090502D50F4A7A4402E00E4A7A440E3248
:10048000002104F1240305E000F00F060009965D49
:100490005E54491C0028F7D120780023000704D5BA
:1004A000702D02D009B1022311322046BDE8704000
:1004B00000F0D2B83A33000070B5064600F0C8F834
:1004C0000468054630460A22002100F065F92C60D8
:1004D00070BD30B505460B462A4613F8014B12F89D
:1004E000010B08B1A042F8D01CB1002802D06D1C4D
:1004F000F1E7284630BD10B5431C02E010F8011B9F
:1005000071B18107FAD14FF0013202C88C1A8C43C5
:1005100014EAC211F9D0C01A0A0603D0C01E10BDD9
:10052000C01A10BD0A0401D0801E10BD0902FCD003
:10053000401E10BD4FF000020429C0F0128010F0E0
:10054000030C00F01B80CCF1040CBCF1020F18BFAF
:1005500000F8012BA8BF20F8022BA1EB0C0100F042
:100560000DB85FEAC17C24BF00F8012B00F8012B15
:1005700048BF00F8012B70474FF0000200B513464A
:1005800094469646203922BFA0E80C50A0E80C50B3
:10059000B1F12001BFF4F7AF090728BFA0E80C5064
:1005A00048BF0CC05DF804EB890028BF40F8042B5D
:1005B00008BF704748BF20F8022B11F0804F18BFCA
:1005C00000F8012B704700004FF0013C50F8042B5D
:1005D00051F8043B9A4221D1A2EB0C03934313EA56
:1005E000CC1317D150F8042B51F8043B9A4215D183
:1005F000A2EB0C03934313EACC130BD150F8042B5A
:1006000051F8043B9A4209D1A2EB0C03934313EA3D
:10061000CC13DBD04FF00000704700BFD01A01BAF6
:10062000B1FA81F101F0180122FA01F0CB40C1F1D9
:100630002001DBB2C0B2C01A2CFA01F3D11A9143E7
:1006400011EAC311E6D17047704770477047704791
:1006500000487047101900202DE9F0470D469946D3
:100660009246044600F124080168880604D5E06932
:1006700021F01001216000E00120A84201DD471BAC
:1006800000E00027A1697A1902EB0900081AA061AD
:100690002078C00602D42046AFF30080002608E090
:1006A000D4E901211AF806009047206A401C761C04
:1006B00020624E45F4DB2078C0060AD52046AFF311
:1006C000008006E0D4E9012130209047206A401CD8
:1006D0002062381EA7F10107F4DC07E0D4E901210C
:1006E00018F805009047206A401C2062281EA5F1DA
:1006F0000105F3DC2046AFF300802078000602D528
:100700000220BDE8F0870120FBE7000001694A1CD8
:1007100002610878704700B58FB0CDE90131002142
:10072000059105497944CDE9031011466846FFF764
:10073000FDFD0FB000BD0000E5FFFFFF0A6802F8F5
:10074000010B0A60704710B5436913B1AFF3008025
:1007500001E0FFF71FFE012010BD127800F1240117
:100760000A7000224A700122EDE711684FF0FF3253
:10077000E9E70000074B70B50D467B44FFF7CBFF60
:100780000446284600F09BF810B14FF0FF3070BDD2
:10079000204670BDBB2A00002DE9F04791460F4668
:1007A00080460446002614F8015B2DB100F030F8B5
:1007B0000068405DC007F6D12B2D02D02D2D18D03A
:1007C000641E4A463946204600F02AF827B13968A7
:1007D000A14201D1C7F800804FF0020471050BD58A
:1007E0004042002803DDFFF733FF0460A007BDE8A7
:1007F000F08746F48066E4E70028F8DAFFF728FF80
:1008000004606FF00040F2E70048704710190020C4
:1008100010B500F07DF8001D10BD00BF6D2E00006A
:100820002DE9F05F824615468B4600270AF1010448
:10083000B9460078302801D09DB113E014F8010BBF
:100840000127782803D0582801D045B10AE00DB11E
:10085000102D07D1002714F8010B102502E0082500
:1008600000E00A250026B0460EE005FB080005FB67
:1008700006F101271FFA80F801EB1046B6F5803F1C
:1008800000D3B94614F8010B294600F045F80028BA
:10089000EBDABBF1000F05D00FB1641E00E0544647
:1008A000CBF80040B9F1000F06D0FFF7D1FE0221CE
:1008B0000160C81EBDE8F09F48EA0640FAE7007BE9
:1008C00000F0800070477546FFF79EFFAE460500BA
:1008D0006946534620F00700854618B020B5FFF75B
:1008E00097FCBDE820404FF000064FF000074FF0A6
:1008F00000084FF0000B21F00701AC46ACE8C0093E
:10090000ACE8C009ACE8C009ACE8C0098D46704746
:1009100000487047301900203A2800D2303820F0C3
:100920002002412A01D3A2F13700884201D34FF0BF
:10093000FF3070470446AFF300802046FFF753FCBA
:1009400000BFFEE770472DE9F04102460025002672
:10095000002000230024002791F803C00CF00F05AD
:1009600091F803C00CF0100CBCF1000F03D091F80B
:1009700002C04CEA050591F800C0BCF1000F31D06F
:10098000146800202BE04FF0010C0CFA00F3B1F8D2
:1009900000C00CEA03069E4220D183004FF00F0CEA
:1009A0000CFA03F7BC4305FA03FC4CEA040491F883
:1009B00003C0BCF1280F06D14FF0010C0CFA00FC6B
:1009C000C2F814C00AE091F803C0BCF1480F05D189
:1009D0004FF0010C0CFA00FCC2F810C0401C0828B3
:1009E000D1D31460B1F800C0BCF1FF0F34DD5468FE
:1009F00000202EE000F1080C4FF0010808FA0CF37B
:100A0000B1F800C00CEA03069E4221D183004FF0EA
:100A10000F0C0CFA03F7BC4305FA03FC4CEA040480
:100A200091F803C0BCF1280F05D100F1080C08FAB9
:100A30000CF8C2F8148091F803C0BCF1480F07D13C
:100A400000F1080C4FF0010808FA0CF8C2F8108009
:100A5000401C0828CED35460BDE8F0810161704786
:100A600000BFFEE708B50121482001F0EBFE202081
:100A7000ADF8000010208DF8030003208DF802006F
:100A800069460948FFF75FFF20210748FFF7E6FFA7
:100A90002020ADF8000069460448FFF754FF2021EC
:100AA0000248FFF7DBFF08BD000C014000180140C1
:100AB00000BFFEE770B5044600251248B0F80008F4
:100AC000C00BE0B100200F49B1F80018C1F30E01CE
:100AD0000C4A50540CA11046FFF776FD20B10BA133
:100AE0000848FFF771FD08B9002070BD054908A04E
:100AF000FFF7FCFB21460348FFF7EBFC05462846C1
:100B0000F3E70000C40500200D0A0000000000000B
:100B100025730D0A000000002DE9F04F8FB08146CB
:100B20008A4616461F46282105A8FFF725FD4FF0E7
:100B3000640B0020049003904A465EA105A8FFF7CD
:100B4000E1FB00BF642300225FA105A800F0B6FB13
:100B50000028F7D152465DA105A8FFF7D3FB00BFDF
:100B60006423002258A105A800F0A8FB0028F7D1B3
:100B700000BFC823002254A159A000F09FFB002809
:100B8000F7D11EB117B14FF0010801E04FF0000896
:100B9000B8F1000F2BD156A105A8FFF7B3FB00BF9A
:100BA0006423002248A105A800F088FB0028F7D1A3
:100BB0005349A1F8000813E00A2300221146104609
:100BC00001F002FA4E48B0F80008C00B40B14DA049
:100BD000FFF770FF049000204949A1F8000805E0E4
:100BE000ABF10100C0B25FEA000BE5D15DE0304639
:100BF000FFF762FC04463846FFF75EFC054600BF7F
:100C000000BFC823002230A135A000F057FB002808
:100C1000F7D12B4622463EA105A8FFF773FB00BF84
:100C20006423002228A105A800F048FB0028F7D182
:100C30003349A1F80008322300221146104601F082
:100C4000C3F927E00A2300221146104601F0BCF93F
:100C5000002004902A48B0F80008C00BD0B129A0A9
:100C6000FFF728FF0490049800B12C44039860B962
:100C70002DA12348FFF72DFC2FA10190FFF729FCA0
:100C8000401C0290FFF718FC039000201C49A1F8BB
:100C9000000805E0ABF10100C0B25FEA000BD1D162
:100CA00000BF0398401EA042AAD804980FB0BDE828
:100CB000F08F000041542B48545450504152413D54
:100CC00075726C2C257300004F4B000041542B486B
:100CD000545450504152413D706F72742C25730032
:100CE00041542B4854545053455455500000000073
:100CF00041542B48545450414354494F4E3D3000C9
:100D0000C40500202B48545450524543563A000025
:100D100041542B48545450414354494F4E3D302C7C
:100D200025642C2564000000436F6E74656E742D7D
:100D300052616E67653A00002F000000F0B58BB07D
:100D400004460D46282101A8FFF716FC642700265B
:100D5000224626A101A8FFF7D5FA00BF642300228E
:100D600027A101A800F0AAFA0028F7D12A4625A158
:100D700001A8FFF7C7FA00BF6423002220A101A841
:100D800000F09CFA0028F7D100BFC82300221CA164
:100D900021A000F093FA0028F7D100BF64230022BD
:100DA00017A121A000F08AFA0028F7D12249A1F862
:100DB000000813E00A2300221146104601F004F94E
:100DC0001D48B0F80008C00B40B11CA0FFF772FE30
:100DD000064600201849A1F8000803E0781EC0B2BA
:100DE0000700E7D100BF30460BB0F0BD41542B489F
:100DF000545450504152413D75726C2C2573000083
:100E00004F4B000041542B48545450504152413DE7
:100E1000706F72742C25730041542B4854545053F6
:100E2000455455500000000041542B485454504143
:100E30004354494F4E3D3100C40500202B485454C3
:100E400050524543563A00002DE9F0410025002359
:100E50000A221946184601F0B7F864230022B5A10A
:100E6000B5A000F02BFA98B105240EE0642300220F
:100E7000B0A1B1A000F022FA00B908E0012C02D123
:100E80000120BDE8F081601EC4B2002CEEDC00BF82
:100E900064230022A7A1A9A000F010FA90B10524B4
:100EA0000DE064230022A3A1A4A000F007FA00B97A
:100EB00007E0012C01D10120E3E7601EC4B2002C41
:100EC000EFDC00BF642300229AA19EA000F0F6F997
:100ED00090B105240DE06423002296A199A000F0B2
:100EE000EDF900B907E0012C01D10120C9E7601E2E
:100EF000C4B2002CEFDC00BF642300228DA193A0BC
:100F000000F0DCF990B105240DE06423002289A1F2
:100F10008EA000F0D3F900B907E0012C01D1012027
:100F2000AFE7601EC4B2002CEFDC00BF64230022D8
:100F300088A18AA000F0C2F990B105240DE06423D5
:100F4000002284A185A000F0B9F900B907E0012CC6
:100F500001D1012095E7601EC4B2002CEFDC00BF78
:100F60006423002273A180A000F0A8F990B10524A9
:100F70000DE0642300226FA17BA000F09FF900B96F
:100F800007E0012C01D101207BE7601EC4B2002CD8
:100F9000EFDC00BF052420E06423002274A176A0CA
:100FA00000F08CF97648B0F80008C00BA8B170A129
:100FB0007348FFF78EFA07466EA1FFF78AFA461CC0
:100FC0003046FFF779FAC5B200206D49A1F8000854
:100FD000002D02DD1F2D00DC04E02000A4F1010142
:100FE000CCB2D9D100BF002C01DC012049E7642339
:100FF000002250A163A000F061F990B105240DE03A
:10100000642300224BA15FA000F058F900B907E06B
:10101000012C01D1012034E7601EC4B2002CEFDCAA
:1010200000BF64235AA25DA15FA000F047F990B110
:1010300005240DE0642356A258A15BA000F03EF900
:1010400000B107E0012C01D101201AE7601EC4B2F3
:10105000002CEFDC00BF6423002236A155A000F075
:101060002DF990B105240DE06423002231A151A097
:1010700000F024F900B907E0012C01D1012000E7BC
:10108000601EC4B2002CEFDC00BF642300224CA120
:101090004EA000F013F990B105240DE06423002266
:1010A00047A14AA000F00AF900B907E0012C01D1DC
:1010B0000120E6E6601EC4B2002CEFDC00BF642312
:1010C00000221CA144A000F0F9F890B105240DE025
:1010D0006423002217A140A000F0F0F800B907E057
:1010E000012C01D10120CCE6601EC4B2002CEFDC43
:1010F00000BF642300220FA13EA000F0DFF890B1F2
:1011000005240DE0642300220AA13AA000F0D6F8DD
:1011100000B907E0012C01D10120B2E6601EC4B283
:10112000002CEFDC00BF00201549A1F8000800BF2B
:10113000A7E600004F4B00004154000041544530E9
:101140000000000041542B4347534E0041542B43B1
:10115000474D5200524541445900000041542B4331
:1011600050494E3F0000000041542B43494D490077
:101170002B4353513A00000041542B43535100007C
:10118000C405002041542B435245473D3200000026
:101190002B435245473A20322C3500002B43524511
:1011A000473A20322C31000041542B435245473FEF
:1011B0000000000041542B435245473D30000000E1
:1011C0002B43474154543A203100000041542B43F3
:1011D000474154543F00000041542B434744434F80
:1011E0004E543D312C224950222C22434D4E455421
:1011F0002200000041542B5847415554483D312CA2
:10120000312C2267736D222C2231323334220000BC
:1012100010B5642300221EA11EA000F04FF898B163
:1012200003240EE04FF47A73002219A119A000F0F4
:1012300045F800B907E0012C01D1012010BD601E66
:10124000C4B2002CEEDC00BF6423002214A117A05E
:1012500000F034F8A8B11E240EE04FF47A73002297
:101260000FA112A000F02AF800B907E0012C01D16B
:101270000120E3E7601EC4B2002CEEDC00BF0020BA
:10128000DCE700200C49A1F8000800BFD6E7000009
:101290004F4B000041542B584949433D3100000059
:1012A0002B584949433A20202020310041542B58E3
:1012B0004949433F00000000C40500202DE9F041EA
:1012C00007460C4615461E464FF0000800202349ED
:1012D000A1F800083A4622A1234801F0F6FE39465B
:1012E0001FA0FFF703F8322300221146104600F03A
:1012F0006BFE0CB9002D2ED06EB324E00A23002221
:101300001146104600F060FE1448B0F80008C00B0B
:10131000C8B14CB145B12046FFF7CCFB18B92846FF
:10132000FFF7C8FB58B112E024B12046FFF7C2FB1B
:1013300028B10CE02846FFF7BDFB00B107E0002014
:101340000649A1F80008701E80B20600D6D100BF81
:101350000EB94FF001084046BDE8F081C4050020F9
:1013600025730D0A00000000004400402DE9F047FD
:101370008AB004460F4628216846FFF7FDF84FF073
:10138000640A4FF0000800BF00BF00BF224629A139
:101390006846FEF7B7FF00BF6423002229A1684614
:1013A000FFF78CFF0028F7D100BF6423002226A19D
:1013B0003846FFF783FF0028F7D12449A1F8000839
:1013C000962004FB00F64FF47A7096FBF0F0C5B25D
:1013D00005EB4500C0EBC510A6EBC0001FFA80F975
:1013E0004B462A460021084600F0EEFD17E00A238E
:1013F00000221146104600F0E7FD1448B0F800083E
:10140000C00B60B112A0FFF755FB8046414614A007
:10141000FEF76CFF00200D49A1F8000805E0AAF1D5
:101420000100C0B25FEA000AE1D100BF40460AB045
:10143000BDE8F08741542B545453504C41593D253D
:10144000640000003E0000004F4B0000C405002077
:101450002B545453504C41593A204F4B000000003C
:10146000646174613D25780D0A0000002DE9F041AA
:101470008CB006460F4615469846282102A8FFF76D
:101480007BF83B46324637A102A80095FEF73AFFAB
:101490006423002238A102A8FFF710FF00283BD0E8
:1014A000032436E04FF47A73002233A102A8FFF739
:1014B00005FF00B92FE0012C29D142462FA102A837
:1014C000FEF720FF642300222BA102A8FFF7F6FEFF
:1014D000A8B1032410E04FF47A73002226A102A8D9
:1014E000FFF7ECFE00B909E0012C03D101200CB09C
:1014F000BDE8F081601EC4B2002CECDC00BF3B46AE
:10150000324618A102A80095FEF7FCFE0324601ED7
:10151000C4B2002CC6DC00BF424618A102A8FEF7E8
:10152000F1FE6423002214A102A8FFF7C7FE98B1C0
:1015300003240EE04FF47A7300220FA102A8FFF7F4
:10154000BDFE00B907E0012C01D10120CFE7601EEC
:10155000C4B2002CEEDC00BF00200C49A1F800084A
:1015600000BFC4E741542B5454534346473D2564C0
:101570002C25642C256400004F4B000041542B5453
:101580005453464D543D256400000000C40500201E
:101590007047000070B5002100230F22C47804B307
:1015A000154C246804F4E064C4F5E064210AC1F138
:1015B0000403CA40447804FA03F1847814402143B8
:1015C00009010E4C0678A155047804F01F0501248A
:1015D000AC4005786D11AD0005F1E025C5F800417E
:1015E00009E0047804F01F050124AC40044D06789E
:1015F000761145F8264070BD0CED00E000E400E0F7
:1016000080E100E002490143024A11607047000096
:101610000000FA050CED00E010B500F013F800F042
:1016200075FE00F09DFE00F0BDFE00F045FE00F0EE
:1016300017FE00F051FF00F0F5FE00F01BFF00F078
:1016400002F810BD7047704706480078012808D19D
:1016500005480078FF2804D203480078401C02495E
:1016600008707047A20000209500002010B50024EB
:101670001A480078012830D1FEF7DCFD04461848EE
:10168000007820B116480078401E154908701448AB
:101690000078F8B913480078E0B900F07FFF1248ED
:1016A0001249097850F82100114908600F48007864
:1016B0001049097888420DD00D480068806B401CA5
:1016C0000B49096888630C480068401C0A49086097
:1016D000FEF7CFFD2046FEF7B1FD10BDA2000020B1
:1016E0009500002096000020A813002098000020FC
:1016F000B0000020970000207C0000202DE9F04180
:1017000005460E4600271F48007820B11020307093
:101710000020BDE8F081FEF78DFD07461A4850F81D
:10172000250030B13846FEF789FD282030700020B2
:10173000EFE70120144941F82500144804684CB92A
:10174000002041F825003846FEF778FD042030706F
:101750002046DEE70D48006840680C4908603846BE
:10176000FEF76CFD04202070FF2040EA0520208158
:1017700000206060204600F065FD002030702046AB
:10178000C7E7000095000020A8130020800000207B
:101790002DE9F74F82B005461746002001902878C2
:1017A000042804D00120387005B0BDE8F08F8048CF
:1017B000007810B102203870F6E77E48007810B14A
:1017C0000D203870F0E7FEF735FD019028894FEACB
:1017D0002029287AFF281FD1288900F47F402881FA
:1017E00028897549096891F83210084328817248A0
:1017F000006868607048006890F83200484505DC71
:101800000198FEF71BFD7820387004E00198FEF780
:1018100015FD00203870C7E795F808B06C6894F89B
:10182000320048457ADD6448006890F83200584537
:1018300074DA94F83480614810F8080094F8351090
:101840000840B0B15D4810F8080094F8351088439E
:101850005A4901F80800084610F8080030B994F811
:101860003610574800788843554908704FF0010AF0
:1018700019E0E669AEB194F8348006F10B0010F877
:10188000080094F83510884306F10B0101F80800B0
:10189000084610F8080020B9B07A94F8361088434A
:1018A000B0724FF0000A04F8329F2078C010A07088
:1018B000207800F007006070A17801208840207136
:1018C000617801208840E070323CBAF1010F10D1FC
:1018D0003434A0783A4909780843394908702078A7
:1018E0003649085C6178084314F83419334A505477
:1018F00011E0E6697EB1B07A3434A1780843B07261
:10190000217806F10B00405C6178084314F8342913
:1019100006F10B0188542B4840F8294026480068FE
:1019200090F8300040F010002349096881F8300039
:1019300000202149096881F831001F49039809688E
:10194000C862284600F040FC0198FEF777FC00F0E2
:10195000EBFDFEF76FFC01901748006890F831002E
:1019600020B1012809D0022806D102E000203870F9
:101970000BE00E20387008E000BF29460E480068D2
:1019800000F00CFC0A20387000BF00BF00200A499C
:10199000096881F830000849096881F83100064972
:1019A0000968C8610198FEF749FC00BFFCE6000029
:1019B0009500002096000020A80000209A0000203A
:1019C00099000020A81300202DE9F04104460027CB
:1019D0002C48007810B10520BDE8F081207804285B
:1019E00001D00120F8E7FEF725FC07462089061202
:1019F000257A254960680968884204D03846FEF790
:101A00001DFC6420E8E72048006890F83200B042EE
:101A100004D129461C48006800F03AF801201B490F
:101A200041F82600A07A08B3002310221946204668
:101A300000F072FB0546208900F47F402081208958
:101A400028432081114850F825006060B54206DC2B
:101A50003846FEF7F3FB00F067FD7820BCE7384618
:101A6000FEF7ECFB00F060FD0020B5E7208940F0B8
:101A7000FF002081002060603846FEF7DFFB002079
:101A8000AAE7000095000020A8000020A81300206D
:101A900030B590F834201B4B9B5C90F83540A34345
:101AA000184CA35423469B5C33B990F83640164B30
:101AB0001B78A343144C237000F8321F134B19708A
:101AC000C1F3C203837001F00703437084780123DC
:101AD000A340037144780123A340C37003790A4CE7
:101AE00024782343084C23708378064CE35CC47845
:101AF000234384783238034D2B55054B43F821009E
:101B000030BD00009A0000209900002097000020BE
:101B1000A813002010B50B48007890B900F03EFDE6
:101B2000094800780949087009480749097850F8B8
:101B30002100084908600846006807490860FEF768
:101B400080FB10BDA200002098000020970000201C
:101B5000A8130020B0000020A800002010B5002429
:101B6000022000F0F5F9FEF765FB044600200B4962
:101B700008602046FEF762FB142000F0E9F9FEF74A
:101B800059FB0446054800680549086001200549DD
:101B900008702046FEF752FB10BD0000A400002094
:101BA0008C00002094000020704700002DE9FE4FBB
:101BB00006460F4690461C464FF00009FEF73AFBDA
:101BC00081461F48007828B14846FEF737FB3C2085
:101BD000BDE8FE8F1B4850F8240060BB0120194966
:101BE00041F824004846FEF729FB002342463946C7
:101BF000304600F009F9824600200090019003462B
:101C0000024651460290204600F0DEFC054635B9FA
:101C10000D48007801280CD100F086FC09E0FEF7A1
:101C200009FB81460020074941F824004846FEF799
:101C300005FB2846CCE74846FEF700FB2820C7E70F
:101C400095000020A8130020A20000202DE9F04FED
:101C500085B081468A4693461C46DDE90F78129D81
:101C600000200390FEF7E6FA03902348007830B195
:101C70000398FEF7E3FA3C2005B0BDE8F08F1F485B
:101C800050F8240088BB01201C4941F82400039827
:101C9000FEF7D4FA2A464146384600F0A5FD2B4609
:101CA0005A465146484600F0AFF804901198CDE9E5
:101CB000008002953A4620460E9B049900F084FC71
:101CC000064636B90E48007801280CD100F02CFCED
:101CD00009E0FEF7AFFA03900020084941F824001C
:101CE0000398FEF7ABFA3046C6E7FFE70398FEF726
:101CF000A5FA2820C0E7000095000020A8130020C6
:101D0000A2000020704770472DE9F04106460F46BB
:101D100014464FF000081548007818B112202070C2
:101D2000BDE8F081FEF786FA8046FF2E03D1104809
:101D3000006890F832600F4850F826502DB94046A0
:101D4000FEF77CFA43202070EAE7012D05D14046DA
:101D5000FEF774FA43202070E2E7EF644046FEF796
:101D60006DFA0020207000BFDAE700009500002027
:101D7000A8000020A8130020704700002DE9F047BC
:101D800007460D464FF0000A002028606860FEF705
:101D900051FA8246FF2F03D11948006890F832703B
:101DA000184850F827402CB95046FEF747FA432010
:101DB000BDE8F087012C04D15046FEF73FFA4320DE
:101DC000F6E7207C00F0010020B95046FEF736FA15
:101DD0004520EDE70026D4F80C90D4F80880504652
:101DE000FEF72CFA00E0761C58F8041B0029FAD004
:101DF000B0002860A9EB0600800068600020D7E7EB
:101E0000A8000020A813002070B5044610464FF02B
:101E100080750560051F28462C606FF00106051FC0
:101E200028462E604FF01236051F28462E604FF0D0
:101E30000336051F28462E604FF00236051F284640
:101E40002E607610051F28462E60051F2846296043
:101E50004FF01136051F28462E604FF01036051F33
:101E600028462E604FF00936051F28462E604FF099
:101E70000836051F28462E604FF00736051F2846F6
:101E80002E604FF00636051F28462E604FF00536AF
:101E9000051F28462E604FF00436051F28462E6089
:101EA00070BD00002DE9F04105464FF00008FEF737
:101EB000C1F98046FF2D05D12048006890F83250C6
:101EC000012608E01D48006890F83200A84201D1C0
:101ED000012600E000261A4850F825402CB940465B
:101EE000FEF7ACF94820BDE8F081012C04D1404652
:101EF000FEF7A4F94320F6E794F834701148C05D6A
:101F000094F8351088430F49C8550846C05D30B96C
:101F100094F836100C48007888430B49087094F800
:101F2000300040F0080084F830004046FEF786F9A3
:101F3000012E01D100F0F8FA0020D4E7A80000201B
:101F4000A81300209A00002099000020704700008C
:101F500070B5054600261748007800B170BD1648D8
:101F6000007800B1FAE71DB3FEF764F9064613489E
:101F7000006890F834401248005D1049096891F8F3
:101F8000351088430E4908550846005D40B90B4896
:101F9000006890F836100B480078884309490870AB
:101FA00006480068C5623046FEF748F900F0BCFA02
:101FB00000BFD3E79500002096000020A800002075
:101FC0009A000020990000202DE9F04104460D46BA
:101FD00016461F461248007810B15520BDE8F08122
:101FE0001048007808B13220F8E7B81CC8214843EF
:101FF0004FF47A71B0FBF1F14FF461606043C5EBCF
:10200000051200EB8200304400EBC00202EB00102E
:1020100001EBC0084046FFF79BFF0020DEE7000011
:10202000950000209600002070B5002600F072F8A0
:10203000FEF700F9064631480068401C2F49086049
:102040003046FEF7FBF82E480078012853D12D4882
:10205000007820B1012804D0022809D103E001252D
:102060000BE0002509E0012501202649087004E065
:10207000012500202349087000BF00BF05B970BDCD
:102080002148046833E0FEF7D5F80646E06A50B30D
:10209000E06A401EE062E06A28BB94F8300000F07D
:1020A000370040B114F8300F00F0C8002070012054
:1020B0006070303C02E0002084F8310094F8300079
:1020C00000F0080078B93434A07810490978084342
:1020D0000E49087020780E49085C6178084314F8AE
:1020E00034190B4A505464693046FEF7A7F894F847
:1020F00032003F28C7D100BFC1E70000C000002068
:10210000A2000020B8000020B400002099000020A8
:102110009A000020704700002DE9F04F05460F4659
:1021200090469946A87A19490E5C05F10B00805D2E
:1021300011F800B00BEBC60000F0FF0A144850F88D
:102140002A4000202034E0602760207C20EA08003C
:10215000207484F81190207C203C00F0080068B9BD
:1021600094F836000B49097808430A4908700A4870
:10217000805D94F835100843074988552946204664
:1021800000F00CF85046BDE8F08F0000B4360008AF
:10219000A8130020990000209A00002010B590F8A4
:1021A000342001F10B039B5C90F83540A34301F10F
:1021B0000B04A35423469B5C23B98B7A90F83640DA
:1021C000A3438B7210BD000010B51B4A1268D0618A
:1021D000194A126892F8343000F10B02D25C164BA7
:1021E0001B6893F835301A43134B1B6893F834403F
:1021F00000F10B031A55827A0F4B1B6893F83630A7
:102200001A4382720C4A126892F834100B4A525CDC
:10221000094B1B6893F835309A43084B5A541A46B9
:10222000525C42B9044A126892F83630044A127875
:102230009A43034B1A7010BDA80000209A0000209A
:1022400099000020014600228A72002005E0002348
:1022500001F10B021354421CD0B20828F7D3704787
:102260002DE9F0415021114800F02CF900250DE036
:10227000681C86B20D4800EB051400EB0617002021
:10228000207067600AA0E060681C85B2042DEFD35F
:10229000064800EB051400202070606004A0E06098
:1022A000024804490860BDE8F0810000580F002092
:1022B0003F0000008400002070B5C821114800F0E4
:1022C00001F900230FE0581C85B203EB83000D4990
:1022D00001EB800405EB850001EB800600202070F7
:1022E0006660581C83B2092BEDD303EB83000549CC
:1022F00001EB8004002020706060084602490860FD
:1023000070BD0000900E00208000002000200A49CF
:1023100008600A4908700A4908700A4908700A49A1
:1023200008700A4908600A4908600A4908600A49B1
:1023300008600A4908707047C0000020950000201E
:1023400096000020A3000020A20000207C000020B6
:10235000A4000020900000208C00002094000020A9
:1023600000210A4A1170002004E00021084A11549B
:10237000411CC8B20828F8D30021064A1170064A49
:102380001170064A1160064A1160704799000020DA
:102390009A0000209700002098000020B000002044
:1023A000A800002070B54FF47C71194800F08AF83D
:1023B0004FF48071174800F085F8002413E0601C8A
:1023C000C5B2C4EBC40000EB4000114901EB80032F
:1023D000C5EBC50000EB400001EB80065E610EA07E
:1023E000D864601CC4B20B2CE9D3C4EBC40000EB6E
:1023F0004000074901EB80030020586106A0D86423
:1024000000200649086002480549086070BD0000C8
:10241000A8140020A81300203F000000B4000020F2
:10242000AC00002000B587B00320002180220A4BB9
:10243000CDE90132CDE903104FF6FF703F23074A83
:1024400000900748FFF702FC06AA06A13F20FFF70D
:102450005BFC07B000BD0000A8110020A413002001
:10246000FD26000875432F4F532D49492049646CC0
:102470006500000000B587B00320002180220A4BD0
:10248000CDE90132CDE903104FF6FE703E23074A35
:1024900000900748FFF7DAFB06AA06A13E20FFF7E7
:1024A00033FC07B000BD0000A80F0020A4110020DD
:1024B0002527000875432F4F532D49492053746138
:1024C0007400000004E0002200F8012B4A1E91B2C3
:1024D0000029F8D1704700002DE9F041782110481B
:1024E000FFF7F0FF00240DE0601C86B204EB44000F
:1024F0000B4901EBC00506EB460001EBC0072F605E
:10250000601C84B2042CEFD304EB4400044901EBBB
:10251000C00500202860084602490860BDE8F08137
:1025200098180020BC00002010B50024FDF782FEA2
:10253000044613480078F8B912480078E0B900F072
:102540002DF811481149097850F821001049086008
:102550000E4800780F49097888420DD00C48006871
:10256000806B401C0A49096888630B480068401C5E
:1025700009490860FDF776FE2046FDF75FFE10BDB5
:102580009500002096000020A8130020980000204D
:10259000B0000020970000207C0000200649074A78
:1025A0001278885C0649095C034A515C01EBC00162
:1025B000044A117070470000B436000899000020EA
:1025C0009A000020980000202DE9F84F05460F469C
:1025D00090469946DDE90AAB00200090FDF72AFEFF
:1025E00000903F480468002C74D0183454F8040C50
:1025F0003B4908600098FDF721FE44F8187CA57659
:10260000002020766076606144F814BC44F80CAC7D
:1026100044F8108C0C9824F8080C24F8069C002030
:10262000E077E810207705F00700E076217F0120B1
:102630008840A077E17E01208840607700206060BC
:10264000E060A0602062A0626062E062206325A07A
:102650006063183C002606E0002104F1500040F8B9
:102660002610701CC6B2002EF6D02046FFF79CFA4A
:102670002046FFF747FBFDF7DDFD00901A4840F8C4
:1026800025401A48006860610020A0611748006872
:1026900010B1164800688461144804603434A0788E
:1026A0001349097808431249087020781149085CD9
:1026B0006178084314F834190E4A50540E480078D3
:1026C000401C0D4908700098FDF7B8FD0020BDE8DA
:1026D000F88FFFE70098FDF7B1FD4220F7E7000013
:1026E000AC0000203F000000A8130020B400002030
:1026F000990000209A000020A3000020002400BFC1
:1027000000BFFDF797FD044605480068401C0449DA
:1027100008602046FDF792FDFFF7F5FAF1E70000AB
:10272000A4000020002400BF02E02820FFF710FCD6
:10273000194800780028F8D0184800686421B0FBD8
:10274000F1F0164908600846006828B900201449CD
:102750000870FF20FFF7A6FB00BFFDF76BFD0446E6
:10276000104800681049086000200E4908602046A3
:10277000FDF764FD0C48006808490968B0FBF1F0FA
:10278000C0F1640006490870FFF7F6FA00F00EF891
:102790001420FFF7DDFBE0E7940000208C00002010
:1027A00088000020A4000020900000207CB50025B7
:1027B00014E069462846FFF7E1FA064666B909487B
:1027C00050F8254044B1012C06D0D4E9020100EBB9
:1027D000810060640198A064681CC5B23F2DE8D9EF
:1027E0007CBD0000A813002002F0010343B102F0F9
:1027F00002032BB102E0491E002308C00029FAD1D0
:102800007047000029B1064AD2690243044BDA61DD
:1028100004E0034AD2698243014BDA617047000049
:102820000010024029B1064A12690243044B1A61A2
:1028300004E0034A12698243014B1A6170470000A9
:102840000010024029B1064A92690243044B9A6182
:1028500004E0034A92698243014B9A617047000089
:102860000010024029B1064AD2680243044BDA60E4
:1028700004E0034AD2688243014BDA6070470000EB
:102880000010024030B500210022002400232D4D0D
:102890006D6805F00C0121B1042905D0082923D168
:1028A00005E0294D056022E0274D05601FE0254D1C
:1028B0006D6805F47012234D6D6805F480340225AF
:1028C00005EB92421CB9214D554305600BE01D4DAF
:1028D0006D6805F400351DB11C4D5543056002E0DF
:1028E000194D5543056002E0174D056000BF00BF5C
:1028F000144D6D6805F0F0010909154D6B5C056814
:10290000DD4045600F4D6D6805F4E061090A104D2A
:102910006B5C4568DD4085600A4D6D6805F460516B
:10292000C90A0B4D6B5C4568DD40C560054D6D689F
:1029300005F44041890B074D6B5CC568B5FBF3F5A9
:10294000056130BD0010024000127A0000093D0010
:102950006600002076000020704710B500F002F8F5
:1029600010BD00000CB500200190009033480068B5
:1029700040F480303149086000BF3048006800F4FE
:10298000003000900198401C0190009818B90198FF
:10299000B0F5A06FF1D12948006800F4003010B103
:1029A0000120009001E0002000900098012843D110
:1029B0002348006840F0100021490860084600687C
:1029C00020F0030008600846006840F0020008603C
:1029D0001A484068194948600846406848600846F7
:1029E000406840F4806048600846406820F47C10ED
:1029F00048600846406840F4E810486008460068AF
:102A000040F08070086000BF0C48006800F0007063
:102A10000028F9D00948406820F0030007494860C1
:102A20000846406840F00200486000BF0348406824
:102A300000F00C000828F9D10CBD00000010024085
:102A400000200240042808D14FF0E021096941F03C
:102A500004014FF0E022116107E04FF0E021096925
:102A600021F004014FF0E0221161704710B50548D4
:102A70000078012805D1FEF7E7FDFFF7D5FAFEF74C
:102A8000F5FD10BDA200002010B51348006840F00D
:102A900001001149086008464068104908400E4985
:102AA0004860084600680E4908400B49086008461F
:102AB000006820F4802008600846406820F4FE008A
:102AC00048604FF41F008860FFF747FF4FF0006039
:102AD0000449086010BD0000001002400000FFF82B
:102AE000FFFFF6FE08ED00E010B501210A4800F0F6
:102AF00066F880B10948B0F8000820F4004000F5FD
:102B000000400649A1F800080121034800F048F8F8
:102B1000002000F031F810BD00080040C40500207E
:102B20007FB505460C4601210420FFF76BFEADF88A
:102B30000450ADF800400020ADF80600ADF80200EA
:102B400069460C4800F058F801221146094800F087
:102B500047F81E208DF80C0001208DF80D00022092
:102B60008DF80E0001208DF80F0003A8FEF712FD6E
:102B70007FBD00000008004010B5044644B10021AC
:102B8000064800F036F80121044800F00CF803E094
:102B90000021024800F007F810BD000000080040C6
:102BA000CA430282704721B1028842F001020280CA
:102BB00004E002884FF6FE731A400280704730B579
:102BC0000246002000230024158A05EA01039589A6
:102BD00005EA010413B10CB1012000E0002030BD72
:102BE0001AB183890B43838102E083898B438381FC
:102BF0007047818470470000002202881D4B984274
:102C00000ED01D4B98420BD0B0F1804F08D01B4B1B
:102C1000984205D01A4B984202D01A4B984204D1E0
:102C20004FF68F731A404B881A43174B984207D0C0
:102C3000164B984204D04FF6FF431A40CB881A43F4
:102C400002808B8883850B8803850A4B98420BD0C2
:102C5000094B984208D00E4B984205D00D4B984234
:102C600002D00D4B984201D10B7A03860123838257
:102C700070470000002C0140003401400004004077
:102C800000080040000C004000100040001400400C
:102C900000400140004401400048014010B5FEF7EB
:102CA000D3FC40F225511E4800F04BF910B31C48EC
:102CB00000F002FAC4B21B48008800F40040C8B912
:102CC0001848008800F4804060B10A2C03D000202E
:102CD0001449088020E01348008840F4004011495E
:102CE000088019E00D2C06D10E48008840F4804081
:102CF0000C49088010E00B480088C0F30D000A4919
:102D00000C5408480088401C064908800846008882
:102D1000C72801DD00200880FEF7A8FC10BD0000D8
:102D20000038014064000020C60D002010B540F2BC
:102D300025511B4800F005F930B3194800F0BCF9E3
:102D4000C4B21848B0F80008C0F30E0040F2FF719A
:102D500088421ADA00211448FFF74BFF1148B0F8F7
:102D6000000810B90120FFF707FF0E49B1F800185D
:102D7000C1F30E00411C0B4AB2F8002861F30E02A9
:102D80000849A1F800280C5409E00648B0F80008EA
:102D900020F4004000F500400249A1F8000810BDF1
:102DA00000440040C40500200008004010B586B073
:102DB000044601210420FFF745FD01214804FFF7E7
:102DC00021FD294800F062F80420ADF8100003202E
:102DD0008DF8120018208DF8130004A92348FDF780
:102DE000B2FD0820ADF8100004208DF8130004A9EE
:102DF0001E48FDF7A8FD00940020ADF80400ADF8D2
:102E00000600ADF80800ADF80C000C20ADF80A0083
:102E10006946154800F0E4F80121134800F02AF84B
:102E2000012240F22551104800F0B5F826208DF817
:102E3000140002208DF8150003208DF816000120E3
:102E40008DF8170005A8FEF7A5FB41F61F4140F2DB
:102E5000E730FFF765FE00200549A1F80008FFF7FD
:102E60008BFE06B010BD0000004400400008014089
:102E7000C405002021B1828942F40052828104E01D
:102E800082894DF6FF731A408281704710B504465F
:102E90002048844209D101218803FFF7E3FC002187
:102EA0004FF48040FFF7DEFC32E01B48844209D13A
:102EB00001214804FFF7B6FC00214FF40030FFF772
:102EC000B1FC25E01548844209D101218804FFF7AF
:102ED000A9FC00214FF48020FFF7A4FC18E0104863
:102EE000844209D10121C804FFF79CFC00214FF462
:102EF0000020FFF797FC0BE00A48844208D101212B
:102F00000805FFF78FFC00214FF48010FFF78AFCC3
:102F100010BD00000038014000440040004800405F
:102F2000004C00400050004002460020B1F5007FF8
:102F300000D100BF13880B400BB1012000E000203E
:102F4000704770B50246002400230025002040F69B
:102F50006A16B14200D100BFC1F3421501F01F0350
:102F6000012606FA03F3012D02D19689334006E0CB
:102F7000022D02D1168A334001E0968A33400C12AA
:102F8000012606FA04F41688344013B10CB101206E
:102F900000E0002070BDF0B50346002400260025A7
:102FA000002040F66A17B94200D100BF1846C1F3AD
:102FB000421401F01F06012707FA06F5012C01D182
:102FC0000C3004E0022C01D1103000E014301AB1B2
:102FD00007682F43076002E00768AF430760F0BD52
:102FE0002DE9F04786B005460E460024A24600BFF4
:102FF000A1460027B08900B100BF2F462C8A4CF6AD
:10300000FF700440F08804432C82AC894EF6F31024
:103010000440B08831890843718908430443AC8176
:10302000AC8A4FF6FF400440B0890443AC8201A84B
:10303000FFF728FC1F48874202D1DDF810A001E00D
:10304000DDF80CA0A88900F4004040B10AEBCA00EA
:1030500000EB0A1031684900B0FBF1F807E00AEB19
:10306000CA0000EB0A1031688900B0FBF1F8642057
:10307000B8FBF0F004012009642101FB1089A88944
:1030800000F4004040B1322000EBC900B0FBF1F089
:1030900000F00700044308E0322000EB091064212F
:1030A000B0FBF1F000F00F0004432C8106B0BDE846
:1030B000F08700000038014001468888C0F308000E
:1030C0007047C1F30802828070470FB470B586B0B4
:1030D00006460CA8019073E00B9800785C281CD180
:1030E0000B98401C0B9000786E2809D072280FD1E5
:1030F0000D213046FFF7E5FF0B98401C0B900BE0CD
:103100000A213046FFF7DDFF0B98401C0B9003E0CF
:103110000B98401C0B9000BF4BE00B9800782528C3
:1031200040D10B98401C0B900078642818D073286D
:1031300033D1019810C801900BE021783046FFF799
:10314000C0FF00BF80213046FFF7EEFE0028F9D017
:10315000641C20780028F0D10B98401C0B9020E0D4
:10316000019820C801900A2202A9284600F072F8AE
:1031700002AC0BE021783046FFF7A3FF00BF8021AF
:103180003046FFF7D1FE0028F9D0641C20780028D3
:10319000F0D10B98401C0B9003E00B98401C0B9057
:1031A00000BF06E00B9810F8011B0B903046FFF7AC
:1031B00088FF00BF80213046FFF7B6FE0028F9D017
:1031C0000B980078002887D106B070BC5DF814FB1E
:1031D00000BFFEE7014600BF7047000010B56FF06A
:1031E0000400FFF72FFC104800681049B0FBF1F015
:1031F0000F4908700C4800680C49B0FBF1F441F22B
:103200008830444305200B4908804FF0E0200069D6
:1032100040F002004FF0E021086108464461006977
:1032200040F00100086110BD0000002000127A008B
:103230005C0000205E00002000BF054A128802F0FA
:103240004002002AF9D0C2B2014B1B1D1A80704700
:1032500000380140F0B503460D46164600272946C2
:103260000A2E03D0002008702846F0BD33B9302064
:1032700001F8010B002008702846F6E7002B03DA5E
:103280002D2001F8010B5B4242F210720DE093FB1E
:10329000F2F404B937B104F1300001F8010B04FB7A
:1032A000123301270A2092FBF0F2002AEFDC002003
:1032B00008702846D9E7000000BF07480068C043EF
:1032C0000649C1F894014FF4FA73002211461046E2
:1032D000FEF77AFEF1E7000094812142008021424E
:1032E00000BF164A002116480068FEF751FA15483B
:1032F000B0F80008C00B78B100201249B1F80018EE
:10330000C1F30E010F4A505411460FA0FCF7EEFF17
:1033100000200C49A1F800080D480068C0430D4981
:10332000C1F8940106480068FEF74EFB0A2300220C
:1033300011461046FEF748FED3E7000018000020B3
:1033400014000020C405002025730D0A00000000B1
:10335000940123420000234210B5FFF73FFF4FF4D2
:10336000A060FEF74FF94FF4E13000F03DF94FF463
:10337000E130FFF71BFDFDF775FBFEF74DF90A2362
:10338000044A00210448FEF711FCFEF7C3FB0020AD
:1033900010BD0000C00100206D350008002400BFF2
:1033A0005548008800F40040002872D05248008838
:1033B000C0F30D050020514948550A4650A1524816
:1033C000FFF783FE00204C49088050A14B48FDF7D1
:1033D000FBF860B94E4A00214E480068FEF7D8F964
:1033E000FDF732FD4B480068FEF7EEFA79E04AA19E
:1033F0004248FDF7E9F860B9454A002145480068B0
:10340000FEF7C6F9FDF704FF42480068FEF7DCFA54
:1034100067E042A13948FDF7D7F880B93C4A00215E
:103420003C480068FEF7B4F93DA33EA23EA13FA090
:10343000FDF772FB37480068FEF7C6FA51E03FA17E
:103440002E48FDF7C1F870B9314A002131480068B3
:10345000FEF79EF934A135A0FDF770FC2D480068F9
:10346000FEF7B2FA3DE036A12448FDF7ADF888B981
:10347000274A002127480068FEF78AF90023032223
:1034800011461046FDF7F2FF22480068FEF79CFA4D
:1034900027E02AE02BA11948FDF796F808BB1C4A43
:1034A00000211C480068FEF773F9274850F82410E3
:1034B00026A0FCF71BFF2C4951F82400FDF71BF850
:1034C000C0F34706284850F824103046FDF74EFF59
:1034D000601CC4B2072C00D900240E480068FEF717
:1034E00073FA29460548FDF725F80A2300221146FC
:1034F0001046FEF769FD53E764000020C60D00206A
:1035000025730D0A00000000004400404B3000000D
:1035100018000020140000204B3100004B32000046
:103520003531320030000000383000007777772ED8
:1035300062616964752E636F6D0000004B3300009B
:103540004B3400004B3500003C000020D3EFD2F498
:10355000B2A5B1A8C4DAC8DDC8E7CFC2A3BA0D0AC4
:1035600025730D0A000000001C00002070B5044601
:10357000002500BFFEF7F2FAFCF75CFE05460923C2
:10358000104A00211048FEF711FB08230F4A0021C2
:103590000F48FEF70BFB06230E4A00210E48FEF7EC
:1035A00005FB0E490978491EC8B20D49FEF7A6F879
:1035B0000C4908600A20FEF775FC2846FCF73EFE21
:1035C00070BD0000C0020020B9320008C003002016
:1035D000E1320008C00500209D330008980000205B
:1035E000180000201400002010B586B00446012108
:1035F00044F20400FFF726F94FF40070ADF8140010
:1036000003208DF8160018208DF8170005A91C4816
:10361000FDF799F94FF48060ADF8140004208DF89F
:10362000170005A91648FDF78EF925208DF8000032
:1036300003208DF801008DF8020001208DF80300B1
:103640006846FDF7A7FF01940020ADF80800ADF82B
:103650000A00ADF80C00ADF810000C20ADF80E001B
:1036600001A90848FFF7BCFC012240F2255105489A
:10367000FFF791FC01210348FFF7FCFB06B010BDEA
:10368000000801400038014010B500290AD0087830
:10369000002807D005487844FCF796FF002801D0A1
:1036A000002010BD0248784410BD0000060600004E
:1036B000FE050000000001000200010003000100FF
:1036C00002000100040001000200010003000100EB
:1036D00002000100050001000200010003000100DA
:1036E00002000100040001000200010003000100CB
:1036F00002000100060001000200010003000100B9
:1037000002000100040001000200010003000100AA
:103710000200010005000100020001000300010099
:10372000020001000400010002000100030001008A
:103730000200010007000100020001000300010077
:10374000020001000400010002000100030001006A
:103750000200010005000100020001000300010059
:10376000020001000400010002000100030001004A
:103770000200010006000100020001000300010038
:10378000020001000400010002000100030001002A
:103790000200010005000100020001000300010019
:1037A000020001000400010002000100030001000A
:1037B0000200010030313233343536373839414276
:1037C0004344454640305800303132333435363783
:1037D000383961626364656640307800424242363F
:1037E00044334144423343424437463844364430FC
:1037F00042394641434345354433464442324341CE
:1038000043364231434646414341444242334235C6
:1038100041334143434541324430433543394138D4
:1038200043334538423243414336423142424641B6
:103830004339434642354334423646454345414386
:10384000433245424243423442464339423942417F
:10385000433246324436443042394641434345358B
:103860004433464442324341433642310000000073
:10387000433446414241433341334241433446415C
:10388000433345364337423042354334434143376F
:103890004436443042394641434345354433464437
:1038A0004232434143364231443744344436464140
:1038B00043464641434144424242464141334143EB
:1038C00043464436443444414334464142464339F6
:1038D0004432443444314131423942414436443027
:1038E00042394641434345354433464442324341DD
:1038F00043364231413341434239424143324632F9
:1039000043444541423343394241463343314132D6
:1039100042434234424641414244423100000000A9
:1039200043444638433245374331423442444433BA
:1039300042334143434142314133414344324431B4
:103940004344434242464545413341434334464163
:103950004246433944344441333142374436443695
:10396000443342414633443444394234434542337C
:103970004132434144344131413343384537443384
:103980004430434543414343453243374542443441
:10399000444144304131423343434430463244325F
:1039A0004233433345364331414143464235434137
:1039B0004442424146334237464543454631000082
:1039C00043374542424441424241454343394142E3
:1039D00043424145424541374330414442384342E6
:1039E00043464632423342354345423242374244EF
:1039F00043464632443343334331413643304144F6
:103A000042334636000000004337454243344641C6
:103A100043394138433345384231424542324341CC
:103A20004336423142424641423646454345414390
:103A300043324542424446384430443044364337AA
:103A40004334444342464543434244394233453478
:103A50004235453700000000433941384332454282
:103A6000424643394432443442384638434144366E
:103A70004242464144364337433444434246454339
:103A80004342443942334534423545370000000053
:103A90004241444342314137433742384133414345
:103AA000423243414336423144324431434144423D
:103AB0004344454100000000433446414432443110
:103AC0004436413742384236434445414233433914
:103AD0004133414343374542433443444430433404
:103AE000423543384234464400000000C4FABAC3A9
:103AF000A3BAC4FAC3E6C7B0B5C4CAC7D6D0B9FA28
:103B0000CCE5D3FDB2CAC6B1BBFAD7D4D6FACFFA48
:103B1000CADBBBFAA3ACCFD6D4DAC4FABFC9D2D4BD
:103B2000D1A1B9BAD6D0B9FACCE5D3FDB2CAC6B1E3
:103B3000A3ACB9BAC2F2CDEAB3C9BAF3C1A2BCB45C
:103B4000BFAABDB100000000BBB6D3ADB3CBD7F860
:103B5000D6D0B9FACCE5D3FDB2CAC6B1CFFACADB2A
:103B6000B3B5A3ACCEA2D0C5C9A8C3E8B2CAC6B18A
:103B7000BBFAC9CFB5C4B6FECEACC2EBBCB4BFC9AC
:103B8000B9BAC2F2D6D0B9FACCE5D3FDB2CAC6B141
:103B900000000000C7EBC4FAC9A8C3E8B1BEB2CAAE
:103BA000C6B1BBFAB6FECEACC2EBBDF8D0D0D6C71C
:103BB000C4DCBFECCBD9B3E4B5E70000C9A8C2EBC5
:103BC000BFC9D2D4B8F8CAD6BBFAD6C7C4DCBFECDA
:103BD000CBD9B3E4B5E70000BADCB1A7C7B8A3AC52
:103BE000B2CAC6B1D2D1CADBCDEA0000CDF8C2E775
:103BF000C1B4BDD3B3ACCAB1A3ACD2D1CDCBBFEEAF
:103C0000A3ACC4FABFC9D4DA31B7D6D6D3BAF3D489
:103C1000D9B4CEB3A2CAD4A1A3C8E7D3D0CECACC5C
:103C2000E2C7EBD4DAD0A1B3CCD0F2D2B3C3E6C1B1
:103C3000AACFB5CADBBAF3B7FECEF100C7EBBDAB76
:103C4000BAECC9ABCBAEBEA7C0ADB8CBCFF2B3B563
:103C5000CEB2B7BDCFF2D3C3C1A6C0ADB3F600009C
:103C6000C4FAD2D1D6A7B8B6CDEAB3C9A3ACC7EBD4
:103C7000C4CDD0C4B5C8B4FD00000000AC3D000800
:103C800000000020C40000006C010008703E000825
:103C9000C4000020AC1E00008801000810010000D4
:103CA00043000000F8FFFFFF00404040404040401C
:103CB00040404141414141404040404040404040FF
:103CC00040404040404040404005020202020202A3
:103CD00002020202020202020220202020202020F2
:103CE0002020200202020202020290909090909006
:103CF00010101010101010101010101010101010C4
:103D00001010101002020202020288888888888837
:103D10000808080808080808080808080808080823
:103D2000080808080202020240000000000000002B
:103D30000000000000000000000000000000000083
:103D40000000000000000000000000000000000073
:103D50000000000000000000000000000000000063
:103D60000000000000000000000000000000000053
:103D70000000000000000000000000000000000043
:103D80000000000000000000000000000000000033
:103D90000000000000000000000000000000000023
:103DA00000000000000000000000000000A24A0423
:103DB00000000000000000000102030406070809DB
:103DC0000000000000000000DC370008583A00083E
:103DD000083A000870380008903A0008B83A00081D
:103DE00020390008C0390008483B0008BC3B0008E7
:103DF000943B0008EC3A0008D83B0008603C0008FF
:103E0000EC3B00083C3C0008000000000000000003
:103E10000000000000000102030401020304060781
:103E2000080902040608000000000000000000006D
:103E30000000000000000000000000000000000082
:103E40000000000000000000000000000000000072
:103E50000000000000000000000000000000000062
:103E60000000000000000000000000000000000052
:04000005080001F5F9
:00000001FF
