:020000040800F2
:100000003819002081150008CD080008CF08000825
:10001000D3080008D7080008DB080008000000002B
:10002000000000000000000000000000DF080008E1
:10003000E108000800000000E3080008E5080008E7
:100040009B1500089B1500089B1500089B150008D0
:100050009B1500089B1500089B1500089B150008C0
:100060009B1500089B1500089B1500089B150008B0
:100070009B1500089B1500089B1500089B150008A0
:100080009B1500089B1500089B1500089B15000890
:100090009B1500089B1500089B1500089B15000880
:1000A0009B1500089B1500089B1500089B15000870
:1000B0009B1500086F0B00081B1300089B15000818
:1000C0009B1500089B1500089B1500089B15000850
:1000D0009B150008F71400087B1000089B1500080A
:1000E0009B1500089B1500089B1500089B15000830
:1000F0009B1500089B1500089B1500089B15000820
:100100009B1500089B1500089B1500089B1500080F
:100110009B1500089B1500089B1500089B150008FF
:100120009B1500089B1500089B1500089B150008EF
:1001300000F002F800F06BF80AA090E8000C82448E
:100140008344AAF10107DA4501D100F060F8AFF26B
:10015000090EBAE80F0013F0010F18BFFB1A43F0A5
:100160000103184770390000903900000A444FF02D
:10017000000C10F8013B13F0070408BF10F8014B06
:100180001D1108BF10F8015B641E05D010F8016B4B
:10019000641E01F8016BF9D113F0080F1EBF10F8AF
:1001A000014BAD1C0C1B09D16D1E58BF01F801CBD2
:1001B000FAD505E014F8016B01F8016B6D1EF9D555
:1001C0009142D6D37047000000230024002500266A
:1001D000103A28BF78C1FBD8520728BF30C148BFAA
:1001E0000B607047642902F06B87732903F0F98074
:1001F000002070471FB503F0EFF904000020002134
:1002000003F002FA401C60601FBD10B510BD03F082
:10021000BEF91146FFF7EEFF00F019FB03F0EEF90F
:1002200003B4FFF7F2FF03BC01F00AF92DE9F04136
:1002300000240025FE48B0F80008C00B00286FD04D
:10024000FC4890F82A00C0F3C00038B1F94890F893
:100250002A0020F00800F74981F82A000020F4491C
:10026000B1F80018C1F30E01F14A5054F14890F86A
:10027000290080B31146F0A002F0A4FEF049EC483A
:1002800002F067FF28B9EE492839E94802F061FF1A
:1002900008B1012000E000200446002C1AD0002004
:1002A000E44981F82900084690F82A0020F004006B
:1002B000001D81F82A00084690F82A0020F002006C
:1002C000801C81F82A00084690F82A0020F00100DE
:1002D00081F82A00B1E0FFE7D64890F82A00012112
:1002E000B1EB501F36D1D349097D01EB8101D44ACE
:1002F000B43A02EB810000F046FD04468CB1CD48D3
:1003000090F82A0020F00400001DCA4981F82A0054
:10031000084690F82A0020F0E00081F82A0008E062
:1003200090E0C44890F82A0020F00400C14981F808
:100330002A00C04890F82A0020F00200801CBD4925
:1003400081F82A00084690F82A0020F0010081F880
:100350002A0072E0B74890F82A000221B1EB501F42
:1003600036D1B8A1B24802F0F4FE0746B6A102F0B9
:10037000F0FE461C304602F0DFFE0546AC49AEA05A
:1003800002F020FE5DB11F2D09D8AA4890F82A007E
:1003900020F00400001DA74981F82A0007E0A548C5
:1003A00090F82A0020F00400A24981F82A00A14810
:1003B00090F82A0020F00200801C9E4981F82A0053
:1003C000084690F82A0020F0010081F82A0034E065
:1003D000984890F82A000321B1EB501F1DD198488E
:1003E000283800F0D0FC0446924890F82A0020F00B
:1003F0000400001D8F4981F82A00084690F82A0061
:1004000020F00200801C81F82A00084690F82A009B
:1004100020F0010081F82A000FE000208449B1F8A3
:100420000018C1F30E01824A5054114687A002F011
:10043000C9FD00207E49A1F8000800207C49A1F8F0
:1004400000081BE07B4890F82A0000F00100A8B1EA
:10045000784890F8290088B9764890F82A00C0F3C7
:10046000C00058B9734890F82A0020F008000830FE
:10047000704981F82A00002077490880BDE8F081A2
:1004800070B57648008800F40040002876D07348A4
:100490000088C0F30D040020714908550A4666A182
:1004A000704800F0BAFB00206C490880614890F861
:1004B0002A0000F0010000286CD15E4890F8290065
:1004C000002867D168A1664802F0BAFE10B900F0B2
:1004D00074FC5FE065A1624802F0B2FE10B900F062
:1004E0009EFC57E062A15E4802F0AAFE30B961A30B
:1004F00061A262A162A000F0ADFC4BE064A158488B
:1005000002F09EFE20B95DA15DA000F0DEFC41E09E
:1005100060A1534802F094FE30B900230322114633
:10052000104600F042FD35E05BA14D4802F088FE28
:1005300028BB5A485A4A127850F8221059A002F0A3
:1005400041FD5F49564A127851F8220002F037FE09
:10055000C0F347055A48524A127850F822102846EC
:1005600000F052FD4E480078401C4D490870084686
:10057000007807280ED9002008700BE00EE051A18A
:10058000374802F05DFE28B94FA301223BA14FA0DE
:1005900000F0C5FC2146324802F030FE70BD10B5B7
:1005A00055480078C8B155A002F00CFD0020214943
:1005B00081F82A00032081F82800002408E00020A8
:1005C0001C49085500211B4814300155601CC4B259
:1005D000142CF4D300204849087010BD10B51548FC
:1005E00090F8290030B1494908681549A03900F050
:1005F00097FB10E00F4A127D02EB8202104BB43BD6
:1006000003EB82010B4A127802EB8202404B03EBB0
:10061000021000F085FB074890F82A0020F0010046
:10062000401C044981F82A00097801EB810171E03E
:10063000640900206611002025730D0A00000000E7
:100640002D0900202B4353513A0000005245433AF4
:100650000D0A25730D0A0000240400404C090020F7
:100660000C120020004400404B3000004B310000D1
:100670004B320000353132003000000038300000CD
:100680007777772E62616964752E636F6D00000065
:100690004B3300004B3400004B350000200000209D
:1006A00040000020D3EFD2F4B2A5B1A8C4DAC8DD6F
:1006B000C8E7CFC2A3BA0D0A25730D0A00000000D7
:1006C000000000204B3600003132000061706B2EBC
:1006D000766974612D636F757273652E636F6D2F0C
:1006E00064617274732F6E6962702F63616C6962EA
:1006F0007261746500000000580000200D0AD5FDED
:10070000D4DAD6D8C6F40D0A0000000094110020F7
:1007100059000020624A02EB011062A102F019FDAB
:1007200048B1624890F82A0020F0E00040305F496C
:1007300081F82A001DE05D49097801EB8101584AE2
:1007400002EB01105AA102F004FD48B1574890F89D
:100750002A0020F0E0006030544981F82A0008E0C7
:10076000524890F82A0020F0E00020304F4981F8EC
:100770002A0010BD10B54D4890F82A0000F0010085
:10078000002863D1494890F82A00C0F340000028AF
:100790004BD0464890F82A00C0F38000F8B1434897
:1007A00090F82900B0B94148007D082803D1012004
:1007B0003E4981F8290000240AE03C49601C085C9D
:1007C000085501F11400611C415C0155601CC4B264
:1007D000132CF2D30320354981F828000AE033486E
:1007E00090F82800401E314981F828004FF47A70B3
:1007F00000F0F9FD2D4890F82A0020F0E0002B4988
:1008000081F82A00084690F82A0020F0020081F8BA
:100810002A00084690F82A0020F0080081F82A00F3
:1008200000202749A1F8000810E02048007818B9F6
:100830001E4890F8290048B11C4890F8280018B9C3
:1008400001202049087001E0FFF7C8FE10BD00F04C
:100850008DFD4FF4A06000F0B3FE4FF4E13000F0E6
:10086000FEFD4FF4E13000F0FBFC00F02DF943F603
:100870003F0143F6972000F04DF90FE0FFF77AFFB4
:10088000FFF78DFEFFF7FCFDFFF7D0FC0E48006878
:1008900008B9012000E000200B490860EEE70000E5
:1008A0005900002041542B43535100006611002091
:1008B00041542B48545450414354494F4E3D00003D
:1008C000640900205800002094812142704700BF35
:1008D000FEE700BFFEE700BFFEE700BFFEE7704790
:1008E00070477047704700000CB5002001900090E1
:1008F0006C48006840F480306A49086000BF69486D
:10090000006800F4003000900198401C01900098AD
:1009100018B90198B0F5A06FF1D16248006800F4F1
:10092000003010B10120009001E0002000900098FC
:10093000012843D15C48006840F010005A49086023
:100940000846006820F0030008600846006840F090
:1009500002000860534840685249486008464068B1
:1009600048600846406840F4806048600846406837
:1009700020F47C1048600846406840F4E810486065
:100980000846006840F08070086000BF4548006875
:1009900000F000700028F9D04248406820F00300C1
:1009A000404948600846406840F00200486000BF87
:1009B0003C48406800F00C000828F9D10CBD10B587
:1009C000FFF792FF10BD10B53648006840F00100F7
:1009D0003449086008464068344908403149486055
:1009E00008460068324908402E49086008460068F9
:1009F00020F4802008600846406820F4FE0048602B
:100A00004FF41F008860FFF7DAFF4FF000602949BC
:100A1000086010BD10B5002100200022214B5B684A
:100A200003F00C0121B1042906D0082928D107E0E0
:100A3000214B224C236027E01F4B204C236023E0F6
:100A4000184B5B6803F47010164B5B6803F480323C
:100A5000022303EB904022B9194B4343174C236008
:100A60000DE0104B5B6803F4003323B1144B434398
:100A7000124C236003E0104B4343104C236003E00F
:100A80000D4B0E4C236000BF00BF064B5B68C3F3E9
:100A900003130C4CE15C094B1B68CB40074C2360F3
:100AA00010BD000000100240002002400000FFF8CE
:100AB000FFFFF6FE08ED00E000127A00440000207F
:100AC00000093D004800002008B50121482001F040
:100AD00001F92020ADF8000010208DF8030003205C
:100AE0008DF802006946094800F038FE20210748C9
:100AF00000F0E1FE2020ADF800006946044800F057
:100B00002DFE2021024800F0D6FE08BD000C014059
:100B1000001801407FB505460C460121022001F076
:100B2000E6F8ADF80850ADF804400020ADF80A0032
:100B3000ADF8060001A91C4801F004FA0122114693
:100B4000194801F076FD1D208DF8000000208DF879
:100B5000010003208DF8020001208DF80300684693
:100B600000F033FD0121104801F048FD7FBD10B5B4
:100B700001210D4802F00BF8A0B101210A4802F052
:100B800017F80A4890F82A00C0F3C00010B10120FD
:100B9000074908700748006808B9012000E00020F4
:100BA0000449086010BD00000004004066110020E8
:100BB0005800002094012342F0B503460D46164626
:100BC000002729460A2E03D0002008702846F0BDD1
:100BD00033B9302001F8010B002008702846F6E7F1
:100BE000002B03DA2D2001F8010B5B4242F2107258
:100BF0000DE093FBF2F404B937B104F1300001F8D1
:100C0000010B04FB123301270A2092FBF0F2002AA9
:100C1000EFDC002008702846D9E70FB470B586B025
:100C200006460CA8019073E00B9800785C281CD154
:100C30000B98401C0B9000786E2809D072280FD1B9
:100C40000D21304602F0F4F80B98401C0B900BE09D
:100C50000A21304602F0ECF80B98401C0B9003E0A0
:100C60000B98401C0B9000BF4BE00B980078252898
:100C700040D10B98401C0B900078642818D0732842
:100C800033D1019810C801900BE02178304602F072
:100C9000CFF800BF8021304602F038F90028F9D0A3
:100CA000641C20780028F0D10B98401C0B9020E0A9
:100CB000019820C801900A2202A92846FFF77CFF6C
:100CC00002AC0BE02178304602F0B2F800BF802180
:100CD000304602F01BF90028F9D0641C2078002867
:100CE000F0D10B98401C0B9003E00B98401C0B902C
:100CF00000BF06E00B9810F8011B0B90304602F085
:100D000097F800BF8021304602F000F90028F9D0A2
:100D10000B980078002887D106B070BC5DF814FBF2
:100D200070B504460D460020FD49A1F80008224692
:100D3000FCA1FE48FFF771FF2146FAA002F042F93C
:100D400070BD10B50020F649A1F80008F848F5A1DB
:100D50000268F648FFF761FFF5480168F1A002F06C
:100D600031F900240CE0F249601C51F8200041F8F0
:100D70002400601C51F8200041F82400601CC4B21B
:100D8000092CF0D310BD70B504460025E9A1E44854
:100D900002F056FA20B1E4A1E14802F051FA08B994
:100DA000002070BDDE49DFA002F00CF92146DC48CE
:100DB00002F0CFF905462846F3E710B588B0DEA269
:100DC000D2E901311068D268CDE90531079204906B
:100DD000DDA3D3E90020D3E9021301AC0BC40092D8
:100DE00000240AE004A8005DDB4908551DF8041042
:100DF000D94814300155601CC4B20E2CF2D3002423
:100E000005E04FF47A7000F0EEFA601CC4B2052CD5
:100E1000F7DB0320D04981F8280008B010BD0CB5DD
:100E2000CEA109680191CEA10968009100200AE0D5
:100E300001A9095CC84A11541DF80020C6491431A3
:100E40000A54411CC8B20328F2D30321C24A82F8D3
:100E500028100CBD2DE9FF4105460E461746984661
:100E6000C0A103C9CDE90201C0A103C9CDE90001B8
:100E70005FB1B8F1000F08D014208DF80B00434685
:100E80003A46BCA1C14802F0A9F82A46C0A1C5480B
:100E900002F0A4F83246C4A1C248503002F09EF8D5
:100EA00000240AE002A8005DAB4908551DF80410B3
:100EB000A94814300155601CC4B2052CF2D303209C
:100EC000A54981F82800BDE8FF817FB505460E469B
:100ED000BAA103C9CDE90201A4A103C9CDE900016A
:100EE0002A46ABA1AF4802F079F83246AEA1AD4830
:100EF000503002F073F800240AE002A8005D964921
:100F000008551DF80410944814300155601CC4B2F3
:100F1000052CF2D30320904981F828007FBD2DE9EC
:100F2000FF470746884615461E46A6A103C9CDE9D8
:100F30000201A6A103C9CDE90001002D01DB042DAA
:100F400000DD01253A4692A1964802F047F8424654
:100F500095A19448503002F041F8304602F02FF944
:100F600081462B464A469BA1A04802F037F83146FD
:100F70009F4802F000F900240AE002A8005D7649CB
:100F800008551DF80410744814300155601CC4B293
:100F9000052CF2D39648664908600020486003207B
:100FA0006D4981F82800BDE8FF872DE9FE4305461D
:100FB0000E46174698468FA0006802908EA00068E3
:100FC000019033462A468DA17048A030009702F068
:100FD00005F842468EA18548A03801F0FFFF0024A5
:100FE0000AE002A8005D5C49085501A8015D5A4865
:100FF00014300155601CC4B2032CF2D303205649AF
:1010000081F82800BDE8FE837CB505460E4684A025
:101010000068019083A0006800902A4682A173486E
:10102000503801F0DBFF00240AE001A8005D4A49C6
:1010300008551DF80410484814300155601CC4B20E
:10104000022CF2D33A480660002039494860032058
:10105000414981F828007CBD10B5044644B1002107
:10106000754801F05FFD0121734801F0C7FA03E004
:101070000021714801F0C2FA10BD10B540F22551AF
:101080002A4801F059FF30B3284801F0D5FEC4B218
:101090002348B0F80008C0F30E0040F2FF71884208
:1010A0001ADA0021644801F03DFD1D48B0F800083F
:1010B00010B90120FFF7D0FF1949B1F80018C1F3AA
:1010C0000E00411C164AB2F8002861F30E021449C2
:1010D000A1F800280C5409E01148B0F8000820F4E9
:1010E000004000F500400E49A1F8000810BD7FB592
:1010F00005460C460121042000F0F9FDADF804502E
:10110000ADF800400020ADF80600ADF802006946D9
:10111000494800F017FF0122114647488EE00000C1
:101120006409002025730D0A0000000000440040FF
:10113000941100200D0A00000102030405060708AF
:10114000090A0B0C0D00000001010101020103015D
:101150000401050101000000661100200E0F0000CF
:10116000010600001011121300000000010101012E
:101170000000000041542B48545450414354494FFF
:101180004E3D302C25732C2573000000990600205D
:1011900041542B48545450504152413D75726C2C6F
:1011A000257300005905002041542B4854545050D9
:1011B0004152413D706F72742C257300101112154D
:1011C00000000000101112190000000001010108C8
:1011D0000000000041542B48545450414354494F9F
:1011E0004E3D322C25642C25640000002908002087
:1011F000BC110020161700000101000041542B54BF
:1012000054534346473D25642C25642C2564000037
:1012100041542B545453464D543D25640000000066
:10122000180000000800000041542B545453504C47
:1012300041593D25640000000008004001F0F9F923
:101240001E208DF80C0001208DF80D0002208DF875
:101250000E0001208DF80F0003A800F0B6F97FBD45
:1012600010B586B004460121042000F033FD0121B1
:10127000480400F03CFD394801F09EFC0420ADF824
:10128000100003208DF8120018208DF8130004A917
:10129000334800F063FA0820ADF8100004208DF800
:1012A000130004A92E4800F059FA00940020ADF86C
:1012B0000400ADF80600ADF80800ADF80C000C20F5
:1012C000ADF80A006946254801F0B9FC0121234820
:1012D00001F041FD012240F22551204801F047FD77
:1012E00026208DF8140002208DF8150003208DF8BB
:1012F000160001208DF8170005A800F066F941F6E8
:101300001F4140F2E730FFF7F2FE00201549A1F837
:101310000008FFF7A1FE06B010BD10B5012112486C
:1013200001F035FC80B10F48B0F8000820F400400F
:1013300000F500400B49A1F8000801210A4801F01E
:1013400037FC0020FFF788FE10BD03E011F8012BE9
:1013500000F8012B0A78002AF8D1704700440040B9
:1013600000080140640900200008004010B56FF03B
:10137000040000F074F92E4800682E49B0FBF1F02B
:101380002D4908700846007800EB4001C1EBC01001
:101390004FF6FF7101EAC0002849088010BD0146E0
:1013A000254A12784A434FF0E0235A6100229A619D
:1013B0001A46126942F001021A6100BF4FF0E022A2
:1013C000106900F001021AB100F48032002AF5D051
:1013D0004FF0E022126922F001024FF0E0231A617F
:1013E00000229A6170470146144A12884A434FF01E
:1013F000E0235A6100229A611A46126942F0010202
:101400001A6100BF4FF0E022106900F001021AB12A
:1014100000F48032002AF5D04FF0E022126922F069
:1014200001024FF0E0231A6100229A617047000028
:101430004400002000127A004209002044090020E4
:10144000014600BF704700BF494A128802F04002BF
:10145000002AF9D0C2B2464B1B1D1A80704710B546
:1014600086B00446012144F2040000F033FC4FF43E
:101470000070ADF8140003208DF8160018208DF8C8
:10148000170005A93B4800F069F94FF48060ADF8FA
:10149000140004208DF8170005A9364800F05EF905
:1014A00025208DF8000003208DF801008DF8020042
:1014B00001208DF80300684600F087F801940020B1
:1014C000ADF80800ADF80A00ADF80C00ADF810005A
:1014D0000C20ADF80E0001A9254801F0B0FB012257
:1014E00040F22551224801F042FC0121204801F040
:1014F00032FC06B010BD10B540F225511C4801F079
:101500001BFD10B31A4801F097FCC4B21A480088BA
:1015100000F40040C8B91848008800F4804060B169
:101520000A2C03D000201449088020E012480088CB
:1015300040F400401049088019E00D2C06D10E48F7
:10154000008840F480400C49088010E00A48008878
:10155000C0F30D0009490C5407480088401C064997
:10156000088008460088C72801DD0020088010BDDB
:1015700000380140000801404C0900200C120020F6
:101580000948804709480047FEE7FEE7FEE7FEE717
:10159000FEE7FEE7FEE7FEE7FEE7FEE70448054953
:1015A000054A064B70470000C709000831010008D2
:1015B0003813002038190020381500203815002075
:1015C00031490143314A1160704770B50021002351
:1015D0000F22C47804B32D4C246804F4E064C4F5ED
:1015E000E064210AC1F10403CA40447804FA03F11B
:1015F0008478144021430901254C0678A1550478CC
:1016000004F01F050124AC4005786D11AD0005F113
:10161000E025C5F8004109E0047804F01F05012425
:10162000AC401C4D0678761145F8264070BD1A4A2C
:101630000A400243154B1B1F1A60704739B1134A09
:10164000121D12680243114B1B1D1A6006E00F4A5F
:10165000121D126882430D4B1B1D1A60704704282F
:1016600008D14FF0E021096941F004014FF0E02278
:10167000116107E04FF0E021096921F004014FF00A
:10168000E0221161704700000000FA050CED00E057
:1016900000E400E080E100E080FFFF1F10B5044699
:1016A000CC48844208D10121042000F02DFB002108
:1016B000042000F029FB46E0C748844208D10121FC
:1016C000082000F021FB0021082000F01DFB3AE07B
:1016D000C248844208D10121102000F015FB0021EE
:1016E000102000F011FB2EE0BD48844208D10121FA
:1016F000202000F009FB0021202000F005FB22E063
:10170000B848844208D10121402000F0FDFA0021B0
:10171000402000F0F9FA16E0B348844208D10121D4
:10172000802000F0F1FA0021802000F0EDFA0AE0BC
:10173000AE48844207D10121801500F0E5FA00216E
:10174000A01500F0E1FA10BD10B50121084600F027
:10175000DBFA0021012000F0D7FA10BD2DE9F0419D
:10176000024600250026002000230024002791F8CF
:1017700003C00CF00F0591F803C00CF0100CBCF185
:10178000000F03D091F802C04CEA050591F800C0A3
:10179000BCF1000F31D0146800202BE04FF0010C99
:1017A0000CFA00F3B1F800C00CEA03069E4220D107
:1017B00083004FF00F0C0CFA03F7BC4305FA03FC4F
:1017C0004CEA040491F803C0BCF1280F06D14FF095
:1017D000010C0CFA00FCC2F814C00AE091F803C036
:1017E000BCF1480F05D14FF0010C0CFA00FCC2F817
:1017F00010C0401C0828D1D31460B1F800C0BCF15F
:10180000FF0F34DD546800202EE000F1080C4FF08B
:10181000010808FA0CF3B1F800C00CEA03069E4276
:1018200021D183004FF00F0C0CFA03F7BC4305FAEB
:1018300003FC4CEA040491F803C0BCF1280F05D165
:1018400000F1080C08FA0CF8C2F8148091F803C0F3
:10185000BCF1480F07D100F1080C4FF0010808FA5D
:101860000CF8C2F81080401C0828CED35460BDE8A4
:10187000F0814FF6FF710180022181700421C17057
:1018800070470246002093680B400BB1012000E036
:10189000002070470146886880B2704702460020E9
:1018A000D3680B400BB1012000E0002070470146D7
:1018B000C86880B2704701617047416170470AB1E2
:1018C000016100E041617047C16070474FF48032B0
:1018D0000A4382618161826182698269704702463E
:1018E0000020434B18684FF68073184040EA0210FE
:1018F00008433F4B186070473E49C8617047F0B5D8
:101900000A46002300240021002500F00046B6F11D
:10191000004F02D1364EF16901E0354E7168C0F3D7
:10192000034583B200F44016B6F5401F08D121F0FC
:1019300070612F4E766826F070662D4F7E6012E043
:1019400000F48016B6F5801F06D1032606FA05F4CA
:10195000A14341F0706106E0460D360103FA06F638
:10196000B14341F0706122B1460D360103FA06F62B
:10197000314300F00046B6F1004F02D11C4EF16138
:1019800001E01B4E7160F0BD30B500228B071C0FCB
:101990000F2303FA04F2164B08338C1053F824304B
:1019A0009343134C08348D1044F8253023468C1093
:1019B00053F824308C07240F00FA04F423430C4C12
:1019C00008348D1044F8253030BD0A49DC310860F8
:1019D0007047000000080140000C01400010014069
:1019E0000014014000180140001C0140002001408B
:1019F0000000014000002042DF48006840F0010084
:101A0000DD49086008464068DC490840DA4948601A
:101A100008460068DA490840D74908600846006867
:101A200020F4802008600846406820F4FE004860EA
:101A30004FF41F0088607047CF49096821F4803156
:101A4000CD4A11601146096821F480211160B0F57A
:101A5000803F03D0B0F5802F0ED106E0C64909685B
:101A600041F48031C44A116007E0C349096841F478
:101A7000A021C14A116000E000BF00BF704710B54F
:101A800001460022002300204A11012A02D1BA4C4B
:101A9000236806E0022A02D1B74C236A01E0B64C63
:101AA000636A01F01F02012494401C400CB1012024
:101AB00000E0002010BD38B5002000900024002573
:101AC00000BF3120FFF7DBFF05460098401C009067
:101AD0000098B0F5A06F01D0002DF2D03120FFF7B3
:101AE000CEFF08B1012400E00024204638BD0146A5
:101AF0000020A14A106820F0F80040EAC100106000
:101B00007047A04908607047024600209A4B586809
:101B100020F47C1042EA01031843974B5860704749
:101B200098490866704701460020934A506820F0A3
:101B300003000843506070478F48406800F00C0075
:101B40007047014600208C4A506820F0F00008439E
:101B50005060704701460020874A506820F4E060DA
:101B600008435060704701460020834A506820F4C3
:101B7000605040EAC1005060704729B17E4A527AF5
:101B800002437D4B5A7204E07B4A527A82437A4B7D
:101B90005A7270477B49D83108607047014600206F
:101BA000754A506820F44040084350607047002157
:101BB000714A20321170704A82F82010012802D038
:101BC00004280AD104E001216B4A2032117005E09B
:101BD0000521694A2032117000E000BF00BF704744
:101BE0006949086070476449096A0143624A1162A1
:101BF0007047654944390860704730B500210022BC
:101C0000002400235C4D6D6805F00C0121B104290E
:101C100005D0082923D105E05C4D056022E05B4D2D
:101C200005601FE0544D6D6805F47012524D6D68EB
:101C300005F48034022505EB92421CB9544D5543FE
:101C400005600BE04C4D6D6805F400351DB1504D3D
:101C50005543056002E04D4D5543056002E04B4D94
:101C6000056000BF00BF444D6D6805F0F001090933
:101C7000484D6B5C0568DD4045603F4D6D6805F47F
:101C8000E061090A434D6B5C4568DD4085603A4D73
:101C90006D6805F46051C90A3E4D6B5C4568DD40D6
:101CA000C560354D6D6805F44041890B3A4D6B5C5C
:101CB000C568B5FBF3F5056130BD29B12E4A5269FF
:101CC00002432D4B5A6104E02B4A526982432A4B4E
:101CD0005A61704729B1284A92690243264B9A619A
:101CE00004E0254A92698243234B9A61704729B1E7
:101CF000214AD2690243204BDA6104E01E4AD269CC
:101D000082431D4BDA61704729B11B4AD2680243F6
:101D1000194BDA6004E0184AD2688243164BDA6045
:101D2000704729B1144A12690243134B1A6104E047
:101D3000114A12698243104B1A61704712494039A7
:101D4000086070470F49C86470470B49C8717047F5
:101D50000948406A40F08070074948627047014670
:101D60000020054A92680A400AB1012000E00020E4
:101D70007047014988727047001002400000FFF868
:101D8000FFFFF6FE000042428004424200127A0049
:101D900000093D004E0900205E09002010B50446F0
:101DA000FE48844208D10121C014FFF7ADFF002195
:101DB000E014FFF7A9FFC4E0B4F1804F08D101217E
:101DC0000846FFF7AEFF00210120FFF7AAFFB8E0A9
:101DD000F348844208D101210220FFF7A2FF00212D
:101DE0000220FFF79EFFACE0EE48844208D10121BB
:101DF0000420FFF796FF00210420FFF792FFA0E0E8
:101E0000E948844208D101210820FFF78AFF002118
:101E10000820FFF786FF94E0E448844208D10121BE
:101E20001020FFF77EFF00211020FFF77AFF88E0E7
:101E3000DF48844208D101212020FFF772FF0021F2
:101E40002020FFF76EFF7CE0DA48844208D10121B0
:101E50004014FFF759FF00216014FFF755FF70E0B1
:101E6000D548844209D10121C804FFF74DFF002164
:101E70004FF40020FFF748FF63E0D048844209D1C7
:101E800001210805FFF740FF00214FF48010FFF704
:101E90003BFF56E0CA48844209D101214805FFF7BB
:101EA00033FF00214FF40010FFF72EFF49E0C54833
:101EB000844208D101214020FFF733FF0021402058
:101EC000FFF72FFF3DE0C048844208D10121802068
:101ED000FFF727FF00218020FFF723FF31E0BB48F9
:101EE000844208D101218015FFF71BFF0021A015B6
:101EF000FFF717FF25E0B648844209D10121080405
:101F0000FFF702FF00214FF48030FFF7FDFE18E0DD
:101F1000B048844209D101214804FFF7F5FE0021B1
:101F20004FF40030FFF7F0FE0BE0AB48844208D1DD
:101F300001218804FFF7E8FE00214FF48020FFF71D
:101F4000E3FE10BD00220288944B98420ED0994BBC
:101F500098420BD0B0F1804F08D0914B984205D0F9
:101F6000904B984202D0904B984204D14FF68F7319
:101F70001A404B881A438D4B984207D08C4B98429D
:101F800004D04FF6FF431A40CB881A4302808B8857
:101F900083850B880385814B98420BD0854B9842F3
:101FA00008D08B4B984205D08A4B984202D08A4B7E
:101FB000984201D10B7A038601238382704770B562
:101FC000002400220023058C4FF6FE763540058460
:101FD000028C8388048B4FF68F752C40B51E2C40E5
:101FE0000D882C43751E2A400D892A434D882A43AB
:101FF0006A4DA8420BD06F4DA84208D0744DA8423C
:1020000005D0744DA84202D0734DA84213D14FF6AB
:10201000F7752A404D892A434FF6FB752A408D8873
:102020002A434FF6FF652B404FF6FF552B408D8915
:102030002B43CD892B4383800483CD8885860284FE
:1020400070BD70B5002400220023058C4FF6EF769A
:1020500035400584028C8388048B48F6FF752C403C
:102060004FF6FF452C400D884FF6FF7606EA052512
:102070002C434FF6DF752A400D8906EA05152A43E1
:102080004D8806EA05152A43444DA84202D0494D21
:10209000A8421DD14FF67F752A404D894FF6FF7635
:1020A00006EA05152A434FF6BF752A408D8806EAD1
:1020B00005152A434FF6FF352B404FF2FF752B4095
:1020C0008D8906EA85052B43CD8906EA85052B43D4
:1020D00083800483CD880587028470BD70B5002499
:1020E00000220023058C4FF6FF6635400584028CE4
:1020F0008388848B4FF68F752C404FF6FC752C40EF
:102100000D882C434FF6FF552A400D894FF6FF7678
:1021100006EA05252A434D8806EA05252A431F4D70
:10212000A84202D0234DA8421DD14FF2FF752A408C
:102130004D894FF6FF7606EA05252A434FF6FF350F
:102140002A408D8806EA05252A434EF6FF752B4066
:102150004DF6FF752B408D8906EA05152B43CD8979
:1021600006EA05152B4383808483CD888587028406
:1021700070BD70B5002200230024058C4EF6FF765A
:1021800035400584038C8488828B48F6FF752A408D
:102190004FF6FF452A400D8820E00000002C01404A
:1021A0000004004000080040000C00400010004007
:1021B0000014004000340140004C01400050014038
:1021C0000054014000180040001C00400020004066
:1021D0000040014000440140004801404FF6FF76B6
:1021E00006EA05252A434DF6FF752B400D8906EAC0
:1021F00005352B434D8806EA05352B43FA4DA84299
:1022000002D0FA4DA84208D14BF6FF752C408D89BB
:102210004FF6FF7606EA85152C4384808283CD88AD
:10222000A0F84050038470BD828B4FF2FF331A40F8
:102230008283828B4FF6FF7303EA01231A43828362
:102240007047F0B50C461546002200210026078C89
:102250004EF6FF7C07EA0C070784828B018C4FF651
:10226000FF7707EA043640F6FF473A404FF6FF771C
:1022700007EA05273A434FF6FF7707EA03373A4361
:10228000D94FB8420ED0D94FB8420BD0B0F1804FE1
:1022900008D0D74FB84205D0D64FB84202D0D64F5B
:1022A000B84206D14DF6FF77394046F4805739439E
:1022B00005E047F6FF57394044F48057394382839D
:1022C0000184F0BD828B4FF6F3731A408283828BB8
:1022D0000A4382837047F0B50C4615460022002160
:1022E0000026078C4FF6FF6C07EA0C070784828BE9
:1022F000018C4FF6FF7707EA04264FF60C773A4039
:102300004FF6FF7707EA03172F433A43B64FB84219
:102310000ED0B64FB8420BD0B0F1804F08D0B44FBA
:10232000B84205D0B34FB84202D0B34FB84206D13D
:102330004FF6FF57394046F48077394305E04FF2B6
:10234000FF57394044F48077394382830184F0BDDC
:10235000028B4FF2FF331A400283028B4FF6FF735A
:1023600003EA01231A4302837047F0B50C46154671
:10237000002200210026078C4FF6EF7C07EA0C07AD
:102380000784028B018C4FF6FF7707EA041640F6AC
:10239000FF473A404FF6FF7707EA03373A434FF6D5
:1023A000FF7707EA05273A438F4FB8420ED08F4F89
:1023B000B8420BD0B0F1804F08D08D4FB84205D055
:1023C0008C4FB84202D08C4FB84206D14FF6DF771F
:1023D000394046F01007394305E04FF65F77394042
:1023E00044F01007394302830184F0BD028B4FF69D
:1023F000F3731A400283028B0A4302837047F0B5DD
:102400000C46154600220021068C4FF6FE773E4012
:102410000684028B018C4FF60C7632407E1C06EA55
:1024200003162E433243704EB0420ED06F4EB04270
:102430000BD0B0F1804F08D06D4EB04205D06D4E3C
:10244000B04202D06C4EB04206D14FF6FD7631401C
:1024500044F00106314305E04FF6F576314044F093
:102460000106314302830184F0BD70B505460C4678
:102470005D4885420ED05D4885420BD0B5F1804F56
:1024800008D05B48854205D05A48854202D05A4858
:10249000854200D100E000BF208850B92389A2887E
:1024A00061882846FFF7ABFFE1882846FFF79EFFCB
:1024B00025E0208804280AD12389A288618828463B
:1024C000FFF753FFE1882846FFF742FF17E0208817
:1024D00008280AD12389A28861882846FFF7FBFED5
:1024E000E1882846FFF7EEFE09E02389A28861888B
:1024F0002846FFF7A6FEE1882846FFF795FE70BD47
:102500002DE9F04105460C4600260127608808B9F0
:10251000022600E00026A088012801D1022700E061
:1025200001272088A0B92389A28861882846FFF75F
:1025300066FFE1882846FFF759FF23893A4631466E
:102540002846FFF712FFE1882846FFF701FF13E056
:102550002389A28861882846FFF707FFE18828467B
:10256000FFF7F6FE23893A4631462846FFF747FF34
:10257000E1882846FFF73AFFBDE8F0810A884B88DA
:102580001A438B881A43CB881A430B891A434B8909
:102590001A438B891A43A0F8442070474FF6FF7105
:1025A000818000210180C18041800172704700213B
:1025B000018041808180C180018141818181C1810F
:1025C0007047002101804180012181800021C1806C
:1025D000018170470021018041808180C18001819B
:1025E0004181818170470000002C0140003401408E
:1025F0000004004000080040000C004021B10288A7
:1026000042F00102028004E002884FF6FE731A4095
:102610000280704731B1B0F8442042F40042A0F883
:10262000442005E0B0F84420C2F30E02A0F8442094
:1026300070471AB183890B43838102E083898B43FE
:10264000838170478182704741EA0203A0F84830D5
:1026500070471AB183890B43838102E083898B43DE
:102660008381704701894FF6F872114001817047EC
:102670000A46002101894FF68F73194011430181E9
:10268000704730B504460D4629462046FFF7F0FF57
:10269000208940F00700208130BD2DE9F04104463B
:1026A0000D4616461F46602D06D13B460122314697
:1026B0002046FFF75AFE05E03B4601223146204600
:1026C000FFF79DFE29462046FFF7D2FF208940F004
:1026D00007002081BDE8F08130B50C46002101895A
:1026E000C9B24FF6FF7505EA032515432543294373
:1026F000018130BD2DE9F04105460E46174698464A
:10270000002443463A4631462846FFF7E5FF2C8928
:102710004FF6F870044044F007044FF68F70044001
:1027200044F070042C81BDE8F081F0B504460D46FC
:1027300016461F463B46324629462046FFF7CCFF49
:10274000208940F480402081F0BD0185828270475D
:102750000A46002101884FF68F731940114301800A
:102760007047F0B50C4615461E4600210022002396
:102770000189028B038C4FF6F877394021434FF6DD
:10278000FC473A4040F201173A434FF6DD773B40B1
:102790004FF6FF7707EA06172F433B430181028379
:1027A0000384F0BD0A460021018B4FF68F73194058
:1027B0001143018370470A460021018B48F6FF73DD
:1027C00019404FF6FF7303EA022319430183704750
:1027D0000A460021818B4FF68F7319401143818384
:1027E00070470A460021818B48F6FF7319404FF667
:1027F000FF7303EA022319438183704721B10288E2
:1028000042F08002028004E002884FF67F731A4093
:102810000280704721B1828842F00402828004E085
:1028200082884FF6FB731A408280704721B18288FC
:1028300042F00802828004E082884FF6F7731A4063
:102840008280704721B1828842F00102828004E0D8
:1028500082884FF6FE731A40828070470A46002134
:10286000018B4FF6F77319401143018370470A46F5
:102870000021018B4FF2FF7319404FF6FF7303EAFB
:1028800002231943018370470A460021818B4FF6CA
:10289000F77319401143818370470A460021818BE9
:1028A0004FF2FF7319404FF6FF7303EA02231943F7
:1028B000818370470A460021018B4FF6FB73194054
:1028C0001143018370470A460021018B4FF6FF3305
:1028D00019404FF6FF7303EA02231943018370473F
:1028E0000A460021818B4FF6FB7319401143818307
:1028F00070470A460021818B4FF6FF3319404FF68F
:10290000FF7303EA02231943818370470A460021BB
:10291000018B4FF67F7319401143018370470A46BC
:102920000021018BC1F30E014FF6FF7303EA02236E
:102930001943018370470A460021818B4FF67F734C
:1029400019401143818370470A460021818BC1F3EE
:102950000E014FF6FF7303EA022319438183704788
:102960000A460021018C4FF6FD7319401143018482
:1029700070470A460021018C4FF6F7731940114346
:10298000018470470A460021018C4FF6DF7319401D
:102990004FF6FF7303EA02131943018470470A4696
:1029A0000021018C4FF67F7319404FF6FF7303EA45
:1029B00002131943018470470A460021018C4FF627
:1029C000FF5319404FF6FF7303EA022319430184B2
:1029D00070470A460021018C4FF2FF7319404FF6F1
:1029E000FF7303EA02231943018470470A4600215A
:1029F000018C4DF6FF7319404FF6FF7303EA023363
:102A000019430184704730B5002301248C40A3B2E0
:102A1000048C9C430484048C02FA01F5ADB22C436F
:102A2000048430BD30B5002304248C40A3B2048C50
:102A30009C430484048C02FA01F5ADB22C43048457
:102A400030BD70B50346002000241846183001251B
:102A50008D40ACB21D8CA5431D8409B1082909D154
:102A600000EB6100056825F07005056005681543F9
:102A700005600EE00D1FC5F34E052844056825F4DA
:102A8000E045056005684FF6FF7606EA0226354305
:102A9000056070BD21B1028842F00202028004E0AC
:102AA00002884FF6FD731A400280704721B10288F8
:102AB00042F00402028004E002884FF6FB731A40E1
:102AC0000280704721B1828842F08002828004E057
:102AD00082884FF67F731A408280704702884FF6D3
:102AE000F7731A40028002880A4302807047828886
:102AF0004FF68F731A40828082880A438280704723
:102B000002894FF6F8731A40028102890A43028152
:102B1000704702894FF67F731A40028102890A4387
:102B20000281704781847047818570478186704734
:102B30000187704781877047A0F84010704702886E
:102B40004FF6FF431A40028002880A430280704712
:102B50000146888E70470146088F70470146888F6E
:102B600070470146B1F8400070470146888C7047B5
:102B70000146088D704702460020138A0B400BB1B6
:102B8000012000E000207047CA430282704730B540
:102B90000246002000230024158A05EA01039589D6
:102BA00005EA010413B10CB1012000E0002030BDA2
:102BB000CA4302827047000010B50446FB488442B5
:102BC00009D101218803FFF79FF800214FF48040CD
:102BD000FFF79AF832E0F648844209D1012148040F
:102BE000FFF79FF800214FF40030FFF79AF825E037
:102BF000F048844209D101218804FFF792F80021AE
:102C00004FF48020FFF78DF818E0EB48844209D19B
:102C10000121C804FFF785F800214FF40020FFF7D9
:102C200080F80BE0E548844208D101210805FFF750
:102C300078F800214FF48010FFF773F810BD2DE9EC
:102C4000F04786B005460E460024A24600BFA146C6
:102C50000027B08900B100BF2F462C8A4CF6FF70C8
:102C60000440F08804432C82AC894EF6F3100440F3
:102C7000B08831890843718908430443AC81AC8A28
:102C80004FF6FF400440B0890443AC8201A8FEF730
:102C9000B4FFC648874202D1DDF810A001E0DDF89C
:102CA0000CA0A88900F4004040B10AEBCA0000EB78
:102CB0000A1031684900B0FBF1F807E00AEBCA00DE
:102CC00000EB0A1031688900B0FBF1F86420B8FB12
:102CD000F0F004012009642101FB1089A88900F4A7
:102CE000004040B1322000EBC900B0FBF1F000F031
:102CF0000700044308E0322000EB09106421B0FB18
:102D0000F1F000F00F0004432C8106B0BDE8F0871D
:102D10004FF41651016000218180C18001810C2196
:102D2000418100218181704710B502460020108A40
:102D30004FF2FF0318400B884C8823438C882343B1
:102D4000CC8823431843108210BD002101804180AC
:102D50008180C180704721B1828942F40052828112
:102D600004E082894DF6FF731A4082817047F0B506
:102D70000346002400260025002040F66A17B942C9
:102D800000D100BF1846C1F3421401F01F0601270D
:102D900007FA06F5012C01D10C3004E0022C01D118
:102DA000103000E014301AB107682F43076002E0CA
:102DB0000768AF430760F0BD1AB1838A0B43838273
:102DC00002E0838A8B4383827047028A4FF6F07356
:102DD0001A400282028A0A430282704782894FF2B5
:102DE000FF731A40828182890A438281704721B130
:102DF000828942F00202828104E082894FF6FD73EB
:102E00001A4082817047028A4FF6DF731A400282AD
:102E1000028A0A430282704721B1028A42F4804248
:102E2000028204E0028A4BF6FF731A400282704766
:102E3000C1F308028280704701468888C0F3080009
:102E40007047818941F0010181817047028BD2B2C4
:102E50000283028B42EA012202837047028B02F452
:102E60007F420283028B0A430283704721B1828A28
:102E700042F02002828204E0828A4FF6DF731A4019
:102E80008282704721B1828A42F01002828204E07D
:102E9000828A4FF6EF731A408282704721B1828A8C
:102EA00042F00802828204E0828A4FF6F7731A40E9
:102EB0008282704721B1828942F40042828103E01C
:102EC0008289C2F30E028281704721B1828A42F464
:102ED0000062828204E0828A4FF2FF731A4082828B
:102EE0007047828A4FF6FB731A408282828A0A43B5
:102EF0008282704721B1828A42F00202828204E01B
:102F0000828A4FF6FD731A40828270470246002083
:102F1000B1F5007F00D100BF13880B400BB1012039
:102F200000E00020704701F40072B2F5007F00D18C
:102F300000BFCA430280704770B5024600240023D8
:102F40000025002040F66A16B14200D100BFC1F34F
:102F5000421501F01F03012606FA03F3012D02D1E9
:102F60009689334006E0022D02D1168A334001E0F3
:102F7000968A33400C12012606FA04F4168834406F
:102F800013B10CB1012000E0002070BD10B500228B
:102F9000002340F66A14A14200D100BF0A120124A6
:102FA0009440A3B2DC43048010BD0000003801400F
:102FB0000044004000480040004C004000500040E9
:102FC000704700000FB4044910B503AA029800F03E
:102FD0000DFA10BC5DF814FB480900200FB41CB5B5
:102FE000074B06AA7B4469460090059800F0CFF98C
:102FF0000020694600F0DEF91CBC5DF814FB0000FF
:10300000CD0300002DE9F0410E4604460020206269
:103010002046E168884730B3252805D0D4E901214E
:103020009047206A401CF2E7E16820460027884765
:10303000050018D0A5F14100192802D820354FF419
:1030400000673246294620462760FDF7CBF840B19D
:10305000012804D0F61D26F007060836D8E7361DED
:10306000D6E72846DAE7206ABDE8F08170B50C465D
:103070000546012A05D02878800600D5EA69002394
:1030800002E0012305E05B1C934202D2E05C0028D1
:10309000F9D1A869E618C01AA861286A18442862FC
:1030A0002846AFF3008004E0D5E9012114F8010BB4
:1030B0009047B442F8D32846AFF3008070BD0000BB
:1030C0002DE9F0410646002410687529314616A501
:1030D00010D0AFF30080002802DA404213A507E0C9
:1030E00031688A0701D512A502E0490704D511A568
:1030F000012401E0AFF3008000210A2206F1240739
:1031000009E0B0FBF2FCB0FBF2F302FB1C00303034
:1031100078541846491C0028F3D123462A463046E5
:10312000BDE8F04100F0D4B8000000002D00000020
:103130002B0000002000000070B5064600F0C4F827
:103140000468054630460A22002100F061F92C602F
:1031500070BD30B505460B462A4613F8014B12F8F0
:10316000010B08B1A042F8D01CB1002802D06D1CA0
:10317000F1E7284630BD40EA0103024630B59B071F
:1031800010D14FF0013400E008C208C91D1B9D4357
:1031900015EAC41FF8D013F0FF0102F8011B0DD08F
:1031A0001B0AF8E711F8013B002B02F8013B05D0A0
:1031B00011F8013B002B02F8013BF3D130BD10B5F3
:1031C000431C02E010F8011B71B18107FAD14FF0E6
:1031D000013202C88C1A8C4314EAC211F9D0C01A09
:1031E0000A0603D0C01E10BDC01A10BD0A0401D0CB
:1031F000801E10BD0902FCD0401E10BD4FF0000221
:103200000429C0F0128010F0030C00F03B81CCF1D7
:10321000040CBCF1020F18BF00F8012BA8BF20F866
:10322000022BA1EB0C0100F02DB95FEAC17C24BF99
:1032300000F8012B00F8012B48BF00F8012B704764
:103240004FF0013C50F8042B51F8043B9A4221D135
:10325000A2EB0C03934313EACC1317D150F8042BC1
:1032600051F8043B9A4215D1A2EB0C03934313EAA5
:10327000CC130BD150F8042B51F8043B9A4209D1DE
:10328000A2EB0C03934313EACC13DBD04FF0000006
:10329000704700BFD01A01BAB1FA81F101F01801EC
:1032A00022FA01F0CB40C1F12001DBB2C0B2C01A5A
:1032B0002CFA01F3D11A914311EAC311E6D17047F8
:1032C000704770477047704700487047D41200201D
:1032D0002DE9F0470D4699469246044600F1240830
:1032E0000168880604D5E06921F01001216000E042
:1032F0000120A84201DD471B00E00027A1697A19DF
:1033000002EB0900081AA0612078C00602D420460A
:10331000AFF30080002608E0D4E901211AF8060086
:103320009047206A401C761C20624E45F4DB2078D2
:10333000C0060AD52046AFF3008006E0D4E901219B
:1033400030209047206A401C2062381EA7F10107F8
:10335000F4DC07E0D4E9012118F805009047206A61
:10336000401C2062281EA5F10105F3DC2046AFF3C6
:1033700000802078000602D50220BDE8F0870120F9
:10338000FBE7000001694A1C02610878704700B53C
:103390008FB0CDE901310021059105497944CDE98E
:1033A000031011466846FFF72DFE0FB000BD000068
:1033B000E5FFFFFF0A6802F8010B0A60704710B5CD
:1033C000436913B1AFF3008001E0FFF74FFE012026
:1033D00010BD127800F124010A7000224A70012207
:1033E000EDE711684FF0FF32E9E70000074B70B5D9
:1033F0000D467B44FFF7CBFF0446284600F0C3F898
:1034000010B14FF0FF3070BD204670BD51E0FFFF9E
:103410002DE9F04791460F4680460446002614F8F1
:10342000015B2DB100F058F80068405DC007F6D18F
:103430002B2D02D02D2D18D0641E4A463946204629
:1034400000F052F827B13968A14201D1C7F80080D5
:103450004FF0020471050BD54042002803DDFFF751
:1034600033FF0460A007BDE8F08746F48066E4E718
:103470000028F8DAFFF728FF04606FF00040F2E759
:103480004FF0000200B5134694469646203922BFFD
:10349000A0E80C50A0E80C50B1F12001BFF4F7AF48
:1034A000090728BFA0E80C5048BF0CC05DF804EB2A
:1034B000890028BF40F8042B08BF704748BF20F898
:1034C000022B11F0804F18BF00F8012B704700004D
:1034D00000487047D412002010B500F07DF8001DA0
:1034E00010BD00BF250100002DE9F05F82461546A2
:1034F0008B4600270AF10104B9460078302801D034
:103500009DB113E014F8010B0127782803D0582847
:1035100001D045B10AE00DB1102D07D1002714F8F4
:10352000010B102502E0082500E00A250026B04620
:103530000EE005FB080005FB06F101271FFA80F8E5
:1035400001EB1046B6F5803F00D3B94614F8010BE5
:10355000294600F045F80028EBDABBF1000F05D052
:103560000FB1641E00E05446CBF80040B9F1000FE3
:1035700006D0FFF7A9FE02210160C81EBDE8F09F3A
:1035800048EA0640FAE7007B00F080007047754685
:10359000FFF79EFFAE4605006946534620F0070040
:1035A000854618B020B5FDF7F9FFBDE820404FF083
:1035B00000064FF000074FF000084FF0000B21F01D
:1035C0000701AC46ACE8C009ACE8C009ACE8C009EA
:1035D000ACE8C0098D46704700487047F4120020DF
:1035E0003A2800D2303820F02002412A01D3A2F13B
:1035F0003700884201D34FF0FF3070470446AFF3E5
:1036000000802046FCF70CFE10B500290AD008788F
:10361000002807D005487844FFF712FE002801D0A3
:10362000002010BD0248784410BD0000DE040000F8
:10363000D6040000424242364433414442334342BE
:103640004437463844364430423946414343453591
:103650004433464442324341433642314346464175
:103660004341444242334235413341434345413271
:10367000443043354339413843334538423243417E
:103680004336423142424641433943464235433450
:103690004236464543454143433245424243423424
:1036A000424643394239424143324632443644303D
:1036B000423946414343453544334644423243410F
:1036C0004336423100000000433446414241433317
:1036D0004133424143344641433345364337423018
:1036E00042354334434143374436443042394641FE
:1036F00043434535443346444232434143364231E5
:1037000044374434443646414346464143414442AB
:1037100042424641413341434346443644344441A6
:1037200043344641424643394432443444314131C2
:10373000423942414436443042394641434345359B
:10374000443346444232434143364231413341439C
:103750004239424143324632434445414233433980
:103760004241463343314132424342344246414171
:10377000424442310000000043444638433245375A
:103780004331423442444433423341434341423162
:103790004133414344324431434443424246454528
:1037A0004133414343344641424643394434444122
:1037B000333142374436443644334241463344344D
:1037C0004439423443454233413243414434413128
:1037D0004133433845374433443043454341434301
:1037E0004532433745424434444144304131423309
:1037F0004343443046324432423343334536433107
:1038000041414346423543414442424146334237B7
:103810004645434546310000433745424244414214
:103820004241454343394142434241454245413784
:1038300043304144423843424346463242334235A4
:10384000434542324237424443464632443343338F
:103850004331413643304144423346360000000094
:103860004337454243344641433941384333453871
:10387000423142454232434143364231424246415F
:103880004236464543454143433245424244463829
:10389000443044304436433743344443424645433E
:1038A0004342443942334534423545370000000035
:1038B0004339413843324542424643394432443425
:1038C0004238463843414436424246414436433703
:1038D00043344443424645434342443942334534EA
:1038E00042354537000000004241444342314137F0
:1038F00043374238413341434232434143364231F8
:1039000044324431434144424344454100000000B5
:1039100043344641443244314436413742384236DA
:1039200043444541423343394133414343374542A0
:1039300043344344443043344235433842344644AC
:1039400000000000C4FABAC3A3BAC4FAC3E6C7B001
:10395000B5C4CAC7D6D0B9FACCE5D3FDB2CAC6B190
:10396000BBFAD7D4D6FACFFACADBBBFAA3ACCFD610
:10397000D4DAC4FABFC9D2D4D1A1B9BAD6D0B9FA6F
:10398000CCE5D3FDB2CAC6B1A3ACB9BAC2F2CDEA96
:10399000B3C9BAF3C1A2BCB4BFAABDB10000000054
:1039A000BBB6D3ADB3CBD7F8D6D0B9FACCE5D3FDFF
:1039B000B2CAC6B1CFFACADBB3B5A3ACCEA2D0C5EA
:1039C000C9A8C3E8B2CAC6B1BBFAC9CFB5C4B6FE6E
:1039D000CEACC2EBBCB4BFC9B9BAC2F2D6D0B9FA48
:1039E000CCE5D3FDB2CAC6B100000000C7EBC4FAF3
:1039F000C9A8C3E8B1BEB2CAC6B1BBFAB6FECEAC66
:103A0000C2EBBDF8D0D0D6C7C4DCBFECCBD9B3E491
:103A1000B5E70000C9A8C2EBBFC9D2D4B8F8CAD66E
:103A2000BBFAD6C7C4DCBFECCBD9B3E4B5E7000022
:103A3000BADCB1A7C7B8A3ACB2CAC6B1D2D1CADB8F
:103A4000CDEA0000CDF8C2E7C1B4BDD3B3ACCAB172
:103A5000A3ACD2D1CDCBBFEEA3ACC4FABFC9D4DAEC
:103A600031B7D6D6D3BAF3D4D9B4CEB3A2CAD4A17F
:103A7000A3C8E7D3D0CECACCE2C7EBD4DAD0A1B387
:103A8000CCD0F2D2B3C3E6C1AACFB5CADBBAF3B782
:103A9000FECEF100C7EBBDABBAECC9ABCBAEBEA757
:103AA000C0ADB8CBCFF2B3B5CEB2B7BDCFF2D3C3B2
:103AB000C1A6C0ADB3F60000C4FAD2D1D6A7B8B63D
:103AC000CDEAB3C9A3ACC7EBC4CDD0C4B5C8B4FD6F
:103AD00000000000043C0008000000206409000011
:103AE0006C010008A83D000864090020D40F000004
:103AF000C80100081001000043000000F8FFFFFFAC
:103B000000404040404040404040414141414140F0
:103B100040404040404040404040404040404040A5
:103B20004005020202020202020202020202020234
:103B30000220202020202020202020020202020239
:103B40000202909090909090101010101010101091
:103B5000101010101010101010101010020202029D
:103B600002028888888888880808080808080808E1
:103B700008080808080808080808080802020202DD
:103B800040000000000000000000000000000000F5
:103B90000000000000000000000000000000000025
:103BA0000000000000000000000000000000000015
:103BB0000000000000000000000000000000000005
:103BC00000000000000000000000000000000000F5
:103BD00000000000000000000000000000000000E5
:103BE00000000000000000000000000000000000D5
:103BF00000000000000000000000000000000000C5
:103C0000000000001334361408B0381B0860041A92
:103C1000C80C1AE808131039140878371B08180C58
:103C20001AA00C13143A1B08EC081A44041A300C9E
:103C30001AB8041A44041A94045184A24A040009CC
:103C40005101020304060708090B4E4154500B4C66
:103C50004530500E4C2B4347534E500B4B4D52505A
:103C60000D4A50494E3F500C4B494D49A0034A5311
:103C70005129500E4C5245473D32500A4E3FA00A42
:103C80004930500D4647415454A139500815384425
:103C9000434F4E543D312C224950222C22434D4E4D
:103CA000455422501F5847415554484F19511C67DD
:103CB000736D520D35313233345129500E48494914
:103CC000433D31F0295002483F1950081B3D4854EC
:103CD0005450504152413D75726C2C7777772E626B
:103CE000616964752E636F6D50080842706F72745D
:103CF0002C3830A00E495345545550F008083C412B
:103D00004354494F4E3D9C0911500F472C302C35E0
:103D10003132500A4231A0180A5454534346473DA9
:103D2000332C020945500645464D543D3049500F4D
:103D300042504C41593D3152195000115148545490
:103D400050414354494F4E3D322C322C3103124FD7
:103D50004BF65245414459FE2B4353513A14B8088F
:103D60005245473A20322C14AF474154543A20AAC6
:103D700018082B584949433A2001891639DA9D52CF
:103D80004543565502133E080B122B545453504CC6
:103D900041593A20AA712D010203040420090607A3
:083DA0000809020406080000F6
:0400000508000131BD
:00000001FF
