:020000040800F2
:100000003023002079020008D51E0008811E000858
:10001000D11E0008B31B0008233B000800000000AD
:100020000000000000000000000000005D33000838
:10003000651D000800000000070300087134000877
:10004000930200089302000893020008930200083C
:10005000930200089302000893020008930200082C
:10006000930200089302000893020008930200081C
:10007000930200089302000893020008930200080C
:1000800093020008930200089302000893020008FC
:1000900093020008930200089302000893020008EC
:1000A00093020008930200089302000893020008DC
:1000B0009302000893020008ED3400089302000840
:1000C00093020008930200089302000893020008BC
:1000D00093020008013700089137000893020008D6
:1000E000930200089302000893020008930200089C
:1000F000930200089302000893020008930200088C
:10010000930200089302000893020008930200087B
:10011000930200089302000893020008930200086B
:10012000930200089302000893020008930200085B
:1001300000F002F800F090F80AA090E8000C824469
:100140008344AAF10107DA4501D100F085F8AFF246
:10015000090EBAE80F0013F0010F18BFFB1A43F0A5
:1001600001031847FC4800001C490000103A24BF56
:1001700078C878C1FAD8520724BF30C830C144BF0C
:1001800004680C607047000000230024002500264E
:10019000103A28BF78C1FBD8520728BF30C148BFEA
:1001A0000B6070476E2900F0C783702900F031851D
:1001B000662904F06783652904F06483672904F0E5
:1001C00061836129AFF3008003681B0A28BF41F0F7
:1001D0008001692900F02A81642900F027817529AE
:1001E00000F024816F2900F0BF84782900F0FD849D
:1001F000E92900F05984E42900F05684F52900F03B
:100200005384EF2900F0BC84F82900F0FC840368D3
:10021000DB0928BF41F08001632900F0C8837329FE
:1002200000F0CD83E32900F09F87F32900F0A48735
:10023000002070471FB501F03BF8040000200021AA
:1002400004F0F4FA401C60600020002104F004FB7C
:10025000E0601FBD10B510BD01F005F81146FFF7B5
:10026000E9FF03F06DFD01F0E3F803B4FFF7F2FFDF
:1002700003BC03F073FC00000948804709480047AD
:10028000FEE7FEE7FEE7FEE7FEE7FEE7FEE7FEE746
:10029000FEE7FEE704480549054A064B70470000A3
:1002A0008D34000831010008301D0020302300206B
:1002B000301F0020301F0020EFF3108072B670470F
:1002C00080F310887047204C204D25604FF00004CB
:1002D00084F309881E4C4FF0010525701D4C4FF02A
:1002E0008055256062B6FEE730B41A4C4FF0805559
:1002F000256030BC704730B4164C4FF080552560F7
:1003000030BC704700BF72B6EFF3098028B12038C7
:1003100080E8F00F10490968086000B50F48804771
:100320005DF804EB0E480F490A7802700A480E493E
:100330000A680260106890E8F00F203080F30988A6
:100340004EF0040E62B6704720ED00E00000FFFFA3
:100350006200002004ED00E0680000203129000860
:100360005700002058000020700000207047000057
:100370001CB50C46064B7B4469460090204600F0B5
:10038000F4FA04460020694600F002FB20461CBD3A
:10039000170600000FB4044910B503AA029800F034
:1003A00013FB10BC5DF814FB200000200FB41CB53B
:1003B000084B06AA7B4469460090059800F0D5FAE0
:1003C00004460020694600F0E3FA20461CBC5DF8B4
:1003D00014FB0000D905000070B50C460546012A43
:1003E00005D02878800600D5EA69002302E00123C1
:1003F00005E05B1C934202D2E05C0028F9D1A869B9
:10040000E618C01AA861286A18442862284600F035
:1004100001FA04E0D5E9012114F8010B9047B44238
:10042000F8D3284600F00CFA70BD00002DE9F04129
:100430000646002410687529314616A510D000F034
:1004400010FA002802DA404213A507E031688A0753
:1004500001D512A502E0490704D511A5012401E048
:1004600000F008FA00210A2206F1240709E0B0FB97
:10047000F2FCB0FBF2F302FB1C003030785418465B
:10048000491C0028F3D123462A463046BDE8F041F6
:1004900000F0F9B9000000002D0000002B00000062
:1004A000200000002DE9F05F894604464FF0000A65
:1004B000DFF874B1FB44C0F820A02046E16888470B
:1004C000002874D0252806D0D4E901219047206A5D
:1004D000401C2062F1E700265F462046E16888471D
:1004E0002028054607DB312D05D2781910F8200C9D
:1004F00008B10643F1E7B00701D526F00406C4F8B9
:100500001CA00027C4F818A02A2D09D0284603F003
:100510001EFB38B304EB8708303DC8F8185019E0CB
:1005200059F8041B204604EB87029161E168884773
:10053000012F054618D1E069002820DA26F02006B0
:100540001DE0D8F8180000EB800005EB40003038C3
:10055000C8F818002046E1688847054603F0F7FA16
:100560000028EED1012F0AD02E2D08D12046E168B7
:1005700088477F1C0546022F46F02006C4DBA06991
:10058000002803DA404246F00106A061F00701D0DE
:1005900026F010066C2D0BD0682D09D04C2D39D0CB
:1005A0006A2D35D0742D35D07A2D33D016E038E051
:1005B000E1682F4620468847B842054609D16C2F8E
:1005C00026D04FF48060E168064320468847054600
:1005D00004E06C2F1AD04FF4807006430DB3A5F1E0
:1005E0004100192802D8203546F400664A462946BB
:1005F000204626604E46FFF7D5FD80B101280BD07E
:10060000F61D26F0070000F1080956E74020E4E750
:100610008020D8E70020D6E706F104094DE72846F8
:1006200052E7206ABDE8F09FD044000070B506464E
:1006300000F0ECF80468054630460A22002100F07C
:10064000F3FA2C6070BD30B505460B462A4613F808
:10065000014B12F8010B08B1A042F8D01CB10028E0
:1006600002D06D1CF1E7284630BD40EA0103024686
:1006700030B59B0710D14FF0013400E008C208C923
:100680001D1B9D4315EAC41FF8D013F0FF0102F8AB
:10069000011B0DD01B0AF8E711F8013B002B02F8F3
:1006A000013B05D011F8013B002B02F8013BF3D1CF
:1006B00030BD10B5431C02E010F8011B71B1810779
:1006C000FAD14FF0013202C88C1A8C4314EAC211DD
:1006D000F9D0C01A0A0603D0C01E10BDC01A10BD42
:1006E0000A0401D0801E10BD0902FCD0401E10BDBE
:1006F0004FF000020429C0F0128010F0030C00F04B
:100700001B80CCF1040CBCF1020F18BF00F8012BC8
:10071000A8BF20F8022BA1EB0C0100F00DB85FEA96
:10072000C17C24BF00F8012B00F8012B48BF00F862
:10073000012B70474FF0000200B5134694469646D1
:10074000203922BFA0E80C50A0E80C50B1F12001E4
:10075000BFF4F7AF090728BFA0E80C5048BF0CC092
:100760005DF804EB890028BF40F8042B08BF7047F0
:1007700048BF20F8022B11F0804F18BF00F8012B62
:10078000704700004FF0013C50F8042B51F8043B37
:100790009A4221D1A2EB0C03934313EACC1317D155
:1007A00050F8042B51F8043B9A4215D1A2EB0C03EC
:1007B000934313EACC130BD150F8042B51F8043BAC
:1007C0009A4209D1A2EB0C03934313EACC13DBD07A
:1007D0004FF00000704700BFD01A01BAB1FA81F1A2
:1007E00001F0180122FA01F0CB40C1F12001DBB287
:1007F000C0B2C01A2CFA01F3D11A914311EAC31105
:10080000E6D170477047704770477047004870479F
:10081000D01C002070B5044685690068C10601D56A
:10082000302600E02026C00707D070BDD4E90121A2
:1008300030469047206A401C20626D1EF6D570BD80
:1008400070B5044685690078C00707D170BDD4E94A
:10085000012120209047206A401C20626D1EF6D5A1
:1008600070BD09684A0501D540B27047C905FCD57D
:1008700000B2704709684A0501D5C0B27047C90582
:10088000FCD580B270472DE9F0470D469946924657
:10089000044600F124080168880604D5E06921F0C7
:1008A0001001216000E00120A84201DD471B00E0AB
:1008B0000027A1697A1902EB0900081AA0612078C3
:1008C000C00602D42046FFF7A5FF002608E0D4E9C1
:1008D00001211AF806009047206A401C761C20620D
:1008E0004E45F4DB2078C0060AD52046FFF792FF7C
:1008F00006E0D4E9012130209047206A401C2062A4
:10090000381EA7F10107F4DC07E0D4E9012118F84B
:1009100005009047206A401C2062281EA5F10105B1
:10092000F3DC2046FFF78CFF2078000602D502207A
:10093000BDE8F0870120FBE711680268006A5305F3
:1009400001D508700AE0D30501D5088006E013063A
:1009500003D5C217C1E9000200E00860012070471A
:1009600001694A1C02610878704700B58FB0CDE973
:1009700001310021059105497944CDE90310114663
:100980006846FFF78FFD0FB000BD0000E5FFFFFFD9
:100990000A6802F8010B0A60704710B5436913B189
:1009A000AFF3008001E0FFF717FD012010BD1278C2
:1009B00000F124010A7000224A700122EDE711685B
:1009C0004FF0FF32E9E70000074B70B50D467B445E
:1009D000FFF7CBFF0446284600F021FC10B14FF092
:1009E000FF3070BD204670BDB73200002DE9FF5FBB
:1009F00015468A460446DFF8AC80F8440027D8E95B
:100A000000103E46CDE9001010E03AF816106A4694
:100A100002A800F008FC411C07D02178890603D504
:100A2000E269391891420DD80744761C2078800677
:100A300002D5E069B84205DDAE42E6DB3AF81600C1
:100A40000028E2D1A069C01BA0612046FFF7E2FEAA
:100A5000D8E90010CDE90010002017E03AF818108E
:100A60006A4602A800F0DFFBB0F1FF3F81460BD0E1
:100A700000250DF1080B05E0D4E901211BF8050064
:100A800090476D1C4D45F7D308F10100B0428046F8
:100A9000E4DB206A384420622046FFF7D1FEBDE83F
:100AA000FF9F00009E3F00002DE9F0418046D21DCF
:100AB00022F007020025D2E90002F52915A614D07C
:100AC000011E72F1000106DA0023D0EB030063EB94
:100AD000020211A608E0D8F800108B0701D50FA676
:100AE00002E0490701D50EA601251146002408F1B0
:100AF000240704E000F0DCF830323A55641C50EA78
:100B00000102F7D12B46324621464046BDE8F0416E
:100B1000FFF7B9BE000000002D0000002B00000010
:100B20002000000030B4002100F1240408E002F0AD
:100B30000705D208303542EA4372DB086554491C88
:100B400052EA0305F3D10468002310A2250708D553
:100B500004F020040C4304D0C46901230CA2641ED9
:100B6000C46130BCFFF78FBE10B504462146106843
:100B7000FFF780FE02462046BDE810400023D1E783
:100B8000D21D22F00701D1E90023CBE700000000CD
:100B900030000000F0B40D460188090502D5214C53
:100BA0007C4402E01F4C7C440E34002100F12406FA
:100BB00008E002F00F071209E75D42EA03721B0921
:100BC0007754491C52EA0307F3D102780023120735
:100BD00004D5702D06D009B1022311342246F0BC91
:100BE000FFF751BE01231034F8E770B504460D46F7
:100BF00021461068FFF73EFE024629462046BDE822
:100C000070400023C6E7D21D22F00703D3E900237A
:100C1000C0E70368126843F0200303600823C36140
:100C20000023B7E7003E00002DE9F04791460F464C
:100C300080460446002614F8015B2DB100F030F820
:100C40000068405DC007F6D12B2D02D02D2D18D0A5
:100C5000641E4A463946204600F092FA27B13968A8
:100C6000A14201D1C7F800804FF0020471050BD5F5
:100C70004042002803DDFFF7C9FD0460A007BDE87E
:100C8000F08746F48066E4E70028F8DAFFF7BEFD57
:100C900004606FF00040F2E700487047D01C00206D
:100CA00010B500F005FB001D10BD00BF813B00002A
:100CB00030B5B0F10A024FEA900E71F100034EEA2E
:100CC000817EB0EB0E0061EB91014FEA101E4EEAFF
:100CD000017E10EB0E0041EB11114FEA102E4EEA8F
:100CE000016E10EB0E0041EB11214FEA104E4EEA5F
:100CF000014E10EB0E0041EB1141401841F1000193
:100D00004FEAD00040EA41704FEAD10110EB800574
:100D10004FEA810444EA907444EB01046D1944EBFA
:100D20000404521BA3414FF0000348BF0A3200D510
:100D300030BD401C41F1000130BD70472DE9FF4F2F
:100D40000C461E464FF0FF378BB0D2E90001DDF8AC
:100D500060800A908A46C1F30A5505B93D460021D4
:100D600008464FF00000BAF1000F00F4400005DA29
:100D700000EB80004FF4400101EA50004FEA905927
:100D8000B9F1010F00DDB9460A9850EA4A000ED0C9
:100D900044F61050A5F2FF3545432F14B8F1000F6B
:100DA0001ED07542291E1EDDC9F100021CE0B8F1FB
:100DB000010F4FF0000001D0302103E0F24305E0C5
:100DC0002154401CB042FBDB30460022002121545C
:100DD0000B99C1F80880C1E900200FB0BDE8F08F81
:100DE000BD1B6D1CDEE74A4600DA694206A800F02A
:100DF000B1FA06AB93E8070003AB83E8070050465F
:100E00000A9900F01BFB8DE80700A0F500501F3881
:100E100000900398002D09DD42F21F014A46084464
:100E200003A90390684600F07AFD08E0A0F50050A1
:100E30004A461F3803A90390684600F084FD8DE8F8
:100E400007000004000C03D04FF0FF30410800E021
:100E50001046B8F1000F03D00022009215461EE0A4
:100E6000751E05D4FFF724FF303262556D1EF9D58B
:100E7000B3460122084302D000227F1C04E0207800
:100E8000302801D100227F1E002A099786D01DE05C
:100E9000112D07DAFFF70CFF303262556D1C50EA56
:100EA0000102F5D1084302D00098C8B10EE000213C
:100EB000681E05E0235C625C63542254401E491C9A
:100EC0008142F7DBAB46A81B401E0990002004F8C6
:100ED0000B000B98099AC0F80880C0E9002B7CE74A
:100EE00011264FF0000859E72DE9F04F88460446D7
:100EF000D21D22F0070191B0D1E90001CDE90A012C
:100F000002F011FE02460B98C00F01D02D2007E021
:100F10002068810701D52B2002E0202101EAC000D2
:100F2000032A099001D0072A05DB034641462046E3
:100F300000F0C2F90BE12078800601D5E06900E0FD
:100F40000620B8F1650F814606D0B8F1660F18D0BB
:100F5000B8F1670F70D131E00020B9F1110F0090A6
:100F600001DB112301E009F101030AAA01A90CA880
:100F7000FFF7E4FEDDE90C70002609F10105834668
:100F800047E001204B4600904FF000470AAA01A914
:100F90000CA8FFF7D3FEDDE90DB00C995D460026E5
:100FA00010B909F101000D18B9EB050003D4C0F127
:100FB000FF3609F10105A5EB09002BE0B9F1010F9E
:100FC00001DA4FF001090020B9F1110F00904846F5
:100FD00001DD112300E003460AAA01A90CA8FFF7CE
:100FE000ADFEDDE90C704D460026834620780007F3
:100FF0000AD4AB4500DA5D4601A8012D04DD411994
:1010000011F8011C302907D04F4502DA17F1040FFF
:1010100004DA012082460FE06D1EEEE7002F02DCAD
:10102000ED1B3E4403E0781CA84200DD7D1CB81B8C
:1010300000F1010A4FF000472078000703D4AA45C9
:1010400001DB4FF0FF3A0021B7F1004F0DF14308EB
:101050008DF8431024D002202B23002F01DA7F4289
:101060002D230A21021EA0F1010000DC5FB197FBD5
:10107000F1FC97FBF1F201FB1C7C17460CF1300CE4
:1010800008F801CDEEE7A8F10100037021880905F9
:1010900001D5452100E06521A0F1010800F8011CFF
:1010A00009980FA9A1EB0807FF1D00B10120411904
:1010B00001EBEA70A1693844081A401EA06120784B
:1010C000C00602D42046FFF7A5FB099828B1D4E951
:1010D00001219047206A401C20622078C00622D55A
:1010E0002046FFF797FB1EE0002E04DBB34502DD30
:1010F00001A8805D00E03020D4E901219047206AFA
:10110000401C2062761CAAF101005FEA000A0AD1A5
:1011100000F0CEF8C0680168405CD4E90121904736
:10112000206A401C2062281EA5F10105DCDC07E0D6
:10113000D4E9012118F8010B9047206A401C206275
:10114000381EA7F10107F3DC2046FFF779FB0320E7
:1011500011B043E610B5436913B1AFF3008001E06D
:10116000FFF744FC012010BD128800F124018284A5
:101170000022C2840122EDE711684FF0FF32E9E757
:101180002DE9F05F824615468B4600270AF10104DF
:10119000B9460078302801D09DB113E014F8010B56
:1011A0000127782803D0582801D045B10AE00DB1B5
:1011B000102D07D1002714F8010B102502E0082597
:1011C00000E00A250026B0460EE005FB080005FBFE
:1011D00006F101271FFA80F801EB1046B6F5803FB3
:1011E00000D3B94614F8010B294600F0A5F80028F1
:1011F000EBDABBF1000F05D00FB1641E00E05446DE
:10120000CBF80040B9F1000F06D0FFF7FFFA02213A
:101210000160C81EBDE8F09F48EA0640FAE7007B7F
:1012200000F08000704770B516460C460546FFF783
:1012300037FD036893F80101012806D0FF2C0FD871
:10124000185D68B101202C7070BDD3F807013246DB
:10125000214603F2071303442846BDE870401847AF
:101260004FF0FF3070BD7546FFF716FDAE46050026
:101270006946534620F00700854618B020B5FFF7B1
:1012800009F8BDE820404FF000064FF000074FF08E
:1012900000084FF0000B21F00701AC46ACE8C00994
:1012A000ACE8C009ACE8C009ACE8C0098D4670479D
:1012B00000487047F01C00202DE9F0411F4604460D
:1012C00003260168072A01F4006004DB08B116A5B3
:1012D00005E016A503E008B115A500E015A521F06D
:1012E00010002060A069C01EA0610FB1401EA06167
:1012F0002046FFF78FFA4FB1D4E9012138469047D5
:10130000206A401C2062C01C206206E0206AFAE7C6
:10131000D4E9012115F8010B9047761EF8D220463A
:10132000FFF78EFABDE8F0814E414E006E616E000F
:10133000494E4600696E66003A2800D2303820F0E7
:101340002002412A01D3A2F13700884201D34FF095
:10135000FF3070472DE9F047814616468AB0334882
:1013600078440DC88DE80D0030487844801C03ACEB
:101370000DC884E80D0041F69B300844372190FBEE
:10138000F1F290FBF1F5A5F1800501FB12041B3C85
:1013900002D56442012000E00020DFF890A08046E2
:1013A0000027FA44AAF1BE0A0DE0E00709D0324650
:1013B000684607EB47010AEB810100F0C4FA8DE8AB
:1013C000070064107F1C002CEFD1184F7F44AC3F06
:1013D00018E0E80714D007EB04100DF1180A90E8A4
:1013E0000E008AE80E00C068F04201D198190890FA
:1013F000324606A903A800F0A6FA03AB83E807006B
:101400006D10641C002DE4D132466946B8F1000F1E
:1014100003A802D000F083FA01E000F094FAC9E9D1
:101420000001C9F808200AB0BDE8F087E4360000E2
:101430000446AFF300802046FEF717FF5FEA400C3A
:1014400008BF91F0000F4FEA8C234FEAC12243EA14
:1014500051514FEA1C5018BF00F5F0404FEA3000E0
:1014600018BF41F000415FEA6C5C00F02980BCF1DC
:10147000FF3F08BF40F080407047130C06BF1204C6
:101480004FF0100C4FF0000C130E04BF12020CF1C1
:10149000080C130F04BF12010CF1040C930F04BFCE
:1014A00092000CF1020CD30F04BF52000CF1010C9E
:1014B00011464FF00002A0F11F00A0EB0C00704796
:1014C00011F0004F08BF704731F000413FF4D5AF35
:1014D0000B0C06BF09044FF0100C4FF0000C0B0E64
:1014E00004BF09020CF1080C0B0F04BF09010CF139
:1014F000040C8B0F04BF89000CF1020CCB0F04BF4E
:1015000049000CF1010CCCF12003A0EB0C0022FAF5
:1015100003F302FA0CF241EA030100F10100704703
:1015200020F07F4C80EA030023F07F47ACEB0703F9
:1015300003F57C5300F0004003F1FF032DE98049DF
:101540004FEA154B09B44FEA144325EA0B4E24EA3F
:1015500003480FF2042606EB132749083E785FEA9A
:10156000320203FB0667C7F5000707FB06F64FEAE2
:1015700054374FEAD64606F1020607FB066CCCF15B
:10158000005C4FEA1C472CEA074C07FB06F40CFBF7
:1015900006F504EB15464FEA961634BF00204FF0CF
:1015A00000404FEAD13706FB07FC4FEA1C4C0CFB0E
:1015B0000BF7D21B03FB0CF761EB07010CFB0EF7DB
:1015C000B0EB074072EB17420CFB08F734BFA2EBFD
:1015D0000742B2EB074261EB17414FEA0C444FEA76
:1015E000910706FB07FC4FEA1C4C0CFB0BF7B0EB1A
:1015F000C74072EB573203FB0CF734BFA2EBC74274
:10160000B2EBC74261EB57310CFB0EF7B0EBC700F2
:1016100072EB57720CFB08F734BFA2EBC702B2EBB8
:10162000C70261EB5771039F4FEA816141EA921152
:1016300004EBCC044FEAD1374FEA826206FB07FC89
:1016400042EA90124FEA80604FEA1C4C0CFB0BF709
:10165000D21B03FB0CF761EB07010CFB0EF7B0EBA1
:10166000074072EB17420CFB08F734BFA2EB0742AE
:10167000B2EB074261EB17414FEA8C554FEA9107F5
:1016800004EB9C2406FB07FC4FEA1C4C0CFB0BF7FD
:10169000B0EBC74072EB573203FB0CF734BFA2EB41
:1016A000C742B2EBC74261EB57310CFB0EF7B0EB10
:1016B000C70072EB57720CFB08F734BFA2EBC702EE
:1016C000B2EBC70261EB577115EB4C254FEA816114
:1016D00041EA92114FEA82624FEAD13742EA901210
:1016E00006FB07FC44F100044FEA80604FEA1C4C03
:1016F0000CFB0BF7D21B03FB0CF761EB07010CFB98
:101700000EF7B0EB074072EB17420CFB08F734BF43
:10171000A2EB0742B2EB074261EB174115EB1C1538
:101720004FEA813141EA92414FEA823242EA9042E5
:101730004FEA80304FEA0C7644F1000448EA034354
:101740004EEA0B484FF0000EB2EB080C71EB0307AA
:1017500024BF624639464EEB0E0E4FF0000B0018C8
:10176000524149414BEB0B0BB2EB080C71EB0307F9
:101770007BF1000B24BF624639464EEB0E0E4FF054
:10178000000B0018524149414BEB0B0BB2EB080C1C
:1017900071EB03077BF1000B24BF624639464EEB29
:1017A0000E0E51EA020718BF46F0010616EB0E7640
:1017B00055F1000254F1000103D5BDE88901BDE8EF
:1017C0000088BDE88901BDE80048B619524141EBE7
:1017D0000101A3F10103704780807F7E7D7C7B7ACD
:1017E0007978777676757473727171706F6E6E6DCD
:1017F0006C6C6B6A6A696868676666656464636373
:1018000062616160605F5F5E5E5D5D5C5C5B5B5AF8
:101810005A59595858575756565555555454535365
:1018200052525251515050504F4F4F4E4E4D4D4DC0
:101830004C4C4C4B4B4B4A4A4A494949484848470B
:101840004747474646464545454444444443434349
:101850004342424242414141002B26D4770021D0ED
:101860001CB54FEA370703B44FF010004FF01001DA
:101870004FF000000FBCBDE810400BF1010BBBF1B5
:10188000010F08BF5FEA170722BF12F1010211F131
:1018900001014FF0004143F1000300F0004043EA32
:1018A00000007047F9D35708DAE746EA064613F115
:1018B000400F4FEA16461FDD13F1200FDFBF16431E
:1018C0000A46002120335B42C8D0C3F1200746EA14
:1018D000064602FA07F74FEA164646EA0706C3F13C
:1018E000200722FA03F201FA07F721FA03F14FF079
:1018F000000342EA0702B1E746EA020646EA064664
:101900004FEA164646EA0106BCBF46EA0646360CD2
:101910004FF000034FF000024FF000019EE72DE969
:10192000C048934630B491E8380007C831EA400C0B
:1019300048BF34EA430C03D5FFF7F2FDFFF78CFFF5
:10194000F0BCBDE800882DE9C048934630B491E86A
:10195000380007C810F0804F08BF13F0804F03D144
:1019600000F005F8FFF778FFF0BCBDE8008820F034
:101970007F4780EA030023F07F4C07EB0C03A3F5BD
:101980007C5300F00040A3F1FE0392F0000F00F042
:10199000B38095F0000F00F077802DE901494FEA00
:1019A00011404FEA144621EA004800FB06FC24EAF5
:1019B000064708FB06F607FB08F800FB07F718EBDD
:1019C00006484CEB164C4FEA124B18EB07484FEA0F
:1019D00015464CEB174022EA0B4E0BFB06FC25EAA2
:1019E00006470EFB06F607FB0EFE0BFB07F71EEB8A
:1019F000064E4CEB164C4FF000061EEB074E4CEB20
:101A0000174B18EB0B0840F1000018EB0E0B58EBCE
:101A1000000840F100008F1A4FF000013CBFC9439D
:101A2000661B14BFB5EB040C00213CBFC943F61B79
:101A30004FEA17444EEA8E0E27EA04454FEA1C4748
:101A400004FB07622CEA074C05FB07F70CFB05F6C5
:101A500004FB0CFC16EB074642EB174216EB0C4658
:101A600042EB1C421BEB060658EB0202414146EAE0
:101A70009E0601D5BDE80189B619524141EB01012D
:101A8000A3F10103BDE801894FEA14454FEA11476C
:101A900024EA054621EA074C05FB07F406FB07F795
:101AA0000CFB06F105FB0CFC11EB074144EB174462
:101AB0004FEA124711EB0C4144EB1C4422EA074C5D
:101AC00005FB07F206FB07F70CFB06F605FB0CFC13
:101AD00016EB074642EB174216EB0C4642EB1C4551
:101AE0006A1854F1000148BF7047B619524141EBE2
:101AF0000101A3F10103704795F0000F37D04FEAC1
:101B000011424FEA144721EA024624EA074C02FB3D
:101B100007F106FB07F70CFB06F402FB0CFC14EBC9
:101B2000074441EB17414FEA154714EB0C4441EBD6
:101B30001C4125EA074C02FB07F506FB07F70CFBE7
:101B400006F602FB0CFC16EB074645EB174516EBB9
:101B50000C4645EB1C42121951F1000148BF704779
:101B6000B619524141EB0101A3F1010370474FEA5D
:101B700014454FEA114724EA054621EA074C05FBC4
:101B800007F106FB07F70CFB06F24FF0000605FB1A
:101B90000CFC12EB074241EB174112EB0C4251EBEC
:101BA0001C4148BF7047921841EB0101A3F10103AA
:101BB000704700BFFEE721B1026842F001020260F7
:101BC00004E002684FF6FE731A400260704700009E
:101BD00001684FF6FE721140016000210160416012
:101BE0008160C1604B49884208D14A490839496837
:101BF00041F00F01474A083A51608AE045491431E3
:101C0000884208D143490839496841F0F001414A06
:101C1000083A51607DE03F492831884208D13D496A
:101C20000839496841F470613A4A083A516070E0F5
:101C300038493C31884208D136490839496841F46D
:101C40007041344A083A516063E032495031884269
:101C500008D130490839496841F470212D4A083AC1
:101C6000516056E02B496431884208D1294908392E
:101C7000496841F47001274A083A516049E0254912
:101C80007831884208D123490839496841F07061A8
:101C9000204A083A51603CE01F49884206D1011FA2
:101CA000096841F00F01021F116032E01A49143136
:101CB000884208D11849091F096841F0F001164A05
:101CC000121F116025E014492831884208D11249B9
:101CD000091F096841F470610F4A121F116018E072
:101CE0000D493C31884208D10B49091F096841F46C
:101CF0007041094A121F11600BE0074950318842B8
:101D000007D10549091F096841F47021024A121FD1
:101D1000116070470800024008040240014648680C
:101D200080B2704710B50022026847F6F0739A43FC
:101D30000C6A8B6823430C6923434C6923438C69E9
:101D40002343CC6923434C6A23438C6A23431A43BD
:101D50000260CB6843600B6883604B68C36010BD52
:101D60004160704770472DE9F0410246002500268A
:101D7000002000230024002791F803C00CF00F0579
:101D800091F803C00CF0100CBCF1000F03D091F8D7
:101D900002C04CEA050591F800C0BCF1000F31D03B
:101DA000146800202BE04FF0010C0CFA00F3B1F89E
:101DB00000C00CEA03069E4220D183004FF00F0CB6
:101DC0000CFA03F7BC4305FA03FC4CEA040491F84F
:101DD00003C0BCF1280F06D14FF0010C0CFA00FC37
:101DE000C2F814C00AE091F803C0BCF1480F05D155
:101DF0004FF0010C0CFA00FCC2F810C0401C08287F
:101E0000D1D31460B1F800C0BCF1FF0F34DD5468C9
:101E100000202EE000F1080C4FF0010808FA0CF346
:101E2000B1F800C00CEA03069E4221D183004FF0B6
:101E30000F0C0CFA03F7BC4305FA03FC4CEA04044C
:101E400091F803C0BCF1280F05D100F1080C08FA85
:101E50000CF8C2F8148091F803C0BCF1480F07D108
:101E600000F1080C4FF0010808FA0CF8C2F81080D5
:101E7000401C0828CED35460BDE8F0810161704752
:101E800000BFFEE708B50121482001F0DDF9202060
:101E9000ADF8000010208DF8030003208DF802003B
:101EA00069460948FFF75FFF20210748FFF7E6FF73
:101EB0002020ADF8000069460448FFF754FF2021B8
:101EC0000248FFF7DBFF08BD000C0140001801408D
:101ED00000BFFEE77047000070B5002100230F220D
:101EE000C47804B3154C246804F4E064C4F5E064D9
:101EF000210AC1F10403CA40447804FA03F184784A
:101F00001440214309010E4C0678A155047804F0D1
:101F10001F050124AC4005786D11AD0005F1E025E9
:101F2000C5F8004109E0047804F01F050124AC4025
:101F3000044D0678761145F8264070BD0CED00E0A2
:101F400000E400E080E100E002490143024A116040
:101F5000704700000000FA050CED00E010B500F03D
:101F600013F800F0C5FE00F0EDFE00F00DFF00F0EC
:101F700095FE00F067FE00F0A1FF00F045FF00F0C5
:101F80006BFF00F002F810BD7047704706480078FC
:101F9000012808D105480078FF2804D203480078BA
:101FA000401C024908707047620000205500002064
:101FB00010B500241A480078012830D1FEF77CF9CA
:101FC00004461848007820B116480078401E15498C
:101FD000087014480078F8B913480078E0B900F0A8
:101FE000CFFF12481249097850F8210011490860C2
:101FF0000F4800781049097888420DD00D480068D4
:10200000806B401C0B49096888630C480068401CC1
:102010000A490860FEF76FF92046FEF751F910BD36
:1020200062000020550000205600002068170020A4
:102030005800002070000020570000203C000020C5
:102040002DE9F04105460E4600271F48007820B1D3
:10205000102030700020BDE8F081FEF72DF9074612
:102060001A4850F8250030B13846FEF729F92820E3
:1020700030700020EFE70120144941F82500144892
:1020800004684CB9002041F825003846FEF718F9DD
:10209000042030702046DEE70D48006840680C4997
:1020A00008603846FEF70CF904202070FF2040EA53
:1020B0000520208100206060204600F0B5FD002052
:1020C00030702046C7E70000550000206817002048
:1020D000400000202DE9F74F82B00546174600204A
:1020E00001902878042804D00120387005B0BDE89C
:1020F000F08F8048007810B102203870F6E77E48F3
:10210000007810B10D203870F0E7FEF7D5F8019097
:1021100028894FEA2029287AFF281FD1288900F42E
:102120007F40288128897549096891F83210084351
:1021300028817248006868607048006890F8320032
:10214000484505DC0198FEF7BBF87820387004E0BC
:102150000198FEF7B5F800203870C7E795F808B089
:102160006C6894F8320048457ADD6448006890F85D
:102170003200584574DA94F83480614810F8080049
:1021800094F835100840B0B15D4810F8080094F894
:10219000351088435A4901F80800084610F808002D
:1021A00030B994F83610574800788843554908707C
:1021B0004FF0010A19E0E669AEB194F8348006F1F7
:1021C0000B0010F8080094F83510884306F10B0155
:1021D00001F80800084610F8080020B9B07A94F811
:1021E00036108843B0724FF0000A04F8329F20780E
:1021F000C010A070207800F007006070A178012066
:1022000088402071617801208840E070323CBAF14A
:10221000010F10D13434A0783A490978084339497C
:10222000087020783649085C6178084314F834193E
:10223000334A505411E0E6697EB1B07A3434A17863
:102240000843B072217806F10B00405C61780843C6
:1022500014F8342906F10B0188542B4840F8294022
:102260002648006890F8300040F0100023490968C3
:1022700081F8300000202149096881F831001F49A8
:1022800003980968C862284600F090FC0198FEF7A0
:1022900017F800F03BFEFEF70FF8019017480068B2
:1022A00090F8310020B1012809D0022806D102E0BF
:1022B000002038700BE00E20387008E000BF29467F
:1022C0000E48006800F05CFC0A20387000BF00BFB8
:1022D00000200A49096881F830000849096881F836
:1022E000310006490968C8610198FDF7E9FF00BFA0
:1022F000FCE6000055000020560000206800002089
:102300005A00002059000020681700202DE9F041F4
:10231000044600272C48007810B10520BDE8F08164
:102320002078042801D00120F8E7FDF7C5FF074613
:1023300020890612257A254960680968884204D0F8
:102340003846FDF7BDFF6420E8E72048006890F8B4
:102350003200B04204D129461C48006800F03AF827
:1023600001201B4941F82600A07A08B3002310225F
:102370001946204600F0C2FB0546208900F47F4044
:102380002081208928432081114850F82500606071
:10239000B54206DC3846FDF793FF00F0B7FD782024
:1023A000BCE73846FDF78CFF00F0B0FD0020B5E734
:1023B000208940F0FF002081002060603846FDF752
:1023C0007FFF0020AAE700005500002068000020E1
:1023D0006817002030B590F834201B4B9B5C90F8B8
:1023E0003540A343184CA35423469B5C33B990F863
:1023F0003640164B1B78A343144C237000F8321F51
:10240000134B1970C1F3C203837001F007034370CB
:1024100084780123A340037144780123A340C3704F
:1024200003790A4C24782343084C23708378064CA4
:10243000E35CC478234384783238034D2B55054B35
:1024400043F8210030BD00005A0000205900002050
:10245000570000206817002010B500240B480078B2
:10246000012811D1FDF728FF04460948007840B93A
:1024700008480078FF2804D206480078401C054927
:1024800008702046FDF71CFF10BD00006200002010
:10249000550000205600002010B500241348007895
:1024A000012821D1FDF708FF044611480078C0B18A
:1024B0000F480078401E0E4908700846007860B941
:1024C0000C48007828B92046FDF7FAFE00F01EFD02
:1024D0000AE02046FDF7F4FE06E02046FDF7F0FE98
:1024E00002E02046FDF7ECFE10BD00006200002077
:1024F000560000205500002010B50B48007890B918
:1025000000F03EFD0948007809490870094807496C
:10251000097850F821000849086008460068074912
:102520000860FDF7D0FE10BD6200002058000020BA
:10253000570000206817002070000020680000206D
:1025400010B50024022000F0F5F9FDF7B5FE0446B1
:1025500000200B4908602046FDF7B2FE142000F071
:10256000E9F9FDF7A9FE0446054800680549086039
:102570000120054908702046FDF7A2FE10BD0000AD
:10258000640000204C000020540000207047000030
:102590002DE9FE4F06460F4690461C464FF00009B7
:1025A000FDF78AFE81461F48007828B14846FDF7AE
:1025B00087FE3C20BDE8FE8F1B4850F8240060BB1E
:1025C0000120194941F824004846FDF779FE00230F
:1025D00042463946304600F009F982460020009014
:1025E00001900346024651460290204600F0DEFC70
:1025F000054635B90D48007801280CD100F086FC5D
:1026000009E0FDF759FE81460020074941F8240002
:102610004846FDF755FE2846CCE74846FDF750FEF4
:102620002820C7E75500002068170020620000201E
:102630002DE9F04F85B081468A4693461C46DDE978
:102640000F78129D00200390FDF736FE039023487B
:10265000007830B10398FDF733FE3C2005B0BDE8AB
:10266000F08F1F4850F8240088BB01201C4941F816
:1026700024000398FDF724FE2A464146384600F020
:10268000A5FD2B465A465146484600F0AFF8049047
:102690001198CDE9008002953A4620460E9B049998
:1026A00000F084FC064636B90E48007801280CD1AB
:1026B00000F02CFC09E0FDF7FFFD03900020084925
:1026C00041F824000398FDF7FBFD3046C6E7FFE71D
:1026D0000398FDF7F5FD2820C0E700005500002015
:1026E0006817002062000020704770472DE9F04114
:1026F00006460F4614464FF000081548007818B1FA
:1027000012202070BDE8F081FDF7D6FD8046FF2E37
:1027100003D11048006890F832600F4850F82650F6
:102720002DB94046FDF7CCFD43202070EAE7012D8E
:1027300005D14046FDF7C4FD43202070E2E7EF6479
:102740004046FDF7BDFD0020207000BFDAE7000025
:102750005500002068000020681700207047000026
:102760002DE9F04707460D464FF0000A002028608B
:102770006860FDF7A1FD8246FF2F03D1194800686C
:1027800090F83270184850F827402CB95046FDF7A1
:1027900097FD4320BDE8F087012C04D15046FDF79A
:1027A0008FFD4320F6E7207C00F0010020B9504661
:1027B000FDF786FD4520EDE70026D4F80C90D4F80F
:1027C00008805046FDF77CFD00E0761C58F8041B9D
:1027D0000029FAD0B0002860A9EB060080006860EC
:1027E0000020D7E7680000206817002070B5044675
:1027F00010464FF080750560051F28462C606FF06D
:102800000106051F28462E604FF01236051F284688
:102810002E604FF00336051F28462E604FF002361B
:10282000051F28462E607610051F28462E60051FBE
:10283000284629604FF01136051F28462E604FF0BC
:102840001036051F28462E604FF00936051F284612
:102850002E604FF00836051F28462E604FF00736D1
:10286000051F28462E604FF00636051F28462E60AD
:102870004FF00536051F28462E604FF00436051F21
:1028800028462E6070BD00002DE9F04105464FF04E
:102890000008FDF711FD8046FF2D05D12048006896
:1028A00090F83250012608E01D48006890F8320088
:1028B000A84201D1012600E000261A4850F8254020
:1028C0002CB94046FDF7FCFC4820BDE8F081012C06
:1028D00004D14046FDF7F4FC4320F6E794F8347049
:1028E0001148C05D94F8351088430F49C855084613
:1028F000C05D30B994F836100C48007888430B4915
:10290000087094F8300040F0080084F83000404629
:10291000FDF7D6FC012E01D100F0F8FA0020D4E733
:1029200068000020681700205A000020590000208D
:102930007047000070B5054600261748007800B1C2
:1029400070BD1648007800B1FAE71DB3FDF7B4FC7E
:1029500006461348006890F834401248005D10495C
:10296000096891F8351088430E4908550846005DFE
:1029700040B90B48006890F836100B48007888433F
:102980000949087006480068C5623046FDF798FCA2
:1029900000F0BCFA00BFD3E755000020560000202D
:1029A000680000205A000020590000202DE9F04165
:1029B00004460D4616461F461248007810B15520B1
:1029C000BDE8F0811048007808B13220F8E7B81C63
:1029D000C82148434FF47A71B0FBF1F14FF46160C4
:1029E0006043C5EB051200EB8200304400EBC002EF
:1029F00002EB001001EBC0084046FFF79BFF0020F0
:102A0000DEE70000550000205600002070B50026CB
:102A100000F072F8FDF750FC064631480068401C93
:102A20002F4908603046FDF74BFC2E4800780128FE
:102A300053D12D48007820B1012804D0022809D1B3
:102A400003E001250BE0002509E0012501202649CE
:102A5000087004E0012500202349087000BF00BF72
:102A600005B970BD2148046833E0FDF725FC064632
:102A7000E06A50B3E06A401EE062E06A28BB94F866
:102A8000300000F0370040B114F8300F00F0C800FB
:102A9000207001206070303C02E0002084F831009A
:102AA00094F8300000F0080078B93434A078104968
:102AB000097808430E49087020780E49085C61784F
:102AC000084314F834190B4A505464693046FDF732
:102AD000F7FB94F832003F28C7D100BFC1E70000E0
:102AE0008000002062000020780000207400002098
:102AF000590000205A000020704700002DE9F04FD7
:102B000005460F4690469946A87A19490E5C05F18C
:102B10000B00805D11F800B00BEBC60000F0FF0A5F
:102B2000144850F82A4000202034E0602760207CC0
:102B300020EA0800207484F81190207C203C00F0EA
:102B4000080068B994F836000B49097808430A4927
:102B500008700A48805D94F8351008430749885585
:102B60002946204600F00CF85046BDE8F08F0000E2
:102B70008848000868170020590000205A000020EB
:102B800010B590F8342001F10B039B5C90F83540B0
:102B9000A34301F10B04A35423469B5C23B98B7A16
:102BA00090F83640A3438B7210BD000010B51B4A4D
:102BB0001268D061194A126892F8343000F10B02A1
:102BC000D25C164B1B6893F835301A43134B1B68C5
:102BD00093F8344000F10B031A55827A0F4B1B68AF
:102BE00093F836301A4382720C4A126892F8341005
:102BF0000B4A525C094B1B6893F835309A43084BDB
:102C00005A541A46525C42B9044A126892F8363055
:102C1000044A12789A43034B1A7010BD68000020D2
:102C20005A00002059000020014600228A7200202C
:102C300005E0002301F10B021354421CD0B2082816
:102C4000F7D370472DE9F0415021114800F02CF9DD
:102C500000250DE0681C86B20D4800EB051400EB62
:102C600006170020207067600AA0E060681C85B22B
:102C7000042DEFD3064800EB05140020207060609F
:102C800004A0E060024804490860BDE8F08100004B
:102C9000181300203F0000004400002070B5C82138
:102CA000114800F001F900230FE0581C85B203EB36
:102CB00083000D4901EB800405EB850001EB8006E4
:102CC000002020706660581C83B2092BEDD303EB03
:102CD0008300054901EB80040020207060600846F5
:102CE0000249086070BD0000501200204000002022
:102CF00000200A4908600A4908700A4908700A4910
:102D000008700A4908700A4908600A4908600A49B7
:102D100008600A4908600A4908707047800000206E
:102D200055000020560000206300002062000020B3
:102D30003C00002064000020500000204C000020D7
:102D40005400002000210A4A1170002004E00021F4
:102D5000084A1154411CC8B20828F8D30021064A79
:102D60001170064A1170064A1160064A11607047D8
:102D7000590000205A000020570000205800002071
:102D8000700000206800002070B54FF47C71194875
:102D900000F08AF84FF48071174800F085F800249D
:102DA00013E0601CC5B2C4EBC40000EB4000114945
:102DB00001EB8003C5EBC50000EB400001EB800692
:102DC0005E610EA0D864601CC4B20B2CE9D3C4EBC6
:102DD000C40000EB4000074901EB8003002058616C
:102DE00006A0D8640020064908600248054908602A
:102DF00070BD000068180020681700203F00000028
:102E0000740000206C00002000B587B00320002172
:102E100080220A4BCDE90132CDE903104FF6FF7055
:102E20003F23074A00900748FFF702FC06AA06A1C5
:102E30003F20FFF75BFC07B000BD000068150020D5
:102E400064170020E130000875432F4F532D494986
:102E50002049646C6500000000B587B003200021A4
:102E600080220A4BCDE90132CDE903104FF6FE7006
:102E70003E23074A00900748FFF7DAFB06AA06A19F
:102E80003E20FFF733FC07B000BD000068130020B0
:102E9000641500200931000875432F4F532D49490F
:102EA000205374617400000004E0002200F8012B3C
:102EB0004A1E91B20029F8D1704700002DE9F04177
:102EC00078211048FFF7F0FF00240DE0601C86B267
:102ED00004EB44000B4901EBC00506EB460001EB97
:102EE000C0072F60601C84B2042CEFD304EB4400B5
:102EF000044901EBC005002028600846024908602B
:102F0000BDE8F081581C00207C00002010B5002492
:102F1000FDF7D2F9044613480078F8B91248007852
:102F2000E0B900F02DF811481149097850F8210056
:102F3000104908600E4800780F49097888420DD082
:102F40000C480068806B401C0A49096888630B487C
:102F50000068401C09490860FDF7C6F92046FDF7E6
:102F6000AFF910BD55000020560000206817002062
:102F70005800002070000020570000203C00002076
:102F80000649074A1278885C0649095C034A515C85
:102F900001EBC001044A1170704700008848000826
:102FA000590000205A000020580000202DE9F84F59
:102FB00005460F4690469946DDE90AAB0020009091
:102FC000FDF77AF900903F480468002C74D018345B
:102FD00054F8040C3B4908600098FDF771F944F877
:102FE000187CA576002020766076606144F814BCD9
:102FF00044F80CAC44F8108C0C9824F8080C24F815
:10300000069C0020E077E810207705F00700E076C6
:10301000217F01208840A077E17E012088406077F1
:1030200000206060E060A0602062A0626062E062F8
:10303000206325A06063183C002606E0002104F10F
:10304000500040F82610701CC6B2002EF6D0204664
:10305000FFF79CFA2046FFF747FBFDF72DF900909C
:103060001A4840F825401A48006860610020A061B5
:103070001748006810B1164800688461144804605D
:103080003434A0781349097808431249087020782D
:103090001149085C6178084314F834190E4A5054F9
:1030A0000E480078401C0D4908700098FDF708F99B
:1030B0000020BDE8F88FFFE70098FDF701F94220F6
:1030C000F7E700006C0000203F00000068170020B8
:1030D00074000020590000205A00002063000020E6
:1030E000002400BF00BFFDF7E7F80446054800686C
:1030F000401C044908602046FDF7E2F8FFF7F5FAA6
:10310000F1E7000064000020002400BF02E0282056
:10311000FFF710FC194800780028F8D0184800681C
:103120006421B0FBF1F0164908600846006828B930
:10313000002014490870FF20FFF7A6FB00BFFDF731
:10314000BBF80446104800681049086000200E498A
:1031500008602046FDF7B4F80C4800680849096883
:10316000B0FBF1F0C0F1640006490870FFF7F6FA11
:1031700000F00EF81420FFF7DDFBE0E7540000201C
:103180004C00002048000020640000205000002077
:103190007CB5002514E069462846FFF7E1FA0646AB
:1031A00066B9094850F8254044B1012C06D0D4E94D
:1031B000020100EB810060640198A064681CC5B244
:1031C0003F2DE8D97CBD00006817002002F0010304
:1031D00043B102F002032BB102E0491E002308C0F4
:1031E0000029FAD17047000029B1064A526902430A
:1031F000044B5A6104E0034A52698243014B5A610D
:10320000704700000010024029B1064AD26902430B
:10321000044BDA6104E0034AD2698243014BDA616C
:10322000704700000010024029B1064A12690243AB
:10323000044B1A6104E0034A12698243014B1A618C
:10324000704700000010024029B1064A926902430B
:10325000044B9A6104E0034A92698243014B9A61EC
:10326000704700000010024029B1064AD2680243AC
:10327000044BDA6004E0034AD2688243014BDA600F
:10328000704700000010024030B5002100220024E9
:1032900000232D4D6D6805F00C0121B1042905D0E6
:1032A000082923D105E0294D056022E0274D05605E
:1032B0001FE0254D6D6805F47012234D6D6805F40F
:1032C0008034022505EB92421CB9214D554305601F
:1032D0000BE01D4D6D6805F400351DB11C4D5543C7
:1032E000056002E0194D5543056002E0174D056089
:1032F00000BF00BF144D6D6805F0F0010909154DC0
:103300006B5C0568DD4045600F4D6D6805F4E0615C
:10331000090A104D6B5C4568DD4085600A4D6D689B
:1033200005F46051C90A0B4D6B5C4568DD40C56012
:10333000054D6D6805F44041890B074D6B5CC56810
:10334000B5FBF3F5056130BD0010024000127A00B4
:1033500000093D002600002036000020704710B50F
:1033600000F002F810BD00000CB5002001900090A4
:103370003348006840F480303149086000BF30486D
:10338000006800F4003000900198401C0190009803
:1033900018B90198B0F5A06FF1D12948006800F480
:1033A000003010B10120009001E000200090009852
:1033B000012843D12348006840F0100021490860EB
:1033C0000846006820F0030008600846006840F0E6
:1033D000020008601A484068194948600846406879
:1033E00048600846406840F480604860084640688D
:1033F00020F47C1048600846406840F4E8104860BB
:103400000846006840F08070086000BF0C48006803
:1034100000F000700028F9D00948406820F003004F
:10342000074948600846406840F00200486000BF15
:103430000348406800F00C000828F9D10CBD0000DA
:103440000010024000200240042808D14FF0E02183
:10345000096941F004014FF0E022116107E04FF0EB
:10346000E021096921F004014FF0E0221161704769
:1034700010B505480078012805D1FEF787FDFFF754
:10348000C5FAFEF795FD10BD6200002010B5134887
:10349000006840F001001149086008464068104982
:1034A00008400E494860084600680E4908400B492C
:1034B00008600846006820F48020086008464068DC
:1034C00020F4FE0048604FF41F008860FFF747FFBC
:1034D0004FF000600449086010BD00000010024079
:1034E0000000FFF8FFFFF6FE08ED00E010B5012137
:1034F000084800F062F860B10748008840F40040D6
:10350000054908800121034800F048F8002000F038
:1035100031F810BD000800401A0000207FB50546B4
:103520000C4601210420FFF76FFEADF80450ADF802
:1035300000400020ADF80600ADF8020069460C48D6
:1035400000F058F801221146094800F047F81E2003
:103550008DF80C0001208DF80D0002208DF80E0072
:1035600001208DF80F0003A8FEF7B6FC7FBD000018
:103570000008004010B5044644B10021064800F0A0
:1035800036F80121044800F00CF803E0002102485D
:1035900000F007F810BD000000080040CA43028296
:1035A000704721B1028842F00102028004E00288E3
:1035B0004FF6FE731A400280704730B50246002075
:1035C00000230024158A05EA0103958905EA010410
:1035D00013B10CB1012000E0002030BD1AB1838985
:1035E0000B43838102E083898B438381704781840D
:1035F00070470000002202881D4B98420ED01D4BE0
:1036000098420BD0B0F1804F08D01B4B984205D0A8
:103610001A4B984202D01A4B984204D14FF68F733E
:103620001A404B881A43174B984207D0164B9842C2
:1036300004D04FF6FF431A40CB881A4302808B8890
:1036400083850B8803850A4B98420BD0094B98421F
:1036500008D00E4B984205D00D4B984202D00D4B2E
:10366000984201D10B7A03860123838270470000C0
:10367000002C0140003401400004004000080040DC
:10368000000C0040001000400014004000400140C9
:10369000004401400048014070B58CB006460C461D
:1036A000154601210846FFF79FFD3046FEF790FAC8
:1036B0000194029510200390002004900590802032
:1036C000069000200790089009904FF480500A90CF
:1036D00000200B9001A93046FEF724FB0CB070BD12
:1036E00070B504460D4600212046FEF764FA2946CF
:1036F0002046FEF735FB01212046FEF75CFA70BD3F
:1037000010B5FEF743FC40F225511E4800F048F981
:1037100010B31C4800F000FAC4B21B48008800F443
:103720000040C8B91848008800F4804060B10A2CF5
:1037300003D000201449088020E01348008840F49A
:1037400000401149088019E00D2C06D10E48008870
:1037500040F480400C49088010E00B480088C0F31A
:103760000D000A490C5408480088401C064908808E
:1037700008460088C72801DD00200880FEF718FCF5
:1037800010BD0000003801402400002088110020F6
:1037900010B540F22551134800F002F908B3114862
:1037A00000F0BAF9C4B210480088B0F5806F12DAA0
:1037B00000210E48FFF71BFF0B48008810B90120BD
:1037C000FFF7D8FE084801880088401C064A108090
:1037D0000748445405E00448008840F4004002498A
:1037E000088010BD004400401A000020000800407E
:1037F000880D002010B586B0044601210420FFF793
:1038000023FD01214804FFF7FFFC2E4800F07AF861
:103810000420ADF8100003208DF8120018208DF858
:10382000130004A92848FEF79EFA0820ADF81000FE
:1038300004208DF8130004A92348FEF794FA00949D
:103840000020ADF80400ADF80600ADF80800ADF8B2
:103850000C000C20ADF80A0069461A4800F0F0F898
:1038600001228021174800F043F8184A1549091D24
:103870001748FFF711FF0121124800F02DF801222F
:1038800040F225510F4800F0B5F826208DF81400BD
:1038900002208DF8150003208DF8160001208DF808
:1038A000170005A8FEF718FB41F61F4140F2E7306C
:1038B000FFF734FE002007490880FFF75BFE06B0E3
:1038C00010BD0000004400400008014088090020AD
:1038D000800002401A00002021B1828942F4005287
:1038E000828104E082894DF6FF731A40828170471D
:1038F0001AB1838A0B43838202E0838A8B438382DB
:103900007047000010B504462048844209D10121C7
:103910008803FFF7A9FC00214FF48040FFF7A4FCC7
:1039200032E01B48844209D101214804FFF77CFCA6
:1039300000214FF40030FFF777FC25E01548844262
:1039400009D101218804FFF76FFC00214FF480208A
:10395000FFF76AFC18E01048844209D10121C8042D
:10396000FFF762FC00214FF40020FFF75DFC0BE045
:103970000A48844208D101210805FFF755FC0021BF
:103980004FF48010FFF750FC10BD000000380140DC
:103990000044004000480040004C004000500040FF
:1039A00070B50246002400230025002040F66A1668
:1039B000B14200D100BFC1F3421501F01F0301263F
:1039C00006FA03F3012D02D19689334006E0022D59
:1039D00002D1168A334001E0968A33400C12012648
:1039E00006FA04F41688344013B10CB1012000E04B
:1039F000002070BDF0B503460024002600250020FD
:103A000040F66A17B94200D100BF1846C1F342140C
:103A100001F01F06012707FA06F5012C01D10C3031
:103A200004E0022C01D1103000E014301AB1076814
:103A30002F43076002E00768AF430760F0BD000056
:103A40002DE9F04786B005460E460024A24600BF89
:103A5000A1460027B08900B100BF2F462C8A4CF642
:103A6000FF700440F08804432C82AC894EF6F310BA
:103A70000440B08831890843718908430443AC810C
:103A8000AC8A4FF6FF400440B0890443AC8201A8E1
:103A9000FFF7FAFB1F48874202D1DDF810A001E0D2
:103AA000DDF80CA0A88900F4004040B10AEBCA0080
:103AB00000EB0A1031684900B0FBF1F807E00AEBAF
:103AC000CA0000EB0A1031688900B0FBF1F86420ED
:103AD000B8FBF0F004012009642101FB1089A889DA
:103AE00000F4004040B1322000EBC900B0FBF1F01F
:103AF00000F00700044308E0322000EB09106421C5
:103B0000B0FBF1F000F00F0004432C8106B0BDE8DB
:103B1000F08700000038014001468888C0F30800A3
:103B2000704700BFFEE7490050EAC12018BF0420DB
:103B30004A0D18BF40F0010040F2FF72B2EB515F36
:103B400008BF40F00200012808BF05207047303848
:103B50000A2801D20120704700207047014600BFAB
:103B60007047000010B56FF00400FFF76DFC1048BF
:103B700000681049B0FBF1F00F4908700C4800686C
:103B80000C49B0FBF1F441F28830444305200B4965
:103B900008804FF0E020006940F002004FF0E02183
:103BA000086108464461006940F00100086110BDE9
:103BB0000000002000127A001C0000201E000020DF
:103BC00070B504460F480078A0B10F48007888B956
:103BD0000E480088844206DB0C48008894FBF0F510
:103BE000284600F01DF80948008894FBF0F100FB1E
:103BF000114084B24FF47A7104FB01F000F016F822
:103C000070BD000062000020550000201E00002052
:103C100010B5FEF721FC10BD10B5FEF73DFC10BD40
:103C200010B504462046FEF785FE10BD2DE9F0478D
:103C3000074600264FF0E020D0F814901148007895
:103C400007FB00F800BFFFF7E3FF4FF0E0208569B6
:103C500011E04FF0E0208469AC420CD0AC4202D2BB
:103C6000281B064403E0A9EB04002844064425462B
:103C7000464500D300E0ECE700BFFFF7CDFFBDE80D
:103C8000F08700001C00002000BF054A128802F0E7
:103C90004002002AF9D0C2B2014B1B1D1A807047A6
:103CA0000038014000BF07480068C0430649C1F81A
:103CB00094014FF4FA73002211461046FEF776FE87
:103CC000F1E70000948121420080214208B500BF45
:103CD0006A46002113480068FEF7FCF91248008884
:103CE00000F4004068B100200F490988C1F30E01BB
:103CF0000E4A505411460EA0FCF74CFB00200A4916
:103D000008800D480068C0430C49C1F8940105487B
:103D10000068FEF7FBFA0A23002211461046FEF760
:103D200045FED5E7140000201A000020880D002071
:103D300025730D0A00000000940123420000234275
:103D400010B5FFF70FFF4FF4A060FEF7FDF84FF43A
:103D5000E13000F01BFD4FF4E130FFF74BFDFEF7C3
:103D600091F8FEF7FBF80A23044A00210448FEF705
:103D70000FFCFEF7C1FB002010BD000080010020F9
:103D8000D146000870B5044600250B48008800F4B1
:103D9000004078B1002008490988C1F30E01074AA4
:103DA0005054114606A0FCF7F5FA21460348FCF7EB
:103DB0004AFC0546284670BD1A000020880D0020E8
:103DC00025730D0A000000002DE9F04F8FB08246E8
:103DD0008B4616461F46282105A8FCF7ABFC4FF082
:103DE00000096420049000200390524656A105A8C3
:103DF000FCF7DCFA00BF642258A105A800F092FB92
:103E00000028F8D15A4656A105A8FCF7CFFA00BF02
:103E1000642252A105A800F085FB0028F8D100BF5C
:103E20004FF47A724DA153A000F07CFB0028F7D12B
:103E30001EB117B14FF0010801E04FF00008B8F1D2
:103E4000000F25D14FA105A8FCF7B0FA00BF6422EE
:103E500042A105A800F066FB0028F8D14D49088072
:103E60000FE00A20FFF7ACFE4A48008800F400404B
:103E700038B149A0FFF786FF8146002045490880F8
:103E800005E00498401EC0B204900028E9D157E034
:103E90003046FCF7CBFB04463846FCF7C7FB05462B
:103EA00000BFC820FFF78CFE00BF4FF47A722BA131
:103EB00030A000F037FB0028F7D12B46224639A16D
:103EC00005A8FCF773FA00BF642224A105A800F03E
:103ED00029FB0028F8D12C442E49088025E00A202F
:103EE000FFF76EFE2B48008800F40040E8B12AA0DE
:103EF000FFF748FF8146039860B930A13348FCF7CB
:103F0000A2FB33A10190FCF79EFB401C0290FCF742
:103F10008DFB039000201F490880B9F1000F03D0EA
:103F200049462C48FCF7A1FB05E00498401EC0B2AE
:103F300004900028D3D100BF0398401EA042B0D8FF
:103F400048460FB0BDE8F08F41542B4854545050B0
:103F50004152413D75726C2C257300004F4B00009F
:103F600041542B48545450504152413D706F72742B
:103F70002C25730041542B485454505345545550EC
:103F80000000000041542B48545450414354494FC1
:103F90004E3D30001A0000202B48545450524543E7
:103FA000563A000041542B48545450414354494F11
:103FB0004E3D302C25642C2564000000436F6E7448
:103FC000656E742D52616E67653A0000880D0020A1
:103FD0002F00000084050020F0B58BB005460E468A
:103FE000282101A8FCF7A6FB002464272A4625A166
:103FF00001A8FCF7DBF900BF642227A101A800F0AB
:1040000091FA0028F8D1324624A101A8FCF7CEF994
:1040100000BF642220A101A800F084FA0028F8D192
:1040200000BF4FF47A721CA121A000F07BFA002897
:10403000F7D100BF642218A121A000F073FA002874
:10404000F8D12349088014E00A20FFF7B9FD204881
:10405000008800F4004060B11EA0FFF793FE044604
:1040600000201B4908801CB121461D48FCF7FDFAC1
:1040700003E0781EC0B20700E6D100BF20460BB0B7
:10408000F0BD000041542B48545450504152413D22
:1040900075726C2C257300004F4B000041542B4867
:1040A000545450504152413D706F72742C2573002E
:1040B00041542B485454505345545550000000006F
:1040C00041542B48545450414354494F4E3D3100C4
:1040D0001A0000202B48545450524543563A0000D1
:1040E000840500202DE9F041002500230A2219460D
:1040F0001846FEF75BFC6422ACA1ADA000F012FAFA
:1041000090B105240DE06422A8A1A9A000F00AFA4C
:1041100000B908E0012C02D10120BDE8F081601E49
:10412000C4B2002CEFDC00BF6422A0A1A1A000F06B
:10413000F9F988B105240CE064229CA19DA000F04F
:10414000F1F900B907E0012C01D10120E5E7601E7B
:10415000C4B2002CF0DC00BF642294A197A000F050
:10416000E1F988B105240CE0642290A193A000F04D
:10417000D9F900B907E0012C01D10120CDE7601E7B
:10418000C4B2002CF0DC00BF642288A18DA000F036
:10419000C9F988B105240CE0642284A189A000F04B
:1041A000C1F900B907E0012C01D10120B5E7601E7B
:1041B000C4B2002CF0DC00BF642284A185A000F012
:1041C000B1F988B105240CE0642280A181A000F03F
:1041D000A9F900B907E0012C01D101209DE7601E7B
:1041E000C4B2002CF0DC00BF642270A17CA000F0FF
:1041F00099F988B105240CE064226CA178A000F044
:1042000091F900B907E0012C01D1012085E7601E7A
:10421000C4B2002CF0DC00BF05241EE0642272A1B1
:1042200073A000F07FF97448008800F40040A0B14A
:104230006DA17248FCF707FA07466CA1FCF703FA78
:10424000461C3046FCF7F2F9C5B200206A490880E6
:10425000002D02DD1F2D00DC04E02000A4F101018F
:10426000CCB2DBD100BF002C01DC012055E7642279
:104270004EA163A000F056F988B105240CE0642239
:104280004AA15FA000F04EF900B907E0012C01D16E
:10429000012042E7601EC4B2002CF0DC00BF6422A3
:1042A0005AA15DA000F03EF9E8B164225DA15AA0D8
:1042B00000F038F9B8B1052412E0642253A156A0E9
:1042C00000F030F930B1642256A153A000F02AF971
:1042D00000B107E0012C01D101201EE7601EC4B22D
:1042E000002CEADC00BF642230A151A000F01AF9D2
:1042F00088B105240CE064222CA14DA000F012F935
:1043000000B907E0012C01D1012006E7601EC4B20C
:10431000002CF0DC00BF642248A14BA000F002F9A1
:1043200088B105240CE0642244A147A000F0FAF80B
:1043300000B907E0012C01D10120EEE6601EC4B2F5
:10434000002CF0DC00BF642218A142A000F0EAF8C3
:1043500088B105240CE0642214A13EA000F0E2F82C
:1043600000B907E0012C01D10120D6E6601EC4B2DD
:10437000002CF0DC00BF64220CA13DA000F0D2F8BC
:1043800088B105240CE0642208A139A000F0CAF825
:1043900000B907E0012C01D10120BEE6601EC4B2C5
:1043A000002CF0DC00BF0020B7E600004F4B0000FF
:1043B00041540000415445300000000041542B435B
:1043C00047534E0041542B43474D52005245414400
:1043D0005900000041542B4350494E3F000000005B
:1043E00041542B43494D49002B4353513A0000009F
:1043F00041542B43535100001A000020880D002027
:1044000041542B435245473D320000002B43524557
:10441000473A20322C31000041542B435245473F4C
:10442000000000002B435245473A20322C35000053
:1044300041542B435245473D300000002B43474138
:1044400054543A203100000041542B434741545406
:104450003F00000041542B434744434F4E543D31ED
:104460002C224950222C22434D4E4554220000005C
:1044700041542B5847415554483D312C312C22672B
:10448000736D222C223132333422000010B56422A5
:104490001AA11BA000F046F890B103240DE04FF4E0
:1044A0007A7216A116A000F03DF800B907E0012CC1
:1044B00001D1012010BD601EC4B2002CEFDC00BF92
:1044C000642212A114A000F02DF8A0B11E240DE06A
:1044D0004FF47A720DA110A000F024F800B907E0A3
:1044E000012C01D10120E5E7601EC4B2002CEFDCF5
:1044F00000BF0020DEE70020DCE700004F4B00009B
:1045000041542B584949433D310000002B5849493B
:10451000433A20202020310041542B584949433F41
:10452000000000002DE9F04106460D461446002724
:10453000002013490880314612A000F007F93146E7
:1045400010A0FBF727FFC5B1BCB10FE00A20FFF7B1
:1045500037FB0B48008800F4004038B12846FFF7CD
:1045600011FC00B106E0002005490880601E80B201
:104570000400EBD100BF04B901273846BDE8F08143
:104580001A00002025730D0A0000000000BF3B4800
:10459000008800F40040002869D038480088C0F343
:1045A0000D0400203649085536A000F0CFF8002051
:1045B0003249088035A13248FCF7E4F860B9344A42
:1045C000002134480068FDF785FDFFF78BFD314879
:1045D0000068FDF79BFE46E02FA12948FCF7D2F8C2
:1045E00060B92B4A00212B480068FDF773FDFFF7E7
:1045F0004DFF28480068FDF789FE34E027A12048D8
:10460000FCF7C0F8B0B9224A002122480068FDF743
:1046100061FD23A324A225A125A0FFF7D5FB054614
:104620001DB1274927A0FBF7B5FE1A480068FDF722
:104630006DFE18E025A11248FCF7A4F898B9144AB9
:10464000002114480068FDF745FD18A118A0FFF7E8
:10465000C3FC05461DB11A491AA0FBF79BFE0D4885
:104660000068FDF753FE21460548FCF741F80A2390
:10467000002211461046FEF799F988E72400002031
:104680008811002025730D0A000000004B30000047
:1046900018000020140000204B3100004B320000B5
:1046A00031303234000000003000000038300000AB
:1046B0007777772E62616964752E636F6D000000F5
:1046C000840500200D0A25730D0A00004B330000FD
:1046D00070B50446002500BFFDF732FFFBF7ECFD87
:1046E00005460923104A00211048FDF751FF082311
:1046F0000F4A00210F48FDF74BFF06230E4A002109
:104700000E48FDF745FF0E490978491EC8B20D490C
:10471000FDF796FC0C4908600A20FEF7B5F828461C
:10472000FBF7CEFD70BD000080020020A53C000814
:1047300080030020CD3C0008800500208D45000846
:104740005800002018000020140000200FB438B5D5
:1047500005A800900B48009A0499FBF709FE002079
:10476000009000BF0848FDF7D9FA0028FAD10548A3
:10477000FBF79FFFC4B221460348FEF7B1FF38BCE8
:104780005DF814FB880900208000024010B586B057
:104790000446012144F20400FEF756FD4FF4007078
:1047A000ADF8140003208DF8160018208DF81700BE
:1047B00005A91C48FDF7D7FA4FF48060ADF8140046
:1047C00004208DF8170005A91648FDF7CCFA25201E
:1047D0008DF8000003208DF801008DF80200012003
:1047E0008DF803006846FDF777FB01940020ADF8D3
:1047F0000800ADF80A00ADF80C00ADF810000C2070
:10480000ADF80E0001A90848FFF71AF9012240F29D
:1048100025510548FFF7EEF801210348FFF75CF842
:1048200006B010BD000801400038014010B5002955
:104830000AD00878002807D005487844FBF7A2FF83
:10484000002801D0002010BD0248784410BD0000AF
:10485000460200003E02000010B500290AD0087888
:10486000002807D005487844FBF78CFF002801D0CA
:10487000002010BD0248784410BD00002A0300004B
:1048800022030000FCF730BB000001000200010021
:104890000300010002000100040001000200010009
:1048A00003000100020001000500010002000100F8
:1048B00003000100020001000400010002000100E9
:1048C00003000100020001000600010002000100D7
:1048D00003000100020001000400010002000100C9
:1048E00003000100020001000500010002000100B8
:1048F00003000100020001000400010002000100A9
:104900000300010002000100070001000200010095
:104910000300010002000100040001000200010088
:104920000300010002000100050001000200010077
:104930000300010002000100040001000200010068
:104940000300010002000100060001000200010056
:104950000300010002000100040001000200010048
:104960000300010002000100050001000200010037
:104970000300010002000100040001000200010028
:104980000300010002000100040000080000000014
:104990000000000200010000100000000000000004
:1049A0000000000030313233343536373839414277
:1049B0004344454640305800303132333435363781
:1049C00038396162636465664030780002400000F7
:1049D000000000A00000000005400000000000C82A
:1049E000000000000C4000000000409C000000009F
:1049F000194000000020BCBE000000003440000050
:104A0000BFC91B8E00000004B5400000504BCFD042
:104A10006607E2CF010000006C4100003E8251AA0F
:104A2000DFEEA73401000000D9420000DCB5A0E2AF
:104A30003A301F97FFFFFFFFB4450000FD25A0C8D7
:104A4000E9A3C14FFFFFFFFFFF3F00000000008010
:104A500000000000FF3F0000000000800000000098
:104A6000AC4B000800000020840000006C0100082E
:104A7000304C000884000020AC22000088010008AF
:104A80001001000043000000F8FFFFFF004040401D
:104A90004040404040404141414141404040404011
:104AA00040404040404040404040404040050202BD
:104AB000020202020202020202020202022020207C
:104AC00020202020202020020202020202029090D8
:104AD00090909090101010101010101010101010D6
:104AE000101010101010101002020202020288882A
:104AF0008888888808080808080808080808080836
:104B0000080808080808080802020202400000001D
:104B10000000000000000000000000000000000095
:104B20000000000000000000000000000000000085
:104B30000000000000000000000000000000000075
:104B40000000000000000000000000000000000065
:104B50000000000000000000000000000000000055
:104B60000000000000000000000000000000000045
:104B70000000000000000000000000000000000035
:104B80000000000000000000000000000000000025
:104B90001C00000043000000F8FFFFFF0C000000B5
:104BA0000E0000000F0000002E00000000A24A04CA
:104BB00000000000000000000102030406070809CD
:104BC00000000000000000000000000000000000E5
:104BD00000000000000001020304010203040607B4
:104BE00008090204060800000000000000000000A0
:104BF00000000000000000000000000000000000B5
:104C000000000000000000000000000000000000A4
:104C10000000000000000000000000000000000094
:104C20000000000000000000000000000000000084
:040000050800027974
:00000001FF
