:020000040800F2
:1000000018200020BD130008ED030008EF030008CE
:10001000F3030008F7030008FB03000800000000DA
:10002000000000000000000000000000FF030008C6
:100030000104000800000000030400080504000893
:10004000D7130008D7130008D7130008D7130008E8
:10005000D7130008D7130008D7130008D7130008D8
:10006000D7130008D7130008D7130008D7130008C8
:10007000D7130008D7130008D7130008D7130008B8
:10008000D7130008D7130008D7130008D7130008A8
:10009000D7130008D7130008D7130008D713000898
:1000A000D7130008D7130008D7130008D713000888
:1000B000D71300083B100008CD100008D713000824
:1000C000D7130008D7130008D7130008D713000868
:1000D000D71300088B120008A7130008D7130008D5
:1000E000D7130008D7130008D7130008D713000848
:1000F000D7130008D7130008D7130008D713000838
:10010000D7130008D7130008D7130008D713000827
:10011000D7130008D7130008D7130008D713000817
:10012000D7130008D7130008D7130008D713000807
:1001300000F002F800F0B0F80AA090E8000C824449
:100140008344AAF10107DA4501D100F0A5F8AFF226
:10015000090EBAE80F0013F0010F18BFFB1A43F0A5
:100160000103184748460000684600000A444FF063
:10017000000C10F8013B13F0070408BF10F8014B06
:100180001D1108BF10F8015B641E05D010F8016B4B
:10019000641E01F8016BF9D113F0080F1EBF10F8AF
:1001A000014BAD1C0C1B09D16D1E58BF01F801CBD2
:1001B000FAD505E014F8016B01F8016B6D1EF9D555
:1001C0009142D6D37047000000230024002500266A
:1001D000103A28BF78C1FBD8520728BF30C148BFAA
:1001E0000B6070476E2903F0C780702903F03182DD
:1001F000662904F06D82652904F06A82672904F09B
:1002000067826129AFF3008003681B0A28BF41F0B1
:100210008001692902F05286642902F04F8675290F
:1002200002F04C866F2903F0BF81782903F0FD812D
:10023000E92903F05981E42903F05681F52903F0F7
:100240005381EF2903F0BC81F82903F0FC81036896
:10025000DB0928BF41F08001632903F0C8807329BE
:1002600003F0CD80E32903F0C784F32903F0CC84A5
:10027000002070471FB503F063FD0400002000213B
:1002800004F0FAF9401C60600020002104F00AFA32
:10029000E0601FBD10B510BD03F02DFD1146FFF746
:1002A000E9FF00F009F803F00BFE03B4FFF7F2FFDB
:1002B00003BC00F08FFF000000F022FF4FF4A060AD
:1002C00001F09CF84FF4E13000F093FF4FF4E1307F
:1002D00001F018F841F61F41092000F0CAFE00F0B5
:1002E00083F95AE000F073FB00F0ADFD00F078FCFC
:1002F0002A48008800F40040002846D0274800889B
:10030000C0F30D0400202649085526A000F092F9FC
:1003100000202249088025A1214802F053FF10B98E
:1003200000F01DFA2DE022A11D4802F04BFF10B98C
:1003300000F03FFA25E01FA1194802F043FF20B961
:100340001DA11FA000F042FA1BE022A1144802F0F8
:1003500039FF20B920A119A000F052FA11E01FA125
:100360000F4802F02FFF10B900F064FA09E01CA159
:100370000B4802F027FF20B902221AA1012000F049
:1003800066FA2146064802F0FBFE1748006808B9E5
:10039000012000E0002014490860A3E72C0C002095
:1003A000EC18002025730D0A000000004B300000FF
:1003B0004B3100004B320000313830363000000045
:1003C00076312D746D6C2E6C756C756361692E635E
:1003D0006E0000004B330000353132004B3400001A
:1003E0004B3500003132000094812142704700BF3C
:1003F000FEE700BFFEE700BFFEE700BFFEE7704775
:1004000070477047704700000CB5002001900090C5
:100410006C48006840F480306A49086000BF694851
:10042000006800F4003000900198401C0190009892
:1004300018B90198B0F5A06FF1D16248006800F4D6
:10044000003010B10120009001E0002000900098E1
:10045000012843D15C48006840F010005A49086008
:100460000846006820F0030008600846006840F075
:100470000200086053484068524948600846406896
:1004800048600846406840F480604860084640681C
:1004900020F47C1048600846406840F4E81048604A
:1004A0000846006840F08070086000BF454800685A
:1004B00000F000700028F9D04248406820F00300A6
:1004C000404948600846406840F00200486000BF6C
:1004D0003C48406800F00C000828F9D10CBD10B56C
:1004E000FFF792FF10BD10B53648006840F00100DC
:1004F000344908600846406834490840314948603A
:1005000008460068324908402E49086008460068DD
:1005100020F4802008600846406820F4FE0048600F
:100520004FF41F008860FFF7DAFF4FF000602949A1
:10053000086010BD10B5002100200022214B5B682F
:1005400003F00C0121B1042906D0082928D107E0C5
:10055000214B224C236027E01F4B204C236023E0DB
:10056000184B5B6803F47010164B5B6803F4803221
:10057000022303EB904022B9194B4343174C2360ED
:100580000DE0104B5B6803F4003323B1144B43437D
:10059000124C236003E0104B4343104C236003E0F4
:1005A0000D4B0E4C236000BF00BF064B5B68C3F3CE
:1005B00003130C4CE15C094B1B68CB40074C2360D8
:1005C00010BD000000100240002002400000FFF8B3
:1005D000FFFFF6FE08ED00E000127A0000000020A8
:1005E00000093D000400002008B50121482001F069
:1005F0008FFA2020ADF8000010208DF803000320B2
:100600008DF802006946094800F0C6FF202107481E
:1006100001F06FF82020ADF800006946044800F0B2
:10062000BBFF2021024801F064F808BD000C014026
:10063000001801400FB438B505A80090FE48009A94
:10064000049902F0DDFB00200090FB4802F079FDE8
:1006500085B200240DE000BF4021F84802F074FB91
:100660000028F9D0F448015DF44802F0FFFA601C5C
:1006700084B2AC42EFDB38BC5DF814FB70B50546C4
:100680000E46EFA002F0CEFB002410E0295DEB48FF
:1006900002F0ECFA00BF4021E84802F055FB0028C8
:1006A000F9D0295DEBA002F0BDFB601C84B2B4421E
:1006B000ECDB70BD70B504460D460020E649A1F89C
:1006C0000004E648844204D12178601CFFF7D6FF7D
:1006D00007E02146E2A0FFF7ADFF2146E0A002F0CF
:1006E000A1FB70BD70B504460025DFA1DA4802F019
:1006F00069FD20B1D6A1D84802F064FD08B90020F8
:1007000070BDD549D6A002F08DFB2146D24802F03B
:10071000E2FC05462846F3E730B50346D34C94F88F
:100720002B4004F001041CB9D04C94F8294004B1CA
:1007300030BD002008E00C5CCC4D2C54155CCB4C3B
:1007400014342554441CE0B29842F4DB0324C74D12
:1007500085F82840002485F82A4000BFE8E710B556
:1007600088B0C3A2D2E901311068D268CDE9053161
:1007700007920490C2A3D3E90020D3E9021301AC8D
:100780000BC4009200240BE0C1A0FFF753FFC0A0F0
:1007900002F048FB4FF47A7000F0EFFC601CC4B22A
:1007A000052CF1DB6A4604A90E20FFF7B5FF08B05F
:1007B00010BD0CB5B8A000680190B8A0006800900A
:1007C0006A4601A90320FFF7A7FF0CBD7CB50446CC
:1007D0000D46B3A000680190B2A0006800902246C8
:1007E000B1A1B64802F02AFB2A46B5A1B348503061
:1007F00002F024FB6A4601A90320FFF78DFF7CBDB0
:100800007CB504460D46B3A000680190A5A0006821
:1008100000904CB145B114208DF805002B462246BE
:10082000ADA1B34802F00AFB6A4601A90320FFF715
:1008300073FF7CBD0CB5AFA00068019099A0006863
:1008400000906A4601A90320FFF766FF0CBD2DE961
:10085000FC4105460F461646A7A000680190A7A0D8
:1008600000680090042D00DD01252B463246A4A12E
:10087000A94802F0E3FA79480670002404E0395DE3
:10088000764A601C1154C4B2B442F8DB6A4601A92E
:100890000320FFF741FF7148A0490860002048602D
:1008A000BDE8FC817CB506460C4693A0006801902B
:1008B00092A000680090224699A1974802F0BEFAE3
:1008C00066480470002504E0715D644A681C115498
:1008D000C5B2A542F8DB6A4601A90320FFF71CFF59
:1008E0005E488E490860002048607CBD0CB591A030
:1008F0000068019065A0006800906A4601A9022086
:10090000FFF70AFF0CBD10B5584890F8290028B130
:10091000824908688849FFF7CDFE16E0534A92F8ED
:100920002A301432D25C02EB8202834B283B03EB69
:10093000C2014E4A92F82A204C4B9A5C02EB82028A
:100940007E4B03EB0210FFF7B5FE484890F82B00F2
:1009500020F00100401C454981F82B0091F82A1035
:10096000424A515C01EB8101744A02EB011074A10F
:1009700002F0B1FB48B13D4890F82B0020F0E000B8
:1009800040303A4981F82B0020E0384991F82A108C
:10099000364A515C01EB8101684A02EB01106AA101
:1009A00002F099FB48B1314890F82B0020F0E000AC
:1009B00060302E4981F82B0008E02C4890F82B007D
:1009C00020F0E0002030294981F82B0010BD10B53F
:1009D000264890F82B0000F0010000282AD1234877
:1009E00090F82B00C0F34000002824D01F4890F856
:1009F0002B00C0F38000D8B11C4890F8290088B9BA
:100A00001A4890F82A101430405C082803D10120BD
:100A1000164981F82900154890F82A00401C13490E
:100A200081F82A00114890F8290010B1012093E0C4
:100A30009BE095E0D3E0BEE0EC14002000440040D1
:100A4000B7A2CBCDB5C4CAFDBEDDCEAAA3BA0D0AEE
:100A50000000000025630000440C00209C100020D2
:100A600025730D0A000000000D0A0000461000204A
:100A70000102030405060708090A0B0C0D0000001B
:100A8000010101010201030104010501010000004F
:100A900041540D0A000000000E0F00000106000086
:100AA000101100000101000041542B4854545050D3
:100AB0004152413D75726C2C2573000014050020D5
:100AC00041542B48545450504152413D706F727400
:100AD0002C2573001213000041542B4854545041EC
:100AE0004354494F4E3D302C25732C257300000094
:100AF0005406002012150000121900000108000021
:100B000041542B48545450414354494F4E3D322C8C
:100B100025642C2564000000E407002074100020E8
:100B200041542B48545450414354494F4E3D393958
:100B30002C2564001E000000EC0900201400002099
:100B400041542B435351000041542B4854545041BD
:100B50004354494F4E3D0000F74981F828000FE00B
:100B60000320F54981F828000AE0F34890F82800AE
:100B7000401EF14981F828004FF47A7000F0FDFA28
:100B8000ED4890F82B0020F0E000EB4981F82B00B5
:100B9000084690F82B0020F0020081F82B00084650
:100BA00090F82B0020F0080081F82B000020E3498A
:100BB000A1F8000413E0E04890F82A00DE49085C40
:100BC00018B9084690F8290048B1DB4890F8280089
:100BD00018B90120DA49087001E0FFF794FE10BD52
:100BE0002DE9F04100240025D448B0F80004C00BE2
:100BF000002871D0D04890F82B00C0F3C00038B165
:100C0000CD4890F82B0020F00800CB4981F82B004C
:100C10000020CA49B1F80014C1F30E01C74A50546C
:100C2000C54890F8290080B31146AFF2CC1002F00D
:100C3000F9F8C449C14802F04EFA20B1C149BF4891
:100C400002F049FA0446002C1ED0BC49BE4802F00E
:100C500054FA0020B84981F82900084690F82B0082
:100C600020F00400001D81F82B00084690F82B00AE
:100C700020F00200801C81F82B00084690F82B0021
:100C800020F0010081F82B00B7E0FFE7AA4890F8B8
:100C90002B000121B1EB501F38D1A74991F82A2030
:100CA0001431895C01EB8101A84A02EBC100FFF716
:100CB00019FD04468CB1A04890F82B0020F00400E8
:100CC000001D9D4981F82B00084690F82B0020F06C
:100CD000E00081F82B0008E094E0974890F82B00A2
:100CE00020F00400944981F82B00934890F82B00E1
:100CF00020F00200801C904981F82B00084690F8F3
:100D00002B0020F0010081F82B0076E08A4890F853
:100D10002B000221B1EB501F37D18DA1874802F083
:100D2000DAF907468BA102F0D6F9461C304602F0EC
:100D3000C5F905468149AFF2D82002F073F85DB1DC
:100D40001F2D09D87C4890F82B0020F00400001DCE
:100D5000794981F82B0007E0774890F82B0020F0C4
:100D60000400754981F82B00734890F82B0020F09F
:100D70000200801C704981F82B00084690F82B0077
:100D800020F0010081F82B0037E06B4890F82B0031
:100D90000321B1EB501F20D16A48FFF7A3FC0446A2
:100DA00014B16DA002F03EF8634890F82B0020F0DB
:100DB0000400001D604981F82B00084690F82B00C4
:100DC00020F00200801C81F82B00084690F82B00D0
:100DD00020F0010081F82B000FE000205749B1F806
:100DE0000014C1F30E01554A505411465EA002F0A2
:100DF00019F800205149A1F8000400204F49A1F83A
:100E000000041EE04C4890F82B0000F0010018B9D7
:100E1000494890F82900A0B1474890F82B00C0F34A
:100E2000C00070B94648007858B9434890F82B0084
:100E300020F008000830404981F82B0000204D497F
:100E40000880BDE8F08110B53D480078F0B14AA0B7
:100E500001F0E8FF0020384981F82B00032081F8D9
:100E60002800002408E000203349085500213248BA
:100E700014300155601CC4B2142CF4D30020304946
:100E800008702D4981F8290081F82A0010BD10B59D
:100E900040F225513C4801F06DFF28B33A4801F07B
:100EA000E9FEC4B22548B0F80004C0F30E0040F2D9
:100EB000FF31884219DA0020344908701F48B0F821
:100EC000000410B90120324908701C49B1F800141F
:100ED000C1F30E00411C194AB2F8002461F30E025E
:100EE0001649A1F800240C5409E01448B0F8000495
:100EF00020F4004000F500401049A1F8000410BDA6
:100F000023480078B8B121480078401C1F49087078
:100F1000084600780A280ED10848B0F8000420F4EA
:100F2000004000F500400549A1F8000400201749E1
:100F3000087017490870704746100020440C0020C4
:100F4000200C0020DC0A0020EC100020C409002046
:100F50002B4353513A000000BDD3CAD5B5BDCAFDDD
:100F6000BEDDA1A30D0A00005245433A0D0A2573C8
:100F70000D0A00001E0C00200D0AD5FDD4DAD6D8CB
:100F8000C6F40D0A00000000004400401D0C0020C3
:100F90001C0C00200F4890F82B00C0F3C000C0B11B
:100FA0000D480088401C0C4908800846008840F61F
:100FB000B73188420DD10120084908700020064948
:100FC0000880044890F82B0020F00800014981F8BF
:100FD0002B007047461000201E0C0020200C002023
:100FE0007FB505460C460121022000F09EFDADF8BC
:100FF0000850ADF804400020ADF80A00ADF8060036
:1010000001A93A4800F0BCFE01221146374801F020
:101010002EFA1D208DF8000000208DF8010003201D
:101020008DF8020001208DF80300684600F0EBF90E
:1010300001212E4801F000FA7FBD10B501212B4897
:1010400001F0C3FCA0B10121284801F0CFFC2848E1
:1010500090F82B00C0F3C00010B1012025490870A2
:101060002548006808B9012000E0002022490860F6
:1010700010BD7FB505460C460121042000F055FD4A
:10108000ADF80850ADF804400020ADF80A00ADF806
:10109000060001A9194800F073FE01221146174805
:1010A00001F0E5F91E208DF8000001208DF8010007
:1010B00002208DF8020001208DF80300684600F040
:1010C000A2F901210D4801F0B7F97FBD10B501214A
:1010D0000A4801F07AFC38B1FFF75CFFFFF710FF18
:1010E0000121064801F082FC10BD00000004004010
:1010F00046100020200C00209401234200080040EC
:1011000010B56FF0040000F0C8F92E4800682E49B1
:10111000B0FBF1F02D4908700846007800EB400163
:10112000C1EBC0104FF6FF7101EAC00028490880EA
:1011300010BD0146254A12784A434FF0E0235A6118
:1011400000229A611A46126942F001021A6100BF38
:101150004FF0E022106900F001021AB100F4803271
:10116000002AF5D04FF0E022126922F001024FF080
:10117000E0231A6100229A6170470146144A1288DE
:101180004A434FF0E0235A6100229A611A461269DD
:1011900042F001021A6100BF4FF0E022106900F036
:1011A00001021AB100F48032002AF5D04FF0E0229B
:1011B000126922F001024FF0E0231A6100229A61C5
:1011C000704700000000002000127A00220C00206E
:1011D000240C0020014600BF704700BF724A1288ED
:1011E00002F04002002AF9D0C2B26F4B1B1D1A80D8
:1011F000704710B586B00446012144F2040000F0A7
:1012000087FC4FF40070ADF8140003208DF8160031
:1012100018208DF8170005A9644800F0BDF94FF4B7
:101220008060ADF8140004208DF8170005A95F4810
:1012300000F0B2F925208DF8000003208DF80100A0
:101240008DF8020001208DF80300684600F0DBF8FD
:1012500001940020ADF80800ADF80A00ADF80C00CC
:10126000ADF810000C20ADF80E0001A94E4801F0B9
:1012700004FC012240F225514B4801F096FC01216B
:10128000494801F086FC06B010BD10B540F225516A
:10129000454801F06FFD10B3434801F0EBFCC4B2C8
:1012A0004348008800F40040C8B94148008800F471
:1012B000804060B10A2C03D000203D49088020E026
:1012C0003B48008840F400403949088019E00D2C63
:1012D00006D13748008840F480403549088010E046
:1012E00033480088C0F30D0032490C543048008860
:1012F000401C2F49088008460088C72801DD0020CF
:10130000088010BD10B586B004460121042000F00D
:10131000FFFB0121480400F008FC274801F06AFBAC
:101320000420ADF8100003208DF8120018208DF86D
:10133000130004A91D4800F02FF90820ADF8100093
:1013400004208DF8130004A9184800F025F9009432
:101350000020ADF80400ADF80600ADF80800ADF8C7
:101360000C000C20ADF80A006946134801F085FB1B
:101370000121114801F00DFC012240F225510E48D7
:1013800001F013FC26208DF8140002208DF81500C2
:1013900003208DF8160001208DF8170005A800F035
:1013A00032F806B010BD7047003801400008014017
:1013B0002C0C0020EC180020004400400948804715
:1013C00009480047FEE7FEE7FEE7FEE7FEE7FEE727
:1013D000FEE7FEE7FEE7FEE704480549054A064B3F
:1013E00070470000E704000831010008181A0020C7
:1013F00018200020181C0020181C0020314901432F
:10140000314A1160704770B5002100230F22C47863
:1014100004B32D4C246804F4E064C4F5E064210AAC
:10142000C1F10403CA40447804FA03F184781440FB
:1014300021430901254C0678A155047804F01F05C5
:101440000124AC4005786D11AD0005F1E025C5F82B
:10145000004109E0047804F01F050124AC401C4D54
:101460000678761145F8264070BD1A4A0A400243B4
:10147000154B1B1F1A60704739B1134A121D1268B1
:101480000243114B1B1D1A6006E00F4A121D126821
:1014900082430D4B1B1D1A607047042808D14FF082
:1014A000E021096941F004014FF0E022116107E0F9
:1014B0004FF0E021096921F004014FF0E0221161B1
:1014C000704700000000FA050CED00E000E400E0C9
:1014D00080E100E080FFFF1F10B50446CC48844245
:1014E00008D10121042000F02DFB0021042000F090
:1014F00029FB46E0C748844208D10121082000F0BA
:1015000021FB0021082000F01DFB3AE0C248844284
:1015100008D10121102000F015FB0021102000F05F
:1015200011FB2EE0BD48844208D10121202000F0AB
:1015300009FB0021202000F005FB22E0B84884428E
:1015400008D10121402000F0FDFA0021402000F0E8
:10155000F9FA16E0B348844208D10121802000F056
:10156000F1FA0021802000F0EDFA0AE0AE48844252
:1015700007D10121801500F0E5FA0021A01500F047
:10158000E1FA10BD10B50121084600F0DBFA002198
:10159000012000F0D7FA10BD2DE9F04102460025E8
:1015A0000026002000230024002791F803C00CF03F
:1015B0000F0591F803C00CF0100CBCF1000F03D024
:1015C00091F802C04CEA050591F800C0BCF1000F8B
:1015D00031D0146800202BE04FF0010C0CFA00F31E
:1015E000B1F800C00CEA03069E4220D183004FF000
:1015F0000F0C0CFA03F7BC4305FA03FC4CEA040495
:1016000091F803C0BCF1280F06D14FF0010C0CFA81
:1016100000FCC2F814C00AE091F803C0BCF1480F06
:1016200005D14FF0010C0CFA00FCC2F810C0401CB0
:101630000828D1D31460B1F800C0BCF1FF0F34DD2D
:10164000546800202EE000F1080C4FF0010808FA61
:101650000CF3B1F800C00CEA03069E4221D18300CE
:101660004FF00F0C0CFA03F7BC4305FA03FC4CEAED
:10167000040491F803C0BCF1280F05D100F1080C57
:1016800008FA0CF8C2F8148091F803C0BCF1480FB6
:1016900007D100F1080C4FF0010808FA0CF8C2F865
:1016A0001080401C0828CED35460BDE8F0814FF66E
:1016B000FF710180022181700421C17070470246D0
:1016C000002093680B400BB1012000E00020704720
:1016D0000146886880B2704702460020D3680B40FC
:1016E0000BB1012000E0002070470146C86880B2BD
:1016F000704701617047416170470AB1016100E0C4
:1017000041617047C16070474FF480320A43826183
:101710008161826182698269704702460020434B81
:1017200018684FF68073184040EA021008433F4B98
:10173000186070473E49C8617047F0B50A460023FB
:1017400000240021002500F00046B6F1004F02D130
:10175000364EF16901E0354E7168C0F3034583B23E
:1017600000F44016B6F5401F08D121F070612F4EED
:10177000766826F070662D4F7E6012E000F48016C9
:10178000B6F5801F06D1032606FA05F4A14341F001
:10179000706106E0460D360103FA06F6B14341F0EA
:1017A000706122B1460D360103FA06F6314300F0AE
:1017B0000046B6F1004F02D11C4EF16101E01B4E14
:1017C0007160F0BD30B500228B071C0F0F2303FAA8
:1017D00004F2164B08338C1053F824309343134C07
:1017E00008348D1044F8253023468C1053F82430EB
:1017F0008C07240F00FA04F423430C4C08348D109A
:1018000044F8253030BD0A49DC31086070470000DB
:1018100000080140000C014000100140001401408C
:1018200000180140001C0140002001400000014060
:1018300000002042DF48006840F00100DD490860F8
:1018400008464068DC490840DA49486008460068B4
:10185000DA490840D74908600846006820F480202B
:1018600008600846406820F4FE0048604FF41F00FE
:1018700088607047CF49096821F48031CD4A1160F2
:101880001146096821F480211160B0F5803F03D032
:10189000B0F5802F0ED106E0C649096841F48031C9
:1018A000C44A116007E0C349096841F4A021C14A54
:1018B000116000E000BF00BF704710B50146002274
:1018C000002300204A11012A02D1BA4C236806E005
:1018D000022A02D1B74C236A01E0B64C636A01F0D8
:1018E0001F02012494401C400CB1012000E00020A4
:1018F00010BD38B5002000900024002500BF312025
:10190000FFF7DBFF05460098401C00900098B0F5FB
:10191000A06F01D0002DF2D03120FFF7CEFF08B12B
:10192000012400E00024204638BD01460020A14AE1
:10193000106820F0F80040EAC10010607047A0492C
:1019400008607047024600209A4B586820F47C10CB
:1019500042EA01031843974B58607047984908665C
:10196000704701460020934A506820F00300084366
:10197000506070478F48406800F00C007047014687
:1019800000208C4A506820F0F000084350607047F7
:1019900001460020874A506820F4E0600843506008
:1019A000704701460020834A506820F4605040EAA6
:1019B000C1005060704729B17E4A527A02437D4B84
:1019C0005A7204E07B4A527A82437A4B5A727047C9
:1019D0007B49D8310860704701460020754A50683D
:1019E00020F440400843506070470021714A203283
:1019F0001170704A82F82010012802D004280AD100
:101A000004E001216B4A2032117005E00521694A8A
:101A10002032117000E000BF00BF704769490860C4
:101A200070476449096A0143624A11627047654917
:101A300044390860704730B500210022002400239B
:101A40005C4D6D6805F00C0121B1042905D0082911
:101A500023D105E05C4D056022E05B4D05601FE091
:101A6000544D6D6805F47012524D6D6805F4803464
:101A7000022505EB92421CB9544D554305600BE01D
:101A80004C4D6D6805F400351DB1504D5543056052
:101A900002E04D4D5543056002E04B4D056000BF2F
:101AA00000BF444D6D6805F0F0010909484D6B5CBD
:101AB0000568DD4045603F4D6D6805F4E061090A49
:101AC000434D6B5C4568DD4085603A4D6D6805F4BB
:101AD0006051C90A3E4D6B5C4568DD40C560354DBF
:101AE0006D6805F44041890B3A4D6B5CC568B5FBE8
:101AF000F3F5056130BD29B12E4A526902432D4BE1
:101B00005A6104E02B4A526982432A4B5A6170475A
:101B100029B1284A92690243264B9A6104E0254A7A
:101B200092698243234B9A61704729B1214AD26955
:101B30000243204BDA6104E01E4AD26982431D4B06
:101B4000DA61704729B11B4AD2680243194BDA6047
:101B500004E0184AD2688243164BDA60704729B114
:101B6000144A12690243134B1A6104E0114A1269C4
:101B70008243104B1A617047124940390860704720
:101B80000F49C86470470B49C87170470948406ADB
:101B900040F0807007494862704701460020054ABE
:101BA00092680A400AB1012000E000207047014914
:101BB00088727047001002400000FFF8FFFFF6FE39
:101BC000000042428004424200127A0000093D00B7
:101BD0002E0C00203E0C002010B50446FE48844226
:101BE00008D10121C014FFF7ADFF0021E014FFF779
:101BF000A9FFC4E0B4F1804F08D101210846FFF7E6
:101C0000AEFF00210120FFF7AAFFB8E0F3488442AD
:101C100008D101210220FFF7A2FF00210220FFF7D7
:101C20009EFFACE0EE48844208D101210420FFF77A
:101C300096FF00210420FFF792FFA0E0E9488442CC
:101C400008D101210820FFF78AFF00210820FFF7B3
:101C500086FF94E0E448844208D101211020FFF778
:101C60007EFF00211020FFF77AFF88E0DF488442E2
:101C700008D101212020FFF772FF00212020FFF76B
:101C80006EFF7CE0DA48844208D101214014FFF75E
:101C900059FF00216014FFF755FF70E0D5488442DA
:101CA00009D10121C804FFF74DFF00214FF40020A6
:101CB000FFF748FF63E0D048844209D101210805BD
:101CC000FFF740FF00214FF48010FFF73BFF56E085
:101CD000CA48844209D101214805FFF733FF00219A
:101CE0004FF40010FFF72EFF49E0C548844208D1A9
:101CF00001214020FFF733FF00214020FFF72FFF95
:101D00003DE0C048844208D101218020FFF727FF31
:101D100000218020FFF723FF31E0BB48844208D137
:101D200001218015FFF71BFF0021A015FFF717FF0A
:101D300025E0B648844209D101210804FFF702FFDB
:101D400000214FF48030FFF7FDFE18E0B0488442D8
:101D500009D101214804FFF7F5FE00214FF40030BE
:101D6000FFF7F0FE0BE0AB48844208D10121880464
:101D7000FFF7E8FE00214FF48020FFF7E3FE10BDDF
:101D800000220288944B98420ED0994B98420BD077
:101D9000B0F1804F08D0914B984205D0904B9842BB
:101DA00002D0904B984204D14FF68F731A404B8863
:101DB0001A438D4B984207D08C4B984204D04FF673
:101DC000FF431A40CB881A4302808B8883850B8897
:101DD0000385814B98420BD0854B984208D08B4BA2
:101DE000984205D08A4B984202D08A4B984201D142
:101DF0000B7A038601238382704770B5002400228A
:101E00000023058C4FF6FE7635400584028C8388CE
:101E1000048B4FF68F752C40B51E2C400D882C433B
:101E2000751E2A400D892A434D882A436A4DA842CF
:101E30000BD06F4DA84208D0744DA84205D0744D08
:101E4000A84202D0734DA84213D14FF6F7752A402D
:101E50004D892A434FF6FB752A408D882A434FF659
:101E6000FF652B404FF6FF552B408D892B43CD89C5
:101E70002B4383800483CD888586028470BD70B532
:101E8000002400220023058C4FF6EF7635400584B0
:101E9000028C8388048B48F6FF752C404FF6FF4573
:101EA0002C400D884FF6FF7606EA05252C434FF6A9
:101EB000DF752A400D8906EA05152A434D8806EA92
:101EC00005152A43444DA84202D0494DA8421DD1D0
:101ED0004FF67F752A404D894FF6FF7606EA0515C5
:101EE0002A434FF6BF752A408D8806EA05152A4316
:101EF0004FF6FF352B404FF2FF752B408D8906EAD8
:101F000085052B43CD8906EA85052B438380048311
:101F1000CD880587028470BD70B50024002200239F
:101F2000058C4FF6FF6635400584028C8388848BD0
:101F30004FF68F752C404FF6FC752C400D882C43C6
:101F40004FF6FF552A400D894FF6FF7606EA052524
:101F50002A434D8806EA05252A431F4DA84202D090
:101F6000234DA8421DD14FF2FF752A404D894FF6EF
:101F7000FF7606EA05252A434FF6FF352A408D886D
:101F800006EA05252A434EF6FF752B404DF6FF75F0
:101F90002B408D8906EA05152B43CD8906EA0515E8
:101FA0002B4383808483CD888587028470BD70B580
:101FB000002200230024058C4EF6FF763540058470
:101FC000038C8488828B48F6FF752A404FF6FF45C4
:101FD0002A400D8820E00000002C01400004004051
:101FE00000080040000C00400010004000140040B9
:101FF00000340140004C01400050014000540140B9
:1020000000180040001C004000200040004001403B
:1020100000440140004801404FF6FF7606EA0525DE
:102020002A434DF6FF752B400D8906EA05352B43F3
:102030004D8806EA05352B43FA4DA84202D0FA4DE9
:10204000A84208D14BF6FF752C408D894FF6FF76DC
:1020500006EA85152C4384808283CD88A0F8405001
:10206000038470BD828B4FF2FF331A408283828BD0
:102070004FF6FF7303EA01231A4382837047F0B5DA
:102080000C461546002200210026078C4EF6FF7CE8
:1020900007EA0C070784828B018C4FF6FF7707EA6B
:1020A000043640F6FF473A404FF6FF7707EA052728
:1020B0003A434FF6FF7707EA03373A43D94FB8421E
:1020C0000ED0D94FB8420BD0B0F1804F08D0D74FC7
:1020D000B84205D0D64FB84202D0D64FB84206D14A
:1020E0004DF6FF77394046F48057394305E047F60F
:1020F000FF57394044F48057394382830184F0BD4F
:10210000828B4FF6F3731A408283828B0A43828359
:102110007047F0B50C461546002200210026078CBA
:102120004FF6FF6C07EA0C070784828B018C4FF691
:10213000FF7707EA04264FF60C773A404FF6FF7711
:1021400007EA03172F433A43B64FB8420ED0B64FB3
:10215000B8420BD0B0F1804F08D0B44FB84205D090
:10216000B34FB84202D0B34FB84206D14FF6FF5733
:10217000394046F48077394305E04FF2FF57394044
:1021800044F48077394382830184F0BD028B4FF29F
:10219000FF331A400283028B4FF6FF7303EA0123D9
:1021A0001A4302837047F0B50C4615460022002101
:1021B0000026078C4FF6EF7C07EA0C070784028B9A
:1021C000018C4FF6FF7707EA041640F6FF473A40C6
:1021D0004FF6FF7707EA03373A434FF6FF7707EAF0
:1021E00005273A438F4FB8420ED08F4FB8420BD0DD
:1021F000B0F1804F08D08D4FB84205D08C4FB84217
:1022000002D08C4FB84206D14FF6DF77394046F006
:102210001007394305E04FF65F77394044F0100767
:10222000394302830184F0BD028B4FF6F3731A40E9
:102230000283028B0A4302837047F0B50C461546B1
:1022400000220021068C4FF6FE773E400684028B6A
:10225000018C4FF60C7632407E1C06EA03162E43A4
:102260003243704EB0420ED06F4EB0420BD0B0F140
:10227000804F08D06D4EB04205D06D4EB04202D0B6
:102280006C4EB04206D14FF6FD76314044F0010667
:10229000314305E04FF6F576314044F00106314315
:1022A00002830184F0BD70B505460C465D48854249
:1022B0000ED05D4885420BD0B5F1804F08D05B4809
:1022C000854205D05A48854202D05A48854200D1FD
:1022D00000E000BF208850B92389A2886188284681
:1022E000FFF7ABFFE1882846FFF79EFF25E0208837
:1022F00004280AD12389A28861882846FFF753FF62
:10230000E1882846FFF742FF17E0208808280AD115
:102310002389A28861882846FFF7FBFEE1882846CA
:10232000FFF7EEFE09E02389A28861882846FFF7BF
:10233000A6FEE1882846FFF795FE70BD2DE9F04125
:1023400005460C4600260127608808B9022600E0F1
:102350000026A088012801D1022700E0012720885B
:10236000A0B92389A28861882846FFF766FFE18823
:102370002846FFF759FF23893A4631462846FFF79A
:1023800012FFE1882846FFF701FF13E02389A288A6
:1023900061882846FFF707FFE1882846FFF7F6FE29
:1023A00023893A4631462846FFF747FFE188284609
:1023B000FFF73AFFBDE8F0810A884B881A438B8803
:1023C0001A43CB881A430B891A434B891A438B89CA
:1023D0001A43A0F8442070474FF6FF718180002116
:1023E0000180C180418001727047002101804180DD
:1023F0008180C180018141818181C181704700213B
:1024000001804180012181800021C18001817047CC
:102410000021018041808180C180018141818181D1
:1024200070470000002C01400034014000040040CF
:1024300000080040000C004021B1028842F0010277
:10244000028004E002884FF6FE731A400280704753
:1024500031B1B0F8442042F40042A0F8442005E035
:10246000B0F84420C2F30E02A0F8442070471AB11D
:1024700083890B43838102E083898B438381704787
:102480008182704741EA0203A0F8483070471AB1D0
:1024900083890B43838102E083898B438381704767
:1024A00001894FF6F8721140018170470A460021F8
:1024B00001894FF68F73194011430181704730B580
:1024C00004460D4629462046FFF7F0FF208940F0DC
:1024D0000700208130BD2DE9F04104460D46164627
:1024E0001F46602D06D13B46012231462046FFF7AC
:1024F0005AFE05E03B46012231462046FFF79DFE8D
:1025000029462046FFF7D2FF208940F007002081AE
:10251000BDE8F08130B50C4600210189C9B24FF603
:10252000FF7505EA0325154325432943018130BD85
:102530002DE9F04105460E461746984600244346CD
:102540003A4631462846FFF7E5FF2C894FF6F870EA
:10255000044044F007044FF68F70044044F07004C8
:102560002C81BDE8F081F0B504460D4616461F46A5
:102570003B46324629462046FFF7CCFF208940F4EF
:1025800080402081F0BD0185828270470A4600218B
:1025900001884FF68F731940114301807047F0B5E1
:1025A0000C4615461E460021002200230189028B9D
:1025B000038C4FF6F877394021434FF6FC473A40F9
:1025C00040F201173A434FF6DD773B404FF6FF7775
:1025D00007EA06172F433B43018102830384F0BDC2
:1025E0000A460021018B4FF68F7319401143018376
:1025F00070470A460021018B48F6FF7319404FF6D9
:10260000FF7303EA02231943018370470A4600213E
:10261000818B4FF68F7319401143818370470A46AF
:102620000021818B48F6FF7319404FF6FF7303EAD0
:10263000022319438183704721B1028842F080024E
:10264000028004E002884FF67F731A4002807047D0
:1026500021B1828842F00402828004E082884FF631
:10266000FB731A408280704721B1828842F00802D1
:10267000828004E082884FF6F7731A4082807047A8
:1026800021B1828842F00102828004E082884FF604
:10269000FE731A40828070470A460021018B4FF674
:1026A000F77319401143018370470A460021018BDB
:1026B0004FF2FF7319404FF6FF7303EA02231943E9
:1026C000018370470A460021818B4FF6F77319404A
:1026D0001143818370470A460021818B4FF2FF73BB
:1026E00019404FF6FF7303EA0223194381837047B1
:1026F0000A460021018B4FF6FB73194011430183F9
:1027000070470A460021018B4FF6FF3319404FF600
:10271000FF7303EA02231943018370470A4600212D
:10272000818B4FF6FB7319401143818370470A4632
:102730000021818B4FF6FF3319404FF6FF7303EAF8
:1027400002231943818370470A460021018B4FF60B
:102750007F7319401143018370470A460021018BA2
:10276000C1F30E014FF6FF7303EA022319430183FD
:1027700070470A460021818B4FF67F731940114341
:10278000818370470A460021818BC1F30E014FF609
:10279000FF7303EA02231943818370470A4600212D
:1027A000018C4FF6FD7319401143018470470A46AE
:1027B0000021018C4FF6F7731940114301847047D3
:1027C0000A460021018C4FF6DF7319404FF6FF7364
:1027D00003EA02131943018470470A460021018C61
:1027E0004FF67F7319404FF6FF7303EA0213194344
:1027F000018470470A460021018C4FF6FF531940AF
:102800004FF6FF7303EA02231943018470470A4617
:102810000021018C4FF2FF7319404FF6FF7303EA5A
:1028200002231943018470470A460021018C4DF6AA
:10283000FF7319404FF6FF7303EA02331943018413
:10284000704730B5002301248C40A3B2048C9C4314
:102850000484048C02FA01F5ADB22C43048430BD2B
:1028600030B5002304248C40A3B2048C9C43048420
:10287000048C02FA01F5ADB22C43048430BD70B56E
:102880000346002000241846183001258D40ACB2C4
:102890001D8CA5431D8409B1082909D100EB6100F5
:1028A000056825F0700505600568154305600EE0B4
:1028B0000D1FC5F34E052844056825F4E045056065
:1028C00005684FF6FF7606EA02263543056070BDBF
:1028D00021B1028842F00202028004E002884FF631
:1028E000FD731A400280704721B1028842F0040251
:1028F000028004E002884FF6FB731A4002807047A2
:1029000021B1828842F08002828004E082884FF602
:102910007F731A408280704702884FF6F7731A401F
:10292000028002880A430280704782884FF68F73C4
:102930001A40828082880A438280704702894FF65B
:10294000F8731A40028102890A43028170470289A2
:102950004FF67F731A40028102890A430281704751
:1029600081847047818570478186704701877047F1
:1029700081877047A0F84010704702884FF6FF43E8
:102980001A40028002880A43028070470146888EFE
:1029900070470146088F70470146888F704701468F
:1029A000B1F8400070470146888C70470146088D99
:1029B000704702460020138A0B400BB1012000E053
:1029C00000207047CA430282704730B5024600209B
:1029D00000230024158A05EA0103958905EA01040C
:1029E00013B10CB1012000E0002030BDCA430282C7
:1029F0007047000010B50446FB48844209D101210C
:102A00008803FFF79FF800214FF48040FFF79AF802
:102A100032E0F648844209D101214804FFF79FF8CB
:102A200000214FF40030FFF79AF825E0F048844287
:102A300009D101218804FFF792F800214FF480208A
:102A4000FFF78DF818E0EB48844209D10121C80452
:102A5000FFF785F800214FF40020FFF780F80BE026
:102A6000E548844208D101210805FFF778F80021E4
:102A70004FF48010FFF773F810BD2DE9F04786B0D2
:102A800005460E460024A24600BFA1460027B08995
:102A900000B100BF2F462C8A4CF6FF700440F0882E
:102AA00004432C82AC894EF6F3100440B08831897F
:102AB0000843718908430443AC81AC8A4FF6FF4058
:102AC0000440B0890443AC8201A8FEF7B4FFC648B5
:102AD000874202D1DDF810A001E0DDF80CA0A88942
:102AE00000F4004040B10AEBCA0000EB0A10316864
:102AF0004900B0FBF1F807E00AEBCA0000EB0A104E
:102B000031688900B0FBF1F86420B8FBF0F00401F3
:102B10002009642101FB1089A88900F4004040B11C
:102B2000322000EBC900B0FBF1F000F007000443D5
:102B300008E0322000EB09106421B0FBF1F000F056
:102B40000F0004432C8106B0BDE8F0874FF4165106
:102B5000016000218180C18001810C21418100211F
:102B60008181704710B502460020108A4FF2FF03A2
:102B700018400B884C8823438C882343CC882343FC
:102B80001843108210BD0021018041808180C180E6
:102B9000704721B1828942F40052828104E0828927
:102BA0004DF6FF731A4082817047F0B5034600244A
:102BB00000260025002040F66A17B94200D100BF68
:102BC0001846C1F3421401F01F06012707FA06F563
:102BD000012C01D10C3004E0022C01D1103000E0B6
:102BE00014301AB107682F43076002E00768AF434B
:102BF0000760F0BD1AB1838A0B43838202E0838AA7
:102C00008B4383827047028A4FF6F0731A40028228
:102C1000028A0A430282704782894FF2FF731A4088
:102C2000828182890A438281704721B1828942F080
:102C30000202828104E082894FF6FD731A4082818C
:102C40007047028A4FF6DF731A400282028A0A43F3
:102C50000282704721B1028A42F48042028204E07B
:102C6000028A4BF6FF731A4002827047C1F30802D2
:102C70008280704701468888C0F3080070478189C8
:102C800041F0010181817047028BD2B20283028B35
:102C900042EA012202837047028B02F47F420283E0
:102CA000028B0A430283704721B1828A42F02002DC
:102CB000828204E0828A4FF6DF731A408282704774
:102CC00021B1828A42F01002828204E0828A4FF6A9
:102CD000EF731A408282704721B1828A42F0080263
:102CE000828204E0828A4FF6F7731A40828270472C
:102CF00021B1828942F40042828103E08289C2F3D9
:102D00000E028281704721B1828A42F4006282827F
:102D100004E0828A4FF2FF731A4082827047828AEF
:102D20004FF6FB731A408282828A0A43828270477E
:102D300021B1828A42F00202828204E0828A4FF646
:102D4000FD731A408282704702460020B1F5007F71
:102D500000D100BF13880B400BB1012000E0002020
:102D6000704701F40072B2F5007F00D100BFCA4382
:102D70000280704770B50246002400230025002021
:102D800040F66A16B14200D100BFC1F3421501F00E
:102D90001F03012606FA03F3012D02D19689334061
:102DA00006E0022D02D1168A334001E0968A3340B4
:102DB0000C12012606FA04F41688344013B10CB143
:102DC000012000E0002070BD10B50022002340F675
:102DD0006A14A14200D100BF0A1201249440A3B298
:102DE000DC43048010BD0000003801400044004076
:102DF00000480040004C0040005000407047000078
:102E00001CB50C46064B7B4469460090204600F0FA
:102E1000CCFA04460020694600F0DAFA20461CBDD0
:102E2000C70500000FB4044910B503AA029800F0CA
:102E3000EBFA10BC5DF814FB280C00200FB41CB595
:102E4000084B06AA7B4469460090059800F0ADFA4D
:102E500004460020694600F0BBFA20461CBC5DF821
:102E600014FB00008905000070B50C460546012AD8
:102E700005D02878800600D5EA69002302E0012306
:102E800005E05B1C934202D2E05C0028F9D1A869FE
:102E9000E618C01AA861286A18442862284600F07B
:102EA000D9F904E0D5E9012114F8010B9047B442A7
:102EB000F8D3284600F0E4F970BD00002DE9F04198
:102EC0000646002410687529314616A510D000F07A
:102ED000E8F9002802DA404213A507E031688A07C2
:102EE00001D512A502E0490704D511A5012401E08E
:102EF00000F0E0F900210A2206F1240709E0B0FB06
:102F0000F2FCB0FBF2F302FB1C00303078541846A0
:102F1000491C0028F3D123462A463046BDE8F0413B
:102F200000F0D1B9000000002D0000002B000000CF
:102F3000200000002DE9F05F894604464FF0000AAA
:102F4000DFF874B1FB44C0F820A02046E168884750
:102F5000002874D0252806D0D4E901219047206AA2
:102F6000401C2062F1E700265F462046E168884762
:102F70002028054607DB312D05D2781910F8200CE2
:102F800008B10643F1E7B00701D526F00406C4F8FE
:102F90001CA00027C4F818A02A2D09D0284601F04B
:102FA00064FB38B304EB8708303DC8F8185019E0CB
:102FB00059F8041B204604EB87029161E1688847B9
:102FC000012F054618D1E069002820DA26F02006F6
:102FD0001DE0D8F8180000EB800005EB4000303809
:102FE000C8F818002046E1688847054601F03DFB17
:102FF0000028EED1012F0AD02E2D08D12046E168FD
:1030000088477F1C0546022F46F02006C4DBA069D6
:10301000002803DA404246F00106A061F00701D023
:1030200026F010066C2D0BD0682D09D04C2D39D010
:103030006A2D35D0742D35D07A2D33D016E038E096
:10304000E1682F4620468847B842054609D16C2FD3
:1030500026D04FF48060E168064320468847054645
:1030600004E06C2F1AD04FF4807006430DB3A5F125
:103070004100192802D8203546F400664A46294600
:10308000204626604E46FDF7ADF880B101280BD0F2
:10309000F61D26F0070000F1080956E74020E4E796
:1030A0008020D8E70020D6E706F104094DE728463E
:1030B00052E7206ABDE8F09F8C17000070B5064605
:1030C00000F0C4F80468054630460A22002100F0EA
:1030D000CBFA2C6070BD30B505460B462A4613F876
:1030E000014B12F8010B08B1A042F8D01CB1002826
:1030F00002D06D1CF1E7284630BD40EA01030246CC
:1031000030B59B0710D14FF0013400E008C208C968
:103110001D1B9D4315EAC41FF8D013F0FF0102F8F0
:10312000011B0DD01B0AF8E711F8013B002B02F838
:10313000013B05D011F8013B002B02F8013BF3D114
:1031400030BD10B5431C02E010F8011B71B18107BE
:10315000FAD14FF0013202C88C1A8C4314EAC21122
:10316000F9D0C01A0A0603D0C01E10BDC01A10BD87
:103170000A0401D0801E10BD0902FCD0401E10BD03
:103180004FF000020429C0F0128010F0030C00F090
:10319000A582CCF1040CBCF1020F18BF00F8012B82
:1031A000A8BF20F8022BA1EB0C0100F097BA5FEA50
:1031B000C17C24BF00F8012B00F8012B48BF00F8A8
:1031C000012B70474FF0013C50F8042B51F8043BA1
:1031D0009A4221D1A2EB0C03934313EACC1317D1EB
:1031E00050F8042B51F8043B9A4215D1A2EB0C0382
:1031F000934313EACC130BD150F8042B51F8043B42
:103200009A4209D1A2EB0C03934313EACC13DBD00F
:103210004FF00000704700BFD01A01BAB1FA81F137
:1032200001F0180122FA01F0CB40C1F12001DBB21C
:10323000C0B2C01A2CFA01F3D11A914311EAC3119A
:10324000E6D1704770477047704770470048704735
:10325000B419002070B5044685690068C10601D51F
:10326000302600E02026C00707D070BDD4E9012138
:1032700030469047206A401C20626D1EF6D570BD16
:1032800070B5044685690078C00707D170BDD4E9E0
:10329000012120209047206A401C20626D1EF6D537
:1032A00070BD09684A0501D540B27047C905FCD513
:1032B00000B2704709684A0501D5C0B27047C90518
:1032C000FCD580B270472DE9F0470D4699469246ED
:1032D000044600F124080168880604D5E06921F05D
:1032E0001001216000E00120A84201DD471B00E041
:1032F0000027A1697A1902EB0900081AA061207859
:10330000C00602D42046FFF7A5FF002608E0D4E956
:1033100001211AF806009047206A401C761C2062A2
:103320004E45F4DB2078C0060AD52046FFF792FF11
:1033300006E0D4E9012130209047206A401C206239
:10334000381EA7F10107F4DC07E0D4E9012118F8E1
:1033500005009047206A401C2062281EA5F1010547
:10336000F3DC2046FFF78CFF2078000602D5022010
:10337000BDE8F0870120FBE711680268006A530589
:1033800001D508700AE0D30501D5088006E01306D0
:1033900003D5C217C1E9000200E0086001207047B0
:1033A00001694A1C02610878704700B58FB0CDE909
:1033B00001310021059105497944CDE903101146F9
:1033C0006846FFF7B7FD0FB000BD0000E5FFFFFF47
:1033D0000A6802F8010B0A60704710B5436913B11F
:1033E000AFF3008001E0FFF73FFD012010BD127830
:1033F00000F124010A7000224A700122EDE71168F1
:103400004FF0FF32E9E70000074B70B50D467B44F3
:10341000FFF7CBFF0446284600F049FC10B14FF0FF
:10342000FF3070BD204670BDC9DDFFFF2DE9FF5F95
:1034300015468A460446DFF8AC80F8440027D8E9F0
:1034400000103E46CDE9001010E03AF816106A462A
:1034500002A800F030FC411C07D02178890603D572
:10346000E269391891420DD80744761C207880060D
:1034700002D5E069B84205DDAE42E6DB3AF8160057
:103480000028E2D1A069C01BA0612046FFF7E2FE40
:10349000D8E90010CDE90010002017E03AF8181024
:1034A0006A4602A800F007FCB0F1FF3F81460BD04E
:1034B00000250DF1080B05E0D4E901211BF80500FA
:1034C00090476D1C4D45F7D308F10100B04280468E
:1034D000E4DB206A384420622046FFF7D1FEBDE8D5
:1034E000FF9F0000AA1200002DE9F0418046D21D86
:1034F00022F007020025D2E90002F52915A614D012
:10350000011E72F1000106DA0023D0EB030063EB29
:10351000020211A608E0D8F800108B0701D50FA60B
:1035200002E0490701D50EA601251146002408F145
:10353000240704E000F004F930323A55641C50EAE4
:103540000102F7D12B46324621464046BDE8F04104
:10355000FFF7B9BE000000002D0000002B000000A6
:103560002000000030B4002100F1240408E002F043
:103570000705D208303542EA4372DB086554491C1E
:1035800052EA0305F3D10468002310A2250708D5E9
:1035900004F020040C4304D0C46901230CA2641E6F
:1035A000C46130BCFFF78FBE10B5044621461068D9
:1035B000FFF780FE02462046BDE810400023D1E719
:1035C000D21D22F00701D1E90023CBE70000000063
:1035D00030000000F0B40D460188090502D5214CE9
:1035E0007C4402E01F4C7C440E34002100F1240690
:1035F00008E002F00F071209E75D42EA03721B09B7
:103600007754491C52EA0307F3D1027800231207CA
:1036100004D5702D06D009B1022311342246F0BC26
:10362000FFF751BE01231034F8E770B504460D468C
:1036300021461068FFF73EFE024629462046BDE8B7
:1036400070400023C6E7D21D22F00703D3E9002310
:10365000C0E70368126843F0200303600823C361D6
:103660000023B7E70C1100002DE9F04791460F4603
:1036700080460446002614F8015B2DB100F058F88E
:103680000068405DC007F6D12B2D02D02D2D18D03B
:10369000641E4A463946204600F0BAFA27B1396816
:1036A000A14201D1C7F800804FF0020471050BD58B
:1036B0004042002803DDFFF7C9FD0460A007BDE814
:1036C000F08746F48066E4E70028F8DAFFF7BEFDED
:1036D00004606FF00040F2E74FF0000200B51346BF
:1036E00094469646203922BFA0E80C50A0E80C5022
:1036F000B1F12001BFF4F7AF090728BFA0E80C50D3
:1037000048BF0CC05DF804EB890028BF40F8042BCB
:1037100008BF704748BF20F8022B11F0804F18BF38
:1037200000F8012B7047000000487047B4190020D2
:1037300010B500F005FB001D10BD00BF3D0F0000DF
:1037400030B5B0F10A024FEA900E71F100034EEA73
:10375000817EB0EB0E0061EB91014FEA101E4EEA44
:10376000017E10EB0E0041EB11114FEA102E4EEAD4
:10377000016E10EB0E0041EB11214FEA104E4EEAA4
:10378000014E10EB0E0041EB1141401841F10001D8
:103790004FEAD00040EA41704FEAD10110EB8005BA
:1037A0004FEA810444EA907444EB01046D1944EB40
:1037B0000404521BA3414FF0000348BF0A3200D556
:1037C00030BD401C41F1000130BD70472DE9FF4F75
:1037D0000C461E464FF0FF378BB0D2E90001DDF8F2
:1037E00060800A908A46C1F30A5505B93D4600211A
:1037F00008464FF00000BAF1000F00F4400005DA6F
:1038000000EB80004FF4400101EA50004FEA90596C
:10381000B9F1010F00DDB9460A9850EA4A000ED00E
:1038200044F61050A5F2FF3545432F14B8F1000FB0
:103830001ED07542291E1EDDC9F100021CE0B8F140
:10384000010F4FF0000001D0302103E0F24305E00A
:103850002154401CB042FBDB3046002200212154A1
:103860000B99C1F80880C1E900200FB0BDE8F08FC6
:10387000BD1B6D1CDEE74A4600DA694206A800F06F
:10388000B1FA06AB93E8070003AB83E807005046A4
:103890000A9900F01BFB8DE80700A0F500501F38C7
:1038A00000900398002D09DD42F21F014A460844AA
:1038B00003A90390684600F07AFD08E0A0F50050E7
:1038C0004A461F3803A90390684600F084FD8DE83E
:1038D00007000004000C03D04FF0FF30410800E067
:1038E0001046B8F1000F03D00022009215461EE0EA
:1038F000751E05D4FFF724FF303262556D1EF9D5D1
:10390000B3460122084302D000227F1C04E0207845
:10391000302801D100227F1E002A099786D01DE0A1
:10392000112D07DAFFF70CFF303262556D1C50EA9B
:103930000102F5D1084302D00098C8B10EE0002181
:10394000681E05E0235C625C63542254401E491CDF
:103950008142F7DBAB46A81B401E0990002004F80B
:103960000B000B98099AC0F80880C0E9002B7CE78F
:1039700011264FF0000859E72DE9F04F884604461C
:10398000D21D22F0070191B0D1E90001CDE90A0171
:1039900000F057FE02460B98C00F01D02D2007E023
:1039A0002068810701D52B2002E0202101EAC00018
:1039B000032A099001D0072A05DB03464146204629
:1039C00000F0C2F90BE12078800601D5E06900E043
:1039D0000620B8F1650F814606D0B8F1660F18D001
:1039E000B8F1670F70D131E00020B9F1110F0090EC
:1039F00001DB112301E009F101030AAA01A90CA8C6
:103A0000FFF7E4FEDDE90C70002609F101058346AD
:103A100047E001204B4600904FF000470AAA01A959
:103A20000CA8FFF7D3FEDDE90DB00C995D4600262A
:103A300010B909F101000D18B9EB050003D4C0F16C
:103A4000FF3609F10105A5EB09002BE0B9F1010FE3
:103A500001DA4FF001090020B9F1110F009048463A
:103A600001DD112300E003460AAA01A90CA8FFF713
:103A7000ADFEDDE90C704D46002683462078000738
:103A80000AD4AB4500DA5D4601A8012D04DD4119D9
:103A900011F8011C302907D04F4502DA17F1040F45
:103AA00004DA012082460FE06D1EEEE7002F02DCF3
:103AB000ED1B3E4403E0781CA84200DD7D1CB81BD2
:103AC00000F1010A4FF000472078000703D4AA450F
:103AD00001DB4FF0FF3A0021B7F1004F0DF1430831
:103AE0008DF8431024D002202B23002F01DA7F42CF
:103AF0002D230A21021EA0F1010000DC5FB197FB1B
:103B0000F1FC97FBF1F201FB1C7C17460CF1300C29
:103B100008F801CDEEE7A8F101000370218809053E
:103B200001D5452100E06521A0F1010800F8011C44
:103B300009980FA9A1EB0807FF1D00B10120411949
:103B400001EBEA70A1693844081A401EA061207890
:103B5000C00602D42046FFF77DFB099828B1D4E9BE
:103B600001219047206A401C20622078C00622D59F
:103B70002046FFF76FFB1EE0002E04DBB34502DD9D
:103B800001A8805D00E03020D4E901219047206A3F
:103B9000401C2062761CAAF101005FEA000A0AD1EB
:103BA00000F0CEF8C0680168405CD4E9012190477C
:103BB000206A401C2062281EA5F10105DCDC07E01C
:103BC000D4E9012118F8010B9047206A401C2062BB
:103BD000381EA7F10107F3DC2046FFF751FB032055
:103BE00011B043E610B5436913B1AFF3008001E0B3
:103BF000FFF71CFC012010BD128800F12401828413
:103C00000022C2840122EDE711684FF0FF32E9E79C
:103C10002DE9F05F824615468B4600270AF1010424
:103C2000B9460078302801D09DB113E014F8010B9B
:103C30000127782803D0582801D045B10AE00DB1FA
:103C4000102D07D1002714F8010B102502E00825DC
:103C500000E00A250026B0460EE005FB080005FB43
:103C600006F101271FFA80F801EB1046B6F5803FF8
:103C700000D3B94614F8010B294600F0A5F8002836
:103C8000EBDABBF1000F05D00FB1641E00E0544623
:103C9000CBF80040B9F1000F06D0FFF7D7FA0221A8
:103CA0000160C81EBDE8F09F48EA0640FAE7007BC5
:103CB00000F08000704770B516460C460546FFF7C9
:103CC00037FD036893F80101012806D0FF2C0FD8B7
:103CD000185D68B101202C7070BDD3F80701324621
:103CE000214603F2071303442846BDE870401847F5
:103CF0004FF0FF3070BD7546FFF716FDAE4605006C
:103D00006946534620F00700854618B020B5FDF7F8
:103D100063FBBDE820404FF000064FF000074FF076
:103D200000084FF0000B21F00701AC46ACE8C009D9
:103D3000ACE8C009ACE8C009ACE8C0098D467047E2
:103D400000487047D41900202DE9F0411F46044671
:103D500003260168072A01F4006004DB08B116A5F8
:103D600005E016A503E008B115A500E015A521F0B2
:103D700010002060A069C01EA0610FB1401EA061AC
:103D80002046FFF767FA4FB1D4E901213846904742
:103D9000206A401C2062C01C206206E0206AFAE70C
:103DA000D4E9012115F8010B9047761EF8D2204680
:103DB000FFF766FABDE8F0814E414E006E616E007D
:103DC000494E4600696E66003A2800D2303820F02D
:103DD0002002412A01D3A2F13700884201D34FF0DB
:103DE000FF3070472DE9F047814616468AB03348C8
:103DF00078440DC88DE80D0030487844801C03AC31
:103E00000DC884E80D0041F69B300844372190FB33
:103E1000F1F290FBF1F5A5F1800501FB12041B3CCA
:103E200002D56442012000E00020DFF890A0804627
:103E30000027FA44AAF1BE0A0DE0E00709D0324695
:103E4000684607EB47010AEB810100F0C4FA8DE8F0
:103E5000070064107F1C002CEFD1184F7F44AC3F4B
:103E600018E0E80714D007EB04100DF1180A90E8E9
:103E70000E008AE80E00C068F04201D1981908903F
:103E8000324606A903A800F0A6FA03AB83E80700B0
:103E90006D10641C002DE4D132466946B8F1000F64
:103EA00003A802D000F083FA01E000F094FAC9E917
:103EB0000001C9F808200AB0BDE8F087A009000099
:103EC0000446AFF300802046FCF7EFF95FEA400CB0
:103ED00008BF91F0000F4FEA8C234FEAC12243EA5A
:103EE00051514FEA1C5018BF00F5F0404FEA300026
:103EF00018BF41F000415FEA6C5C00F02980BCF122
:103F0000FF3F08BF40F080407047130C06BF12040B
:103F10004FF0100C4FF0000C130E04BF12020CF106
:103F2000080C130F04BF12010CF1040C930F04BF13
:103F300092000CF1020CD30F04BF52000CF1010CE3
:103F400011464FF00002A0F11F00A0EB0C007047DB
:103F500011F0004F08BF704731F000413FF4D5AF7A
:103F60000B0C06BF09044FF0100C4FF0000C0B0EA9
:103F700004BF09020CF1080C0B0F04BF09010CF17E
:103F8000040C8B0F04BF89000CF1020CCB0F04BF93
:103F900049000CF1010CCCF12003A0EB0C0022FA3B
:103FA00003F302FA0CF241EA030100F10100704749
:103FB00020F07F4C80EA030023F07F47ACEB07033F
:103FC00003F57C5300F0004003F1FF032DE9804925
:103FD0004FEA154B09B44FEA144325EA0B4E24EA85
:103FE00003480FF2042606EB132749083E785FEAE0
:103FF000320203FB0667C7F5000707FB06F64FEA28
:1040000054374FEAD64606F1020607FB066CCCF1A0
:10401000005C4FEA1C472CEA074C07FB06F40CFB3C
:1040200006F504EB15464FEA961634BF00204FF014
:1040300000404FEAD13706FB07FC4FEA1C4C0CFB53
:104040000BF7D21B03FB0CF761EB07010CFB0EF720
:10405000B0EB074072EB17420CFB08F734BFA2EB42
:104060000742B2EB074261EB17414FEA0C444FEABB
:10407000910706FB07FC4FEA1C4C0CFB0BF7B0EB5F
:10408000C74072EB573203FB0CF734BFA2EBC742B9
:10409000B2EBC74261EB57310CFB0EF7B0EBC70038
:1040A00072EB57720CFB08F734BFA2EBC702B2EBFE
:1040B000C70261EB5771039F4FEA816141EA921198
:1040C00004EBCC044FEAD1374FEA826206FB07FCCF
:1040D00042EA90124FEA80604FEA1C4C0CFB0BF74F
:1040E000D21B03FB0CF761EB07010CFB0EF7B0EBE7
:1040F000074072EB17420CFB08F734BFA2EB0742F4
:10410000B2EB074261EB17414FEA8C554FEA91073A
:1041100004EB9C2406FB07FC4FEA1C4C0CFB0BF742
:10412000B0EBC74072EB573203FB0CF734BFA2EB86
:10413000C742B2EBC74261EB57310CFB0EF7B0EB55
:10414000C70072EB57720CFB08F734BFA2EBC70233
:10415000B2EBC70261EB577115EB4C254FEA816159
:1041600041EA92114FEA82624FEAD13742EA901255
:1041700006FB07FC44F100044FEA80604FEA1C4C48
:104180000CFB0BF7D21B03FB0CF761EB07010CFBDD
:104190000EF7B0EB074072EB17420CFB08F734BF89
:1041A000A2EB0742B2EB074261EB174115EB1C157E
:1041B0004FEA813141EA92414FEA823242EA90422B
:1041C0004FEA80304FEA0C7644F1000448EA03439A
:1041D0004EEA0B484FF0000EB2EB080C71EB0307F0
:1041E00024BF624639464EEB0E0E4FF0000B00180E
:1041F000524149414BEB0B0BB2EB080C71EB03073F
:104200007BF1000B24BF624639464EEB0E0E4FF099
:10421000000B0018524149414BEB0B0BB2EB080C61
:1042200071EB03077BF1000B24BF624639464EEB6E
:104230000E0E51EA020718BF46F0010616EB0E7685
:1042400055F1000254F1000103D5BDE88901BDE834
:104250000088BDE88901BDE80048B619524141EB2C
:104260000101A3F10103704780807F7E7D7C7B7A12
:104270007978777676757473727171706F6E6E6D12
:104280006C6C6B6A6A6968686766666564646363B8
:1042900062616160605F5F5E5E5D5D5C5C5B5B5A3E
:1042A0005A595958585757565655555554545353AB
:1042B00052525251515050504F4F4F4E4E4D4D4D06
:1042C0004C4C4C4B4B4B4A4A4A4949494848484751
:1042D000474747464646454545444444444343438F
:1042E0004342424242414141002B26D4770021D033
:1042F0001CB54FEA370703B44FF010004FF0100120
:104300004FF000000FBCBDE810400BF1010BBBF1FA
:10431000010F08BF5FEA170722BF12F1010211F176
:1043200001014FF0004143F1000300F0004043EA77
:1043300000007047F9D35708DAE746EA064613F15A
:10434000400F4FEA16461FDD13F1200FDFBF164363
:104350000A46002120335B42C8D0C3F1200746EA59
:10436000064602FA07F74FEA164646EA0706C3F181
:10437000200722FA03F201FA07F721FA03F14FF0BE
:10438000000342EA0702B1E746EA020646EA0646A9
:104390004FEA164646EA0106BCBF46EA0646360C18
:1043A0004FF000034FF000024FF000019EE72DE9AF
:1043B000C048934630B491E8380007C831EA400C51
:1043C00048BF34EA430C03D5FFF7F2FDFFF78CFF3B
:1043D000F0BCBDE800882DE9C048934630B491E8B0
:1043E000380007C810F0804F08BF13F0804F03D18A
:1043F00000F005F8FFF778FFF0BCBDE8008820F07A
:104400007F4780EA030023F07F4C07EB0C03A3F502
:104410007C5300F00040A3F1FE0392F0000F00F087
:10442000B38095F0000F00F077802DE901494FEA45
:1044300011404FEA144621EA004800FB06FC24EA3A
:10444000064708FB06F607FB08F800FB07F718EB22
:1044500006484CEB164C4FEA124B18EB07484FEA54
:1044600015464CEB174022EA0B4E0BFB06FC25EAE7
:1044700006470EFB06F607FB0EFE0BFB07F71EEBCF
:10448000064E4CEB164C4FF000061EEB074E4CEB65
:10449000174B18EB0B0840F1000018EB0E0B58EB14
:1044A000000840F100008F1A4FF000013CBFC943E3
:1044B000661B14BFB5EB040C00213CBFC943F61BBF
:1044C0004FEA17444EEA8E0E27EA04454FEA1C478E
:1044D00004FB07622CEA074C05FB07F70CFB05F60B
:1044E00004FB0CFC16EB074642EB174216EB0C469E
:1044F00042EB1C421BEB060658EB0202414146EA26
:104500009E0601D5BDE80189B619524141EB010172
:10451000A3F10103BDE801894FEA14454FEA1147B1
:1045200024EA054621EA074C05FB07F406FB07F7DA
:104530000CFB06F105FB0CFC11EB074144EB1744A7
:104540004FEA124711EB0C4144EB1C4422EA074CA2
:1045500005FB07F206FB07F70CFB06F605FB0CFC58
:1045600016EB074642EB174216EB0C4642EB1C4596
:104570006A1854F1000148BF7047B619524141EB27
:104580000101A3F10103704795F0000F37D04FEA06
:1045900011424FEA144721EA024624EA074C02FB83
:1045A00007F106FB07F70CFB06F402FB0CFC14EB0F
:1045B000074441EB17414FEA154714EB0C4441EB1C
:1045C0001C4125EA074C02FB07F506FB07F70CFB2D
:1045D00006F602FB0CFC16EB074645EB174516EBFF
:1045E0000C4645EB1C42121951F1000148BF7047BF
:1045F000B619524141EB0101A3F1010370474FEAA3
:1046000014454FEA114724EA054621EA074C05FB09
:1046100007F106FB07F70CFB06F24FF0000605FB5F
:104620000CFC12EB074241EB174112EB0C4251EB31
:104630001C4148BF7047921841EB0101A3F10103EF
:104640007047490050EAC12018BF04204A0D18BF26
:1046500040F0010040F2FF72B2EB515F08BF40F042
:104660000200012808BF0520704730380A2801D20F
:10467000012070470020704710B500290AD0087843
:10468000002807D005487844FEF79CFD002801D09B
:10469000002010BD0248784410BD00004601000013
:1046A0003E01000010B500290AD00878002807D084
:1046B00005487844FEF786FD002801D0002010BD93
:1046C0000248784410BD00002A02000022020000C7
:1046D000FFF752B9040000080000000000000002CB
:1046E00000010000100000000000000000000000B9
:1046F0003031323334353637383941424344454618
:104700004030580030313233343536373839616211
:10471000636465664030780002400000000000A03D
:104720000000000005400000000000C8000000007C
:104730000C4000000000409C0000000019400000F8
:104740000020BCBE0000000034400000BFC91B8E2A
:1047500000000004B5400000504BCFD06607E2CF08
:10476000010000006C4100003E8251AADFEEA73438
:1047700001000000D9420000DCB5A0E23A301F97EA
:10478000FFFFFFFFB4450000FD25A0C8E9A3C14F0E
:10479000FFFFFFFFFF3F000000000080000000005F
:1047A000FF3F00000000008000000000F848000803
:1047B00000000020440C00006C010008104B0008B1
:1047C000440C0020D4130000C801000810010000B0
:1047D00043000000F8FFFFFF0040404040404040E1
:1047E00040404141414141404040404040404040C4
:1047F0004040404040404040400502020202020268
:1048000002020202020202020220202020202020B6
:1048100020202002020202020202909090909090CA
:104820001010101010101010101010101010101088
:1048300010101010020202020202888888888888FC
:1048400008080808080808080808080808080808E8
:1048500008080808020202024000000000000000F0
:104860000000000000000000000000000000000048
:104870000000000000000000000000000000000038
:104880000000000000000000000000000000000028
:104890000000000000000000000000000000000018
:1048A0000000000000000000000000000000000008
:1048B00000000000000000000000000000000000F8
:1048C00000000000000000000000000000000000E8
:1048D0000000000000000000000000001C000000BC
:1048E00043000000F8FFFFFF0C0000000E00000076
:1048F0000F0000002E0000001184A24A040009509D
:1049000001020304060708090B4E4154500B4C45A5
:1049100030500E4C2B4347534E500B4B4D52500DC5
:104920004A50494E3F500C4B494D49A0034A535100
:1049300029500E4C5245473D32500A4E3FA00A497D
:1049400030500D4647415454A1395008153844435E
:104950004F4E543D312C224950222C22434D4E457E
:104960005422501F5847415554484F19511C6773E2
:104970006D520D35313233345129500E4849494377
:104980003D31F0295002483F1950081B3D4854540E
:1049900050504152413D75726C2C7777772E626191
:1049A0006964752E636F6D50080842706F72742CC5
:1049B0003830A00E495345545550F008083C414347
:1049C00054494F4E3D9C0911500F472C302C353126
:1049D00032500A4231A0180A5454534346473D33DB
:1049E0002C020945500645464D543D3049500F4272
:1049F000504C41593D3152195008113F48545450C0
:104A0000414354494F4E3D322C322C31A008093CD1
:104A10004350434C4F53453D4AA95008202C534521
:104A20005455503D312C76312D746D6C2E6C756C57
:104A3000756361692E636E2C313830363050080949
:104A40004B4950535441545553A01B4E449F0A2A7E
:104A5000318A091750000A6C48545450434C4F5344
:104A60004503264F4B062352454144590E232B4301
:104A700053513A2808081F5245473A20322C28083B
:104A8000081E474154543A2031281F584949433A97
:104A90002001091C2A080A1D2B4854545052454332
:104AA00056A502273E080D1C2B545453504C415917
:104AB0003A204F4B28080F1A4350434C4F53453A66
:104AC000204552524F52281E5345545550F30A194F
:104AD0002C53280A2B495053544154555328180934
:104AE000434F4E4E4543542C3C0E142C3430393633
:104AF00078091C5039782B4E4427033031302D0172
:104B0000020304042009060708090204060800003D
:0400000508000131BD
:00000001FF
